:020000040800F2
:10000000681A0020E1000008770A0008750A000855
:1000100000000000000000000000000000000000E0
:100020000000000000000000000000007B0A000843
:100030000000000000000000790A0008D116000846
:10004000F3000008F3000008F3000008F3000008C4
:10005000F3000008F3000008F3000008350800086A
:100060000000000065040008F3000008F300000829
:10007000F3000008F3000008F3000008000000008F
:10008000E91E0008F300000800000000F30000086B
:10009000F3000008791E0008F3000008F3000008D0
:1000A000F3000008F3000008F3000008F300000864
:1000B000F300000800000000000000000000000045
:1000C000F300000800000000F30000080348854624
:1000D00000F090F900480047D92B0008681A00206A
:1000E0000448804704480047FEE7FEE7FEE7FEE7D6
:1000F000FEE7FEE7D5160008CD00000803460B43D7
:100100009B0703D009E008C9121F08C0042AFAD2CD
:1001100003E00B780370401C491C521EF9D2704753
:10012000D2B201E00270401C491EFBD2704700228F
:10013000F6E710B513460A4604461946FFF7F0FFE6
:10014000204610BDF8B502464A40D40F42004B008D
:1001500052085B089A4202D20246084611464A00FB
:1001600023D0C30D4A00DDB2120EAD1A202D35DAB0
:1001700049020126490AF6058A19002C00D052428C
:1001800020214F1B1146B9402A411018C20D9A4236
:1001900021D0002C17D0012D08DCDA05801AD20FEF
:1001A0008019D207DBB200F0EBF8F8BDDA05801A4F
:1001B000012340001B06C01880185A428018CA0F3D
:1001C0001043490007E04908C2071143DA05801AC5
:1001D00080194008801800F0CBF8F8BD61000122BA
:1001E000511A001BF7E70122D2075140AAE701226A
:1001F000D2075040A6E7024670B54A40D30FDB074E
:1002000040002DD04A002AD0010E140E0002120226
:100210000919400A520A8418E50104465443000AA9
:10022000120A2E045043A4194219200CC543AA18DF
:10023000120C0125AD03521C521912047F392404FB
:1002400000D0521C104301D44000491EC2B20C061B
:10025000C0092018401C4008802A02D003E000207A
:1002600070BD40084000002900DA0020184370BD2E
:1002700070B502464A40D50F40004A00ED074008DD
:100280005208002814D0002A12D0C40DD30D410208
:100290000120C0055202490A520AE41A091812182C
:1002A0007D34914201D3641C00E04900002C01DA46
:1002B000002070BD0023914201D3891A03434008F6
:1002C00049000028F7D100290AD0914202D101212A
:1002D000C90705E0914201D2012101E00121C94392
:1002E000E005C018401900F043F870BD0122D207A4
:1002F000002800DB101A002900DB511A814201D8C6
:10030000012070470020704710B500229623114647
:1003100000F036F810BDC20F410040020123400A30
:10032000DB05D207090EC0187F2901DA00207047CB
:10033000962903DC9623591AC84001E09639884073
:10034000002AF4D040427047410040020122400A96
:10035000D205090E80187F2901DA002070479629FE
:1003600003DC9622511AC84070479639884070477E
:10037000002904DA401C490001D1400840007047C0
:1003800070B40024050C05D11024000402D100290A
:1003900021D01124050E01D100020834050F01D12E
:1003A0000001241D850F01D18000A41C002801DB61
:1003B0004000641C002908D020252E1B0D46F54066
:1003C000A14000D001212943084301061B1B000A5C
:1003D000DB1D02D5002070BC7047DB0518188018A3
:1003E0000029F8DA401C4900F5D170BC40084000F3
:1003F000704700001CB50948009009480190054667
:100400000126009C05E0E36807CC33430C3C984789
:100410001034AC42F7D3FFF75DFE0000946C000887
:10042000B46C000870B50446002903D000202022D7
:10043000012310E0002801D00020C043C046C04680
:100440000DE02546D5408D4205D30D469540641BF1
:100450001D46954040191546521E002DF1DC2146DF
:1004600070BD000070B5174E35880020042101F0E2
:10047000D3FF6C0858B10020042101F0C3FFB2681B
:100480002AB1706818B1022D01D32146904700208F
:10049000022101F0C1FF98B10B4801210170002039
:1004A000022101F0AFFFB26852B1706840B1022D75
:1004B00006D361004018214670BC08BC9E46104718
:1004C00070BDC0467000002018000020D748C079D9
:1004D0007047C046D54880797047C04670B5D34D47
:1004E000E879401C0321B0FBF1F24A43801A2C7AD0
:1004F000EFF3108672B6E871C74802218170E8797F
:10050000022805D1CA48143000F0B4FF04F0DAF92B
:1005100006B962B6E879012803D0A879E97931B93A
:1005200028B102F0BFF824B904F0CCF901E002F0E0
:10053000D5F870BC01BC864601F07CBBB0B590B16B
:10054000044641F200403E212161606100252560A2
:100550006560A560204601F08FFE38202554A586F1
:10056000E58685482063B0BDF0B58BB017460C46D4
:1005700005460C21FFF7DBFD002C00D1FAE07E4898
:1005800087423E4600D30646A0680A9010B130026A
:10059000216801E030020146421A1212511821600E
:1005A00062685118401A801080186060000A288024
:1005B00000B2C1174840411A6069020A0323079339
:1005C0005A43462A00D846222346283309936B4BC8
:1005D000914206D20902091A891108186061E0687F
:1005E0004DE0E06822690A99091A914247D3012235
:1005F000AA70002841D01846FA304843FA21B0FBCF
:10060000F1F081B240F22C13C91A5D4B99425B4B59
:1006100033D80496A0852346183309994E78089656
:10062000089E760098530898461C072008900640BC
:1006300002964E7008780728069701D8401C08706B
:100640000390C1B2002005911E4621B13788C01920
:10065000491EB61CF9E7069F38B14A49059E714309
:1006600046087118B1FBF0F06085039EF0B20228D5
:100670003CD20022049EE285404B0A98E06030B1F3
:100680000A99081A984202D9204601F0F5FD208EF9
:10069000864201D226863046618E8E4201D9668618
:1006A0003146394E112F01D3B74202D9A28E521CC6
:1006B000A286E28E521CE28692B2FA2A099F4ED39B
:1006C000A28E042A01D9042104E0081A80B2142859
:1006D000079904D23974204601F0CEFD3AE046284D
:1006E00002D32A49884233D3022032E0019502998D
:1006F0008E1B3146089D29400027D5B285420DD278
:10070000C9B249005D5A711C089E31404E009E5B83
:10071000751B6D43EF19521C0E46EEE70598401EFF
:10072000B7FBF0F101208007034680088B42FBD81D
:100730000022019D069F049E002B9CD09818520811
:10074000814200D3D218081A00D301469B08F3E770
:100750000120387400206063608611362686608D23
:10076000A880A08DE880E08D2881387CA872A068E0
:10077000401CA0600BB0F0BDFF0F0000EE020000B7
:10078000A406000060EA0000EE0F0000B90B0000B4
:100790000248A021024A02F0B5BBC046A4010020D5
:1007A000A525000880B508B11B4988801B4A1C4953
:1007B00000200B461BB11070521C5B1EFAE740F282
:1007C0002032184B1AB118809B1C521EFAE7164AA9
:1007D00019B11070521C491EFAE714498881C8816A
:1007E0004863087008824882C8820883C8634883C7
:1007F00088830864886388824864C88388704870E6
:1008000004F004FC0A48143000F034FE80BC01BC43
:10081000864600F06DB8C0460A000020E4020020C1
:10082000E2040000FE080020810F0020E400002008
:100830005401002080B5102001F0F0FF30B10448D1
:10084000183080BC02BC8E4601F066BE80BDC0463A
:1008500020000020F8B50090032801D80320009064
:100860000025814F2C462E46A8B2009988420ED210
:1008700000F018F8A1B28842044600D80C46B9B27C
:100880008842074600D30F4636186D1CECE7A0B22D
:10089000B9B20818301A0099891EB0FBF1F080B285
:1008A000F8BDC046B0B50224204601F021FC01206D
:1008B00001F072FC074D6D1C204601F01FFC08B9C9
:1008C000002DF8D125B1B0BC01BC864601F05EBC5C
:1008D0000020B0BD5F79FEFF124880887047C04697
:1008E0001048C0887047C0460E4880787047C046A0
:1008F00010B50C4C20460C30FFF720FE0020606045
:10090000A07020802081A07210BDC046BFB50246F5
:10091000044D29460C3101AC2046FFF725FE07CCDB
:1009200007C5BFBD88000020F0B585B00024009445
:10093000A02280232046214600F0DAFF012602276C
:10094000032512200490202C17D04FF600000090B1
:1009500040490857503080B20B199957491D89B248
:10096000DA57503292B25B575B1D9BB200F064FFC6
:10097000049801F0BFFCA41CE5E700240E200490BD
:100980001C2C16D03448009034490857503080B29F
:100990000B199957491D89B2DA57503292B25B57F9
:1009A0005B1D9BB200F048FF049801F0A3FCA41C5F
:1009B000E6E70025182004900C20039033244B26F2
:1009C0002F46042F12D0009504980190029524A080
:1009D000C25D03987843383080B22146224B01F043
:1009E00089F8304601F086FC7F1CEAE700201021E0
:1009F000009001910290202050211C4A1C4B01F0D4
:100A0000E7F840F2CF10009014248C226C25204689
:100A100029462B4600F010FF86270C26A0B28C2812
:100A200010D840F2E07100918628014600D3394683
:100A30008A1D29462B4600F0FFFE304601F05AFC85
:100A40000834EBE740F2041005B0F0BC02BC8E465F
:100A500001F050BCB46B0008FF7F0000966B0008EB
:100A60004845535300000000FFFF0000D66B00080C
:100A70001F840000FEE770477047704770B5002480
:100A800010B109B1934203D223462002C01870BDB1
:100A9000049E9B1A9DB2B5422346F6D36B089B1861
:100AA00000229BB20C4634B105889D4200D8521CEE
:100AB000801C641EF7E790B2642242434808101875
:100AC000B0FBF1F40123E0E7F0B58DB00C9100210B
:100AD0000B90002800D1D9E0159C002C00D1D5E066
:100AE00017980890002800D1D0E00C98002800D179
:100AF000CCE0002A00D1C9E01298002800D1C5E05E
:100B0000169D002D00D1C1E00021019100910C99AA
:100B10008A4200D30C9A099413998242164600D354
:100B20000646149C0494941BA4B2A14200D321460F
:100B3000049C0CB1344600E074180795904200D331
:100B400034460C995818001B90FBF1F24A43801A66
:100B500082B20B980A92334602F0F4FF05460198E0
:100B600008990872C8808E804D800D8001272C4620
:100B7000B8B2B04214D200900B980C990A9A33463E
:100B800002F0E0FFA1B2884202D208990880044630
:100B9000A9B2884202D90899488005467F1CE7E738
:100BA00007998E42304600D30846079004980028E3
:100BB0000198069046D0A0B2A9B28142019A06924D
:100BC00040D940184108012003910B9D0C9F84B22D
:100BD000B44225D20690401E80B200902846394685
:100BE0000A9A334602F0AEFF05900294009428461C
:100BF00039460A9A334602F0A5FF0499012906D125
:100C00000399059A914208D3814206D20AE00399DA
:100C1000059A914201D2814204D20698401CD6E73F
:100C200001980EE00120089908720698C8801420E7
:100C3000B6FBF0F0301A02994018B0FBF6F17143A0
:100C4000401A06900799481E0890751E0F46019C91
:100C5000E7B1012901D1002003E00898B4FBF0F0CE
:100C600080B206994018B0FBF6F17143401A00902B
:100C70000B980C990A9A334602F064FF0999088090
:100C80006419891C09917F1E0799E1E708460DB098
:100C9000F0BDF0B488B0069307920A461199109DF2
:100CA0000F9E0CAF98CF5FB1119110950F960CA9C4
:100CB00098C11146079A069B08B0F0BC00F091B8A5
:100CC00003930194079C0492059102950023002848
:100CD00000D182E03746002F00D17EE0059E002E35
:100CE0007BD00499002978D0002C76D00399002974
:100CF00073D0029D002D70D00021009131720499B3
:100D00008C42214600D304990790039B99420846E0
:100D10003D46069C019A00D318460F1ABFB2BA424C
:100D200000D33A468B4200D3009A82180499631884
:100D30009A1A92FBF1F34B43D21A93B2B3FBF1F23E
:100D40004A439A1A520007460798825A009CF48038
:100D5000B7807280328006935C1C03977E1E174614
:100D60001346A6B1B4FBF1F24A43A21A5200825ACA
:100D70009A4203D205990A8004991346BA4203D9CC
:100D800005994A8004991746641C761EE9E7039F7B
:100D9000029887423B4600D30346581E0490781EB3
:100DA0000590002216461F46BFB11C46012B104677
:100DB00003D00498B6FBF0F080B2069BC018B0FBDD
:100DC000F1F34B43C01A4000079B185A288005983E
:100DD0003618AD1C7F1E2346E6E7184608B0F0BC67
:100DE0007047F0B58AB0099100210890002800D121
:100DF00030E1129D002D00D12CE1149C002C00D17B
:100E000028E10998002800D124E1002A00D121E13D
:100E10000F98002800D11DE1139E0396002E00D1EB
:100E200018E100210791217209998A4200D3099A99
:100E3000029510998242164600D30646119D0595EB
:100E4000951BADB2A94200D32946059D0DB131468F
:100E500000E07118904200D33146099A9818401A60
:100E600090FBF2F15143401A85B2B5FBF2F05043CA
:100E7000281A400008990B5A0798E080A6806380E2
:100E8000238006956D1C0496761E184696B1099A25
:100E9000B5FBF2F15143691A4900089A515A81424F
:100EA00001D221800846994201D961800B466D1C10
:100EB000761EEBE7049E03998E42019601D30399B7
:100EC00001910599029DC1B3834236D9C0184308E8
:100ED0000120089F864221D006990A18099EB2FB7C
:100EE000F6F17143511A4900795A521EB2FBF6F5D8
:100EF0007543521B5200BA5A059D012D06D19342EB
:100F0000029D049E08D38B4206D209E09342029DC3
:100F1000049E01D28B4203D2401CDBE7029D0CE011
:100F200001212172E0801421B6FBF1F1711A081839
:100F3000B0FBF6F17143401A07900398B04271D2AA
:100F40000198401C42080021009288B2904200D3D0
:100F50007FE0039131464143B1FBF2F5A9B2401C59
:100F60007043B0FBF2F082B28A4200D8681C079A44
:100F70008918B1FBF6F27243891A069A8918099BFF
:100F8000B1FBF3F25A43891A4900089A545A80B2C5
:100F900005902846294627466D1CAAB2059B9A4211
:100FA00025D2079B9A18B2FBF6F37343D21A069B1D
:100FB000D218099EB2FBF6F37343D21A5200089B73
:100FC0009E5ABBB29E422A4600D80A46A4B2A64206
:100FD000294600D301469E42374600D81F46A64206
:100FE00000D32646084611463446049ED4E7039AA9
:100FF0005204120C5300029DEB18521C89B280B2AD
:10100000884205D91F8001988242274604D305E013
:101010001C800198824201D250002F520399491C32
:10102000009A92E70198099B98B1079CB4FBF6F1EE
:101030007143611A069A8918B1FBF3F25A43891A6F
:101040004900089A515A2980641C0794AD1C401E1F
:10105000EAE7019908460AB0F0BD014600200222E5
:1010600001F054B80948017831B10178012907D15C
:10107000C0784000704906E080784000054902E0F1
:101080000079400002A10818008870477C00002009
:101090003C0050003E6C0008774800210170417010
:1010A00040F201124280017101F0BAB872484078F2
:1010B0007047C04670480221017001F0B1B8C046C7
:1010C0005038414241416C4801710021C180007893
:1010D000022801D101F0A4B87047C046411E8841E2
:1010E00065494870487810B1012002F081BF0220A4
:1010F00002F07EBFB0B54B4C607800286AD02078F3
:10110000002867D0207801281FD1E07840004A49A4
:10111000085A4001A1684018010A7C2902D947F603
:101120000051401AA06040F2E831B0FBF1F0C0B2CB
:1011300042A1085C2F214143FF20B1FBF0F0801D4C
:10114000B0BC02BC8E4602F02FBF20794000364969
:101150000D5AE08840F2E8314143B1FBF5F081B22D
:101160000A46503A312A05D80621414340F2E010A0
:10117000081A14E00A46823A312A04D8B421091A1E
:10118000062048430BE040F204128A1A182A22D89B
:101190001521C9430A31414340F63040081800B2D6
:1011A00040F2F411884201DB40F2F4102F21414358
:1011B0002048081880B240F2E831B0FBF1F0801D01
:1011C00002F0F2FEE088401CE080E088A84201D3F3
:1011D0000020E080B0BD40F21C228A1AFF32182A9B
:1011E00004D82421414342F64010C1E70F4A511868
:1011F0000A46E632222A04D81521C94341430C4845
:10120000CCE70A467832772A04D8400040F24831C9
:10121000401AC4E7772903D8400040F22851A7E7D5
:101220000020BCE77C0000208A6B0008E4FDFFFF83
:10123000FC1C0000CC5B0000386C00088099B1C732
:10124000DAEAF5FDFFFDF5EADAC7B19980674F39B3
:1012500026160B0300030B1626394F670648017943
:101260000122511A01710021C1800078022801D1A8
:1012700000F0D6BF7047C0467C00002010B530B1EA
:1012800004461921FEF753FF0020A083608310BDA0
:10129000F0B585B0044669B30D4600204877814E0D
:1012A000B242114600D33146524E112A02D3524F58
:1012B000BA4204D3AA8AB24201D0521CAA82EA8A54
:1012C000B24204D0561CEE824C4EB24200D90120EC
:1012D0008A0840F2F31193B16B8A4E1CB3421BD2C1
:1012E0005B1C6B826B689B186B605243EB689A18AF
:1012F000EA6011E00020A0806080208075E02B8AE9
:101300004E1CB34208D25B1C2B822B689B182B60AF
:101310005243AB689A18AA602E4618362A8A8A4227
:1013200053D96A8A8A4250D940F20010A88300201B
:10133000688328762868C1097D294DD3696843F6FA
:101340008062914248D3AA8A322A45D840F2F412E8
:10135000B1FBF2F7B0FBF2F3A868E968B1FBF2F178
:101360000491B0FBF2F0019319465943401A01F081
:1013700018FB039002977F430499C81B01F011FBEF
:10138000039A022A28D3022826D3C0030299814255
:1013900022D80299B0FBF1F0D103019AB1FBF2F12E
:1013A0000902B1FBF0F0332816D340F29A118842BB
:1013B00012D8012129776883622818D31921414363
:1013C0008031080A6E21081A05E048B140F2001089
:1013D000A88300206883287618212846FEF7A7FEF8
:1013E000062220463146FEF789FE05B0F0BD642096
:1013F000F1E7C046FFFF0000EF0F0000CE0700003E
:1014000010B5C9B1AF4A904200D310460B4B4343CD
:1014100048081818B0FBF1F14800094B1B1A09489D
:10142000834200D30346094CA14205D85A430649DA
:101430005118B1FBF0F010BD002010BDBA0400003F
:1014400088130000E40C000072060000C3090000CD
:1014500080B521B126310622FEF750FE80BD002165
:1014600081804180018080BD10B13921405C70478E
:1014700000207047B0B598B1044605462035FFF707
:10148000FDFE0020E085A0856085208528832870EA
:101490006084A0842146223108718A4921636063F7
:1014A000B0BDC046FF0F0000F0B58BB0049000291E
:1014B0005FD00D4683498A42104600D30846E96A48
:1014C00009180191E9622E8EB04201D228860646A3
:1014D000294624316F8EB84201D9688607460293A7
:1014E000286A069109780591112A02D377498A4220
:1014F00002D9E98E491CE986A98E491CA98689B2C0
:101500008C084FF6007303947C2C38D9BE1BB3B201
:1015100000260593202B3446334617D3EC8E002C3F
:101520003446334612D14F43019BFB1A6424634374
:10153000059F4F4379085918B1FBF7F11E234B4320
:101540003233B3FBF4F14631CCB2012301270699C3
:1015500000974F700B706E636E86EE625B491131BF
:1015600029864FF600710840014601942143296203
:101570000EE000200499888048800880A0E0524E48
:1015800006400340C0B20190002000901846059B21
:10159000109F112A029C01D200240BE04B498A4281
:1015A00002D911310C4605E08C4200D30C46112CB7
:1015B00000D8112406430698007D05932FB1012819
:1015C00014D1698A39B1012010E002281DD1298A7D
:1015D00019B1022019E0102100E01221695A1A29DC
:1015E00003D32846FFF74AFE002077B102210143CA
:1015F0000698017507AF0123384629462246FFF7B2
:1016000047FE78793979079A0DE001210143069860
:10161000017509AF0023384629462246FFF738FEF8
:1016200078793979099A019B1E43059B58B1069F29
:101630003B7D032B19D1C1B17A80F871B971100CBF
:10164000B880022025E0069F787D039A7D2A16D374
:10165000022814D07E800098F871BB71300CB880DD
:10166000581E83417B75184619E0B81C397849B17A
:10167000294620310622FEF741FD012009E0002124
:10168000F9710AE0068040F20011F980310C4180C6
:101690000020002139757875039A7D2A0AD3012824
:1016A00008D1387D30B1032804D02846FFF7E6FD85
:1016B000002038752635062204982946FEF71EFDBF
:1016C0000BB0F0BDFF0F00000000FFFFEE0F0000A9
:1016D00070470000FCB44448021F136801210B430B
:1016E000136013689B07FCD5036880241C430460C7
:1016F00000230193019B7F2B02D8019B5B1CF8E721
:10170000036890241C43046000230193019B7F2BFA
:1017100002D8019B5B1CF8E703230093DC430568B8
:10172000254005601468314D254015600468304D32
:101730002540056004682F4B1C400460846A0F2517
:10174000AC438462C46A40F20315AC43C4620C0427
:10175000C56AA543C562CC07C56AA543C562046BCB
:101760008C43046300244460234EB51C17682F4348
:1017700017604F04761E2546654113683B4201D130
:10178000002DF7D113683B4200D1FEE71B4B1C68CC
:1017900002252C430526B4431C60036803600368DC
:1017A0000360036803600368124C234003601D2339
:1017B0001B0404681C4304600B0614681C4314607B
:1017C00013689B01FCD50268009B9A430260026883
:1017D0002A4302600C2203681340082BFBD1C80681
:1017E0000021FCBC01F01CBF04100240FFFFF2FE10
:1017F0000C00FF08FFFFC277FEFF00000020024040
:10180000F8B5009316460D4607462A20B749884783
:10181000084C3846A0473046A0472B20B34988479C
:101820002846A0470098A0472C20B049F8BC04BC2B
:1018300096460847991D0008F0B587B05C1A0B461C
:10184000151A0122002D01DD009207E025B16D423D
:101850000021C943009101E000250095002C01DD25
:10186000019207E024B164420021C943019101E0E3
:1018700000240194A5422F4600D8274603940C99D2
:10188000029100221446164691B28F4222DB049444
:1018900006922C46059080B299B2029A1D4600F03D
:1018A0001BF803983218BA4201DC2B4601E001987C
:1018B0002B18254604980119B942059801DD009CB2
:1018C0000019D61B00DC1646CC1B00DC0C46069A21
:1018D000521CD9E707B0F0BD10B5144602460B46BE
:1018E000FFF78EFF204610BC02BC8E4600F054BAB3
:1018F000FEB515460E46511E8AB20293591E8BB292
:1019000001903146FFF77CFF089CB0B202998842F3
:101910000AD2019FB8B2A84204D2204600F03CFA95
:101920007F1CF7E7761CF0E7FEBD0000F0B589B03C
:101930006B482026002208926A4C3146A047642555
:10194000694F2846B8470122654831461646079236
:10195000A0472846B847624840F200113246A047E7
:101960002846B8471120614988477820B847B120F8
:101970005E49884705265E4D30460696A8473C24BA
:101980002046A8472046A847B220584988473046F5
:10199000A8472046A8472046A847B3205349884770
:1019A0003046A8472046A8472046A8473046A847C3
:1019B0002046A8472046A847B4204C498847032022
:1019C0000590A847C024204648498847282003900E
:1019D000A8470820A847042738460197A847C120F0
:1019E000424988472046A847C220404988470D20E1
:1019F0000490A8470898A847C3203C4988478D24ED
:101A00002046A8472A263046A847C4203749884799
:101A10002046A847EE20A847C520344988471A2009
:101A2000A8473620314988477020A847E0202F4931
:101A300088473846A8472220A8470720A8470A20F9
:101A4000A8472E242046A8473020A84725200290EA
:101A5000A8473046A8470398A84726273846A847EE
:101A60002046A8473A200390A8470898A847079817
:101A7000A8470598A84713200590A847E1201B49CF
:101A80008847019E3046A8471620A8470620A84749
:101A90000498A8472D242046A8473846A847232065
:101AA000A84727273846A8473846A8470298A84796
:101AB0002046A8473B20A8470898A8470798A8476A
:101AC0003046A8470598A8470398084988470698CC
:101AD000A8472920054909B0F0BC04BC9646084730
:101AE000000400480F290008F5220008211E000804
:101AF000E91D0008F0B58BB007931646119C0A1932
:101B0000521E93B265084219521E92B20890069175
:101B1000FFF776FE0A956807210900B1491C614369
:101B2000203EF0B20190002512980990109805907F
:101B30002A46089E0394029190B2884241D2182C02
:101B4000049205D0102C3CD1019909011F4A03E0F1
:101B50003021019A51431C4A511808180478002773
:101B6000082F29D00120B8402040099971B128B12F
:101B7000B0B2069989B2079AFFF7AEFE761CB0B2F2
:101B80000899401A0A9988420ED10FE0002805985A
:101B900000D0079800F000F96D1CE8B20A9AB0FB7B
:101BA000F2F15143401A06D07F1CD9E70698401C39
:101BB0000690089E00E00025049A521C039C02999E
:101BC000BAE70BB0F0BDC046BA590008CA530008C6
:101BD000F0B587B006931546059107460D98049019
:101BE000400803900E9E0C9C2A7862B100940498E1
:101BF00001900296B8B20599069BFFF77BFF039808
:101C00003F186D1CF0E707B0F0BD00005348C179E4
:101C1000012902D1002002F071BEC179022902D14E
:101C2000012002F06BBE807910B1022002F066BE86
:101C300002F066B8F0B585B0484EF079012801D1C0
:101C4000002007E0F079022801D1012002E0B079FC
:101C500030B1022005B0F0BC02BC8E4603F0DAB809
:101C600000240094A022802320462146FFF740FE56
:101C7000307910210094049101910294022801D03E
:101C800039A200E036A20220394F21463B46FFF739
:101C90009FFF0094049D019502945020354A2146EF
:101CA0003B46FFF795FF344800909F272046294682
:101CB0003A462B46FFF7C0FD2F4800906021204692
:101CC0003A460B46FFF7B8FD307902281BD02A4868
:101CD00000907C205F23049D29460246FFF7ACFD5F
:101CE00000940195029480271221244A3846204B03
:101CF000FFF76EFF009401950294322120A238462E
:101D00001B4BFFF765FF0094049F0197029402208C
:101D1000602103911C4A164B1C4DA8470094019763
:101D200002943A201AA20399114B184DA847009427
:101D300001970294802017A203990D4B134CA047E2
:101D40003079022801D0792000E09D2000F082FB4C
:101D500005B0F0BC01BC864601F0D2BFE400002013
:101D60004E4F49534500000053434F50450000007B
:101D7000FFFF0000536C0008FF7F0000646C000848
:101D8000464F555400000000776C0008D11B000836
:101D900046494E0044494E00F8B50546344C802172
:101DA0000022204600F0B3FD324E0227304639466D
:101DB00002F084F90028F9D0290A304602F05AF9D5
:101DC00002273046394602F079F90028F9D0E9B205
:101DD000304602F04FF9802101222046F8BC08BCB1
:101DE0009E4600F094BDC046F8B50546204C8021C3
:101DF0000022204600F08BFD1E4E02273046394659
:101E000002F05CF90028F9D03046294602F032F998
:101E1000802101222046F8BC08BC9E4600F077BD18
:101E2000F8B50546124C402100262046324600F007
:101E30006EFD80212046324600F069FD0D4E0227DE
:101E40003046394602F03AF90028F9D030462946A2
:101E500002F010F94021012520462A4600F057FDE6
:101E6000802120462A46F8BC08BC9E4600F04FBDA3
:101E70000004004800300140B0B5374D6888C00804
:101E80007C2802D86888401C6880314C2088401C1F
:101E90002080A98880B2884204D300202080E06896
:101EA00000B1804729780E48022907D16188491C72
:101EB00061806188814201D90021618069780229AD
:101EC00007D1A188491CA180A188814201D90020A5
:101ED000A08004480121B0BC04BC964602F0A0BC1E
:101EE0000F27000000440140F8B5184C022120469D
:101EF00002F099FC80B1164EF7880025204629464D
:101F000002F099F94FB1708170893189884207D9FF
:101F100070893189401A08E0F8BD308101250DE053
:101F200030890C4941407089401828B1D149B1FB32
:101F3000F0F030610848458035817581F5800221D7
:101F40002046F8BC04BC964602F06ABC000400407F
:101F5000D0000020FFFF00000000002030B100236F
:101F60008380428001808360C36003827047F8B53C
:101F70000023D0B3CAB30488BCB34588ADB3068A86
:101F80006EB10D27C757B94201DA41730F4600976A
:101F90000E27C757B94209DD07460E3704E04173E3
:101FA000017307460E37009139700F46C173761CD6
:101FB0000682866836198660AE4216D35171177153
:101FC0000099D17083881380017B9170591E1F4640
:101FD0008F41977100210182721B82605A1C93B25B
:101FE000A34200D30A46828001231846F8BD0000B0
:101FF0008A48016808220A43026001680907FCD484
:10200000016804220A43026001684907FCD4704752
:1020100010B50C4A012806D0022810D10320000573
:102020000C32094B02E00F200005054B14681C40E0
:10203000146009050918014010680843106010BDBC
:10204000FFFF0FFF2C240140FFFFCFFF411E8841FF
:10205000C00272490A6840F600039A4310180860EB
:102060007047C0466D48016840F200120A430260A2
:102070007047C04669480168C90703D10168012259
:102080000A4302607047C04610B5012304461C4055
:10209000624A59B11CB1190513680B4313608007DC
:1020A00010D5116848F2000008430AE01CB1190578
:1020B00013688B431360800704D5106848F2000151
:1020C0008843106010BDC046012803D0022809D102
:1020D000064800E00448514A136803401360106842
:1020E000084310607047C046FFFFF1FFFF8FFFFFFE
:1020F00005490A6882430A607047C0460249096878
:102100000840411E8841704700240140B0B51E4B75
:1021100005280AD8052444430846A0401F25A540A9
:102120009C6AAC4304439C621AE00B280BD805243C
:1021300044431E3C0846A0401F25A5405C6AAC43B2
:1021400004435C620CE010280AD2052444433C3C62
:102150000846A0401F25A5401C6AAC4304431C62EE
:10216000092903D8032048431B1D04E0122909D87C
:10217000032048431E388240072181401868884365
:1021800010431860B0BDC0460C24014001480068EF
:1021900080B270474C240140C107204904D001227D
:1021A00092050B6813430B60800704D5012040059E
:1021B0000A6802430A607047B0B540F20014054651
:1021C000254040F20043104A71B115B11168214316
:1021D0001160184202D0116819431160800712D5AE
:1021E0005168022008430DE015B11168A143116048
:1021F000184202D0116899431160800703D55068D6
:10220000022188435060B0BD042401400120C00574
:1022100002490A6802430A607047C0460824014028
:10222000B0B5022001F0E4FE104D0020E880A86067
:10223000287820B13B2001F0C3FE1D200BE0A878D8
:1022400040000B49085A0B49B1FBF0F084B220461C
:1022500001F0B6FE600801F0A7FE687828B1012001
:10226000B0BC02BC8E4601F0C3BEB0BD7C000020F5
:102270003E6C000840420F0000218162C162C160D3
:102280001822282A02D08152921CFAE770470000D7
:10229000F8B5054600200090681C82B212265E2325
:1022A00028463146FFF724FB2C46132D06D328463B
:1022B0001338B0FBF6F17143401A10D0042D0DD342
:1022C000032005400AD12426924DB1B25C2905D8DD
:1022D00020462A46FFF700FB1336F6E7F8BD142721
:1022E0008C4EB9B25C29E9D820463246FFF7F4FAA1
:1022F0003F1DF6E710B5FEF707F801460A484068AB
:10230000FDF779FFFEF720F8084948600020886053
:1023100001220A60064B0C681C40012CFBD00B68A4
:1023200093430B60886010BD6400002010E000E063
:10233000010001001421414331480A58012313438D
:102340000B507047142141432D480A582023134352
:102350000B50704710B5142242432E49521853684F
:102360000124A3435360002353609360D36013613F
:1023700080000F22824008681043086010BDC046EC
:10238000B0B5142242431E4813580124A3431350EE
:1023900013180C689C608C68DC600C8A5C601358B5
:1023A00043F60074A3434C681C43CB6823434C6939
:1023B0001C4314500B7E5B1E5C425C41A30114580D
:1023C0004025AC43E31813504B7E5B1E5C425C41DE
:1023D000E30114588025AC43E3181350897E4B1E4B
:1023E0009941090113581024A34359181150B0BD45
:1023F00014224243024813580B4313507047C046FF
:102400000800024080008140024802680A430260DE
:102410007047C0460400024010B50022082915D8B4
:1024200001238B4040F2141423420FD082000C464B
:102430009440074A136823405C1EA341142444437C
:10244000A01882680A40501E82411A40104610BDF2
:1024500000000240F0B585B0044600200090601CEA
:1024600086B2022012215E2304933246FFF740FA1F
:1024700026480090012511210291284603963246F4
:102480000B46234FB847214800902846049932460E
:102490000E460B461E4FB8471C4800902846029F28
:1024A00039462A4633461A4DA847184800900398E3
:1024B000394602463346A8471320164D86B2A64237
:1024C0000DD204901427B9B25C2905D830462A46AB
:1024D000FFF702FA3F1DF6E704981230EEE72420DA
:1024E0000421039186B25C2E0DD80490039FB8B2EC
:1024F000A04205D231462A46FFF7EEF93F1DF6E726
:1025000004981330EEE705B0F0BDC046FF7F000031
:10251000391800085854000070B504460068616816
:1025200000F0FBF9411E88411A4D2978014301262C
:10253000C80712D003CC083C00F0EFF9012822D1E3
:10254000287800B300202870A068E16800F0E5F961
:1025500070B9687860B1022014E0002068702E70B5
:10256000A068E16800F0D9F901280CD16E700AE08A
:10257000A068E16800F0D1F9012800D16E78F00779
:1025800001D101202074102070BC02BC8E4600F0E6
:1025900041B9C0466C00002010B503240474029CAD
:1025A0001EC010BDF0B587B00C460546374A7E4EBA
:1025B000384F00200490501C03903948143001908B
:1025C000002C60D02888B18949007852B189491C13
:1025D000B181B189914201D90499B181F189039BFB
:1025E000994202D2F189491CF181716B491C7163D6
:1025F000317829B9716B284B994201D3012131708F
:10260000B16B0818B063B18A491CB18289B25029F4
:1026100036D35021B0FBF1F00109328A1F4B995497
:10262000318A491C3182318A194A914201D904996F
:102630003182511C728A8A4202D2718A491C71828B
:10264000F179022987B213D1974881883846FEF77D
:10265000D7FE02900920C006402100F05EF9411E1D
:102660008841009005A801993A46029BFEF71CFF9D
:10267000384600F04DF80498B082B063034A054F25
:10268000AD1C641E9CE707B0F0BDC0461F030000F0
:10269000E1040000FE08002010270000810F002048
:1026A0005401002070B5404D287A98B900F0EEF83A
:1026B000687200F0E5F8688400F0D2F8A884EFF3BF
:1026C000108672B6FEF7F6FC01242046FEF706FDE2
:1026D0002C7206B170BD62B670BDC04670B5324D89
:1026E000287A012811D1EFF3108672B60024204613
:1026F000FEF7F4FC688C01F063FCA88C01F054FC3C
:10270000687A01F075FC2C7206B170BD62B670BDBE
:10271000F8B5254CE16B11B10102626C01E00102D8
:102720000A461E23E35E891AC91189180A0A121A79
:1027300012B2D21A92089B181EB2082296FBF2F22D
:1027400017B27F25EA43974200DC1746174A9642A4
:1027500000DC3D46E68A164FBD55E58A6D1CE582D4
:102760006164E383E18A1346E233994201D900218F
:10277000E182E332218B914202D2218B491C2183D9
:10278000E16B491CE163FEF7C1F8FEF7A5F8608331
:10279000FEF7A6F8A083FEF7A7F818B10120607035
:1027A000E06B2064F8BDC046E4000020FF03000099
:1027B000E402002010B5164B1C6884431C605C6862
:1027C00084435C609C6884439C60DC688443DC6078
:1027D00019B1012905D1191D00E019460C680443FF
:1027E0000C60022A0DD0C143012A06D07AB99A683A
:1027F00002439A60DA680A4008E09A680A409A60E0
:1028000002E0996801439960DA680243DA6010BD1A
:1028100000040140044908607047C0460249096845
:102820000840411E8841704714040140DA4800788E
:102830007047C0460548408840F2F411884201D9EB
:10284000002070471B4800697047C0460000002008
:10285000184840887047C046CF4880787047C046C7
:10286000094840887047C0460748008818B10349A6
:10287000B1FBF0F000E0002080B2704740420F0052
:10288000014800887047C0460600002003480078D1
:1028900008B90220704701207047C046800F002011
:1028A000BD4840787047C0460A0000200148808833
:1028B0007047C046D0000020F8B50346006A009378
:1028C0005C6A00252E46202D0CD01746F740FF07E6
:1028D00005D00F46AF400F23AB40984338432D1D22
:1028E000761CF0E708250026202E0CD01346EB407E
:1028F000DB0705D00B46B3400F27B740BC431C4352
:10290000361D6D1CF0E7009908624C62F8BD0AB1F3
:10291000182200E028228150704700690840411EBB
:1029200088417047FEB50293019202680090C56825
:1029300000263746202E10D0029BFB40DB0709D033
:10294000019BB3400324B440A5431D430B46B34051
:10295000A2431A43B61C7F1CECE700980260C560D6
:10296000FEBDF8B5012902D14168194301E0416873
:102970009943416000908168002403202646202C62
:102980000CD01F46F740FF0705D01746A740054665
:10299000A540A9433943A41C761CF0E70098816048
:1029A000F8BD012189070A4689088242FBD8002127
:1029B0004AB153184908984200D38918C31A00D362
:1029C00018469208F4E70846704710B50024848141
:1029D0004481437206C0FF21017010BD10B504464A
:1029E000FF20207203CC083CFFF797FF617A8842F2
:1029F00009D1A07A772805D8401CA072022801D1FD
:102A0000607B20B110BD00206073A07210BD01205A
:102A100060731020207210BD70B55D4AD379012417
:102A2000012B234607D0D3795D425D419379DBB218
:102A30005E1EB3412B4048F20005A84244D044F248
:102A40000005A84217D042F20004A04248D1102944
:102A500000D08DE0002B00D178E0EFF3108472B647
:102A6000FEF724FB41424841FEF738FB002C00D022
:102A70007EE062B670BD102900D11C46002C77D1D3
:102A8000FFF7EEFE0646FFF7FBFE0546FFF7F8FEF2
:102A900040F2E834FA2800D34408204601F090FAC6
:102AA0003046FDF731FC06462846FDF72DFC014671
:102AB0003046FDF7DDFB05462046FDF725FC0146C7
:102AC0002846FDF798FB56E0102951D1B3B1EFF33A
:102AD000108472B6FEF7C2FB002C4BD162B649E0FF
:102AE00040F20023984243D1102941D12A488178ED
:102AF000012939D0022939D1012138E0FFF7B0FE90
:102B00000446FFF7BDFE844233D2FFF7B9FEFDF75E
:102B1000FBFB0446FFF7A4FEFDF7F6FB05461D4947
:102B20002046FDF768FB2946FDF70CFB0446FFF73E
:102B3000A7FEFDF7E9FB01462046FDF7D7FBC8B924
:102B4000FFF79EFEFDF7E0FB044613E0FFF79EFE55
:102B5000022817D1FFF794FE01F032FAFFF780FE4A
:102B600001F022FA01200EE0002191700221817013
:102B700070BD00242046FDF7CEFB70BC02BC8E4623
:102B800001F012BA022070BC02BC8E4601F030BACD
:102B9000E40000200AD7233D0A0000204260816043
:102BA000437000210170704710B5044640784242DE
:102BB00042416168A068FFF7AAFE0220207010BDA4
:102BC00010B504464278501E82416168A068FFF744
:102BD0009EFE0120207010BD8EB001F009FB00F0B8
:102BE000BDFA00F079FB00F073FA00F0B7FB00F0DB
:102BF0008FFC00F0F9FB00F057FC09AFB649002646
:102C0000384644F2000233460896FFF7C7FFB34C3C
:102C100025462C3528460ECF0EC009AF3846AE49A2
:102C200048F200023346FFF7B9FF264638363046F1
:102C30000ECF0EC02846FFF7C3FF07963046FFF7BA
:102C4000B3FF09AFA649A74D384642F20002089BE0
:102C5000A847A54E30462ECF2EC009AF3846FD49B5
:102C600044F20002089B9F4DA84730461030069062
:102C70002ECF2EC009AF3846F64948F20002089B15
:102C8000984DA8473046203005902ECF2EC009AF72
:102C90003846F04940F20022089B924DA847304642
:102CA000303004902ECF2EC00820009009AF1022A3
:102CB0003846E8490B46FFF76FFC204618301422CF
:102CC0003946FDF71BFA1120FEF7C7F9C820FDF7BA
:102CD000C1FD0546FEF7E0F940F2E83001F070F979
:102CE00040F2F41001F060F90127384601F080F954
:102CF00040F2E830FFF7FEFAFEF718FE40F2E83047
:102D0000FFF7F8FAFEF712FEFDF70EFE0320039020
:102D1000FEF7A3F901952846FDF744FDFDF738FDC0
:102D200072480297394600F0FBF8FEF783FF7048BF
:102D3000704DA8477048A8477048A847FFF788FD1E
:102D40000546FFF7B3FD0746207878B172B60898BC
:102D5000207062B6607828B1208901F031F960896D
:102D600001F022F9FDF7BAFBFF203076A07898B188
:102D700072B60898A07062B6FDF7A8FB08B901F01A
:102D800093FDFFF783FD012801D0029800E00220A7
:102D900001F02EF9FF203072E078A0B172B60898E9
:102DA000E070207918B1A089FEF78AF905E0E08982
:102DB00001F006F9208A01F0F7F862B601F05AFD39
:102DC0002820FF2131540A2D0BD330464C4DA84703
:102DD0000698A8470598A8470498A847002001F03E
:102DE000DFF8502F19D30125284601F0D5F82846E1
:102DF00001F02EF9FFF730FD022802D1019800F012
:102E00001BFCFEF703FF002001F028F902252846ED
:102E100001F0C2F8284601F01BF9317AFF2904D0ED
:102E2000B088FFF7F9FDFF203072317EFF2904D012
:102E3000B08AFFF7F1FDFF2030762825715DFF296C
:102E400004D0B08CFFF7E8FDFF2070553827F15D06
:102E5000FF2904D0B08EFFF7DFFDFF20F055605D45
:102E6000032816D0FDF732FB10B9FDF733FB18B37A
:102E7000FFF7DCFC615D012903D1401E04D20898F4
:102E800002E0032800D2401CC0B201F079F8039898
:102E90006055FFF7FBFCE15D012806D1012900D157
:102EA0004CE70798FFF78CFE48E7022900D145E779
:102EB0000798FFF779FE41E7FFF7F2FC615D012912
:102EC00003D1401E04D2002002E0082800D2401C9A
:102ED000C0B201F0ABF8DAE700080048200000209B
:102EE00000040048CB290008400F00203D2F0008B7
:102EF0000044014013460008002C0140000400403B
:102F0000DD290008044B198058609A60034A0223A7
:102F1000137000F0A5B8C046700000201800002013
:102F2000044AD06000201080012900D80121024805
:102F300081807047D00000200000002070B5FEF7AF
:102F4000D9F8E24C204642F20001FFF7E6FC424D80
:102F500028B14249002048824049487113E0681C6A
:102F60003E4E718A814202D2708A401C7082708A01
:102F7000A84208D9FDF7AAFA28B9FDF7ABFA10B9AB
:102F80007079002862D0204644F20001FFF7C5FCAA
:102F900028B13249002088823049887124E02F4EC0
:102FA000B08AA8B9FFF76CFC3081FFF759FC70813B
:102FB000FDF78CFA012801D1002108E0FDF786FA1F
:102FC00008B1012103E0FDF785FA414241417170EA
:102FD000681CB18A814202D2B08A401CB082B08A99
:102FE000A84201D9B07940B3204648F20001FFF76A
:102FF00094FC28B119490020C8821849C87170BDD5
:10300000164CE08A58B9FFF73BFCE081FFF728FC3B
:103010002082FEF727F8A081FDF75CFA2071681C7A
:10302000E18A814202D2E08A401CE082E08AA84222
:1030300002D9FDF74BFA18B170BD01203070ABE733
:10304000E0790028F8D10120E070D6E70120B070C7
:1030500082E7C04600040048CF070000200000209F
:1030600070B588B00D460646012000242146FFF7C2
:103070002BF840F2005000F023FE0920214600F01A
:10308000A3FA2046FFF766F901A940F20010088371
:103090008C760E4A0192039640F20042049202900E
:1030A00042F20000069005952046FFF769F9204698
:1030B000FFF748F92046FFF73DF906212046FFF7C4
:1030C00097F9FEF7CFFF08B070BDC0464C24014011
:1030D000F8B5F34C204600F0F3FDF834204600F03C
:1030E000EFFD0924204600F087FDE00603240025BB
:1030F000082321462A46FFF715FC0226164F3046C4
:103100002946B84740F200102946B84740F200402F
:103110002946B8472846FEF799FF01273846394621
:10312000FEF776FF284621463246FEF7EFFFFFF70F
:103130006DF8072041043846FEF7C6FF3846394689
:10314000FEF7A2FFFEF796FF3846FFF7D3F8F8BC6C
:1031500001BC8646FEF74CBFB9210008F0B585B02A
:10316000564C601C564DA8472046A847EE342046D2
:10317000A847544D0124544E284644F200012246EB
:10318000B047284648F200012246B0474F4D202163
:10319000049128462246B047402103912846224602
:1031A000B0478021029128462246B047284640F287
:1031B00000112246B0470026454F424D2846214681
:1031C000324644F20003B84728462146324648F2C8
:1031D0000003B8473D4D28463146224642F20003DF
:1031E000B84728463146224644F20003B8472846ED
:1031F0003146224648F20003B84728463146224667
:1032000040F20023B8470823284631462246B847F3
:10321000284621463246049BB84728462146324676
:10322000039BB847284621463246029BB8472846AA
:103230002146324640F20013B84710230193284636
:1032400031462246B8470327224D1E4831463A46AA
:1032500044F20003A8471B4831463A4648F20003AF
:10326000A8471A4831463A46049B1A4DA8471748C2
:1032700031463A46039B174DA847144831463A4613
:10328000029BA847114831463A4640F20013A8472E
:103290000720394600F098F90421204600F074FF19
:1032A0000222019C20463146FFF784FA204605B0F1
:1032B000F0BC02BC8E46FFF7ADBAC0461205000056
:1032C000C13C0008000800480F290008000400481D
:1032D0002529000863290008F0B587B0B64C2046C0
:1032E00000F0EEFCFB34204600F0EAFC0920C606A4
:1032F0000024A025304621462A46FFF7DDFA0221A8
:10330000304622462B46FFF70DFB03273046214669
:103310003A462B46FFF725FB0F4D284600F0B6FE38
:103320006E46304600F024FF059740F20070029090
:103330004CF2000001900694049440F204100090B6
:10334000FC3003902846314600F0CCFE284600F0C1
:103350008BFE07B0F0BDC04600300140F0B587B02D
:103360001F4800F0ADFC1F4C204601F01DF903AED4
:10337000304601F075FA002535733120059047205D
:10338000039004952046314601F04CF96F463846CB
:1033900001F003F901263E80B81C0A21FCF7C7FEA4
:1033A000204629463A4600F083FF19222046294646
:1033B00001F0BFF870222046294601F08DF8204622
:1033C00029462A4601F0BCF8204600F02DFF204691
:1033D000314601F03AFA204601F016F907B0F0BD87
:1033E0000B060000002C0140F0B587B0724C20465F
:1033F00000F066FCFF34204600F062FC0920C506A0
:10340000022100240426284622463346FFF78AFA82
:103410000322284621463346FFF7A3FA28462146D1
:103420003246FFF749FA1F4D284601F0BDF86E46B7
:10343000304601F015FA347334480290472000906A
:1034400001942846314601F0EDF804AF384601F00A
:10345000A4F801263E80B81C0A21FCF768FE284625
:1034600021463A4600F024FF2846214640F2F41255
:1034700001F05FF860222846214601F02DF8284629
:103480002146224601F05CF8284600F0CDFE284691
:10349000314601F0DAF9284601F0B6F807B0F0BD80
:1034A00011050000004001407FB5164800F008FCFF
:1034B000154C204601F078F80125204629462A4679
:1034C00001F0BBF96E46304601F0CAF900203073B6
:1034D0000E4902914721009101902046314601F0AA
:1034E000A1F82046294601F09BF91520022100F0A1
:1034F0006BF82046294601F08FF9204601F084F848
:103500007FBDC0461106000000440140E7030000F3
:10351000F0B589B0284800F0D3FB284800F0D0FB74
:103520000920C60602210291402430460A4623465D
:10353000FFF7F8F900250322019230462946234679
:10354000FFF70FFA0127304639462246FFF7B4F954
:103550001020394600F038F8194E304601F024F8B2
:1035600003AC204601F07CF91648059047200390F3
:1035700004953046214601F055F807AC204600F08E
:1035800090FE0198E080A58067802580304629461E
:10359000224601F0A3F8304600F046FE3046029C79
:1035A000214601F03DF93046214601F035F930461B
:1035B00001F02AF809B0F0BD110500000107000074
:1035C00000040040FFFF0000B0B542B2002A05D45D
:1035D000032314469C43104BE31803E00C231340D1
:1035E0000C4C1B199407E40E8907090EA140FF2516
:1035F000A5401C68AC430C431C60002A08D4C108D9
:103600001C220A401F2101400120884003495050DC
:10361000B0BDC04614ED00E000E400E000E100E0D1
:10362000034A0A40024303480260BFF34F8F7047CA
:1036300080FFFF1F08ED00E0F0B597B0DF4CE179A7
:10364000012906D0E179022903D0A179E2799AB95A
:1036500091B108B1DA498880A07840B1A06EE66BDC
:10366000864204D3311AD74A2832914215D9012013
:1036700001F0A8FC17B0F0BD08B1D1498880D04C4A
:103680006178CE48007914AA002616811596149602
:10369000022800D18DE079258CE001210E91C84FE0
:1036A0000F96B04277D2C84AB0FBF2F15143401AAC
:1036B000C6490D5668B2C01129464140081AC0B229
:1036C000E18C814200D2E084F988814214D27E29C3
:1036D00012D8402801D8402000E07F20F8807920CF
:1036E000FEF7B8FE38784000B9490A5A7821B9483F
:1036F000FEF734FC0020A07214AAB6482946FEF753
:1037000036FC002843D0022014AC20562788B24D46
:10371000A847109003202056A84713900420205655
:10372000A847129005202056A8471190BD1CAEB2A4
:103730003046FEF7ADFDA079F14C70B1A07A60B1D2
:10374000208D791C89B2814207D1618D40F2E072EF
:1037500000923246109BFEF76FF840F2E070009046
:10376000304613993246129BFEF766F81198608531
:1037700025850E98A072F24DA888801C80B2FEF7B5
:1037800087FDA8880F9EDF4F08B90020A072A06EA9
:10379000401CA06685E7E08CE8494143B888B1FB4E
:1037A000F0F0E14A0240E1498A4200D80146A18591
:1037B00060E79D25022801D0782000E09C200B9036
:1037C0004800D14A105ACE4B1A78F2B113960C9594
:1037D000EFF3108672B605291FD2C94DEF896A79B9
:1037E000298CAB892D79022D2DD114AD05950B9D1A
:1037F0000495C64D0395029201910090C64840F28F
:1038000020313A46FDF7EDFA2CE00020D866D88545
:1038100018862846FEF71EFE2CE7B94A578A138AF7
:10382000118C527914AD05950B9D0495B74D0395F8
:10383000029201910090B648B6493A46FDF744F924
:103840001190FA2010E014AD05950B9D0495AF4D35
:103850000395029201910090AF4840F220313A4620
:10386000FDF717FA1190AD480D9006B962B611999F
:1038700009B9084600E0149880B2129014AA109773
:1038800009B9084600E0508881B212980E91091AD1
:10389000A3484843A388B0FBF3F0994CA085A14C02
:1038A00020464843B0FBF3F79F483E4606409F4DF5
:1038B000AE4200D83D46924EF585129D0E9E75197A
:1038C0006D080646303E31422E4607D02646503619
:1038D0005E43974FF619924FB6FBF7F60996884E5E
:1038E00036797600934FBE5B73431B19924CB3FB42
:1038F000F4F392880A92022A08930ED3119E022EA4
:10390000109F08D3721E0D9B53430A9A521EB3FB9D
:10391000F2F30D93089B7A4C02E0794C109F119EB4
:1039200003400793032E5BD308300840182857D371
:103930004803800C02D0C80880B200E004200021B7
:10394000854201D80E4601E02A1A96B2401987B284
:103950006E480F9106910A460B46119D8D4214D078
:103960000588AE420DD2002443B1AF4207D81304FC
:103970000B4600D00F9B521C0F9306912346604CC0
:1039800000E00123801C491CE7E790B2002113915D
:10399000022823D30F9B99B2069DAAB28A42109F98
:1039A000119E1DD9401E0D9A4243E81A80B241086B
:1039B0005118B1FBF0F0139012E0C046E400002073
:1039C0000A000020BA040000E2040000E402002023
:1039D0008E6B000854010020A54F0008109F119E17
:1039E0001398E06610200F900090484813903146DD
:1039F000129A0E9BFDF742F820860C98FEF72AFDDE
:103A0000079810B1089880B20F90099880B20D9075
:103A1000701E0C900B98401E0E9000200122344620
:103A2000014612900992BCB3022E05D30C9B129D45
:103A3000B5FBF3F39D1C00E00225139B1B880D9E34
:103A40009B1B23265E430F9B96FBF3F32527252B19
:103A50001E4600DB3E46FF43BB4201DB383600E03A
:103A60001226109FD2070AD180B2AAB2824206D390
:103A700040F2E073009389B2B3B2FDF7DDFE0E9819
:103A8000129909181291641E1398801C1390002239
:103A900031462846119EC6E7194C607918B10020BE
:103AA000E0702084E6E50A988742F8D90A98002851
:103AB000F5D00A9840000E9940180B99884202D31D
:103AC000B0FBF1F000E00120218CE27832B1002956
:103AD000E5D082B29142E2D9081AE2E70A9ABA1A0C
:103AE00093B28B4207D9531A9BB284B29C42044CC6
:103AF00001D20818D5E70998E0702284BAE5C046DB
:103B0000E40000200A000020266C0008C607002000
:103B1000810F0020E2040000FE080020204E00007B
:103B2000BA04000074090000F0FF00000F27000035
:103B30005D020000E46B0008E8120000A04B0000EA
:103B400054010020FFB501905C1E0998451CAEB2DF
:103B50009E4200D325460094ADB2AE18B6FBF1F7F5
:103B60004F43851CACB29C4200D3009DF31BACB20A
:103B7000A418B4FBF1F54D43651B002601280096FF
:103B800000D9861E019FFB5C7D5DB4B2A418B4FB16
:103B9000F1F64E43A41B3E5D471E00D2009FBC18A9
:103BA000B4FBF1F74F43E41B019F3C5D8018B0FB71
:103BB000F1F24A43801A385C02A90D71CB7088700B
:103BC0004C700E700120C1B2042910D801460A06BB
:103BD0000BD0CAB202ADAB5C541E2D5DAB4204D219
:103BE00002AE3355B554491EF1E7401CEBE702A87D
:103BF0008078000104B0F0BD2F490A684CF2000340
:103C00009A430A60CA6A2D4B1340CB62092851D8E7
:103C1000820001A39A18974600F012B800F027B866
:103C200000F01BB800F01CB800F00FB800F029B885
:103C300000F032B800F017B800F032B800F009B860
:103C400001200004CA6A824315E0086844F20002B9
:103C500029E008684CF2000216E00868086024E0D9
:103C60000868086012E0086848F200020CE00120D1
:103C70000004CA6A0243CA62C86A40F20012904352
:103C800017E0086844F2000202430A600120C007FE
:103C9000CA6A0243CA6208E0086848F2000202E009
:103CA00008684CF2000202430A60CA6A40F200103F
:103CB0001043C8627047C04604100240FFFEFE7FFA
:103CC0001F21014001228A4080090C4943581343B7
:103CD000435070471F21014001228A408009074953
:103CE00043589343435070471F21014001228A40AB
:103CF0008009024943581343435070470010024063
:103D0000F0B58BB0FEF796FD0546FEF7ADFD044617
:103D1000844905B9CD6E087800B90546069509783D
:103D200040F2E070804F59B18049897802290FD163
:103D3000002110220090019202912C207D4A0EE079
:103D4000002110200097019002912C207A4A06E071
:103D5000002110200097019002912C20744A0B46FC
:103D6000FDF736FF71484078002610210096079134
:103D7000019102960525684370490A186420059050
:103D800031463B46FDF724FF664908796C4F02280F
:103D90004AD0FEF77BFD012809D1009607980190D3
:103DA000029680202221694A40F2E07308E00096E2
:103DB00007980190029680202221634A4FF6000363
:103DC000FDF706FFBC42049506D940F2E830B4FB8B
:103DD000F0F208A85FA102E008A85D49224601F0C0
:103DE00023F9009680244227A022522320463946F8
:103DF000FDF77EFD0096079D0195029608AA2046D4
:103E00003946494BFDF7E4FE464F38790096019557
:103E10000296049941435148421850212046494B8B
:103E2000FDF7D6FE3946464FCA8D7D1CAA4204D204
:103E300008A84C4901F0F8F810E090B240F2E831DF
:103E4000B0FBF1F428466043101A80B20A21B0FB9F
:103E5000F1F308A84249224601F0E6F80096022450
:103E600070273822802320463946FDF741FD009611
:103E700007980190029608AA2046394640F2E0735E
:103E8000FDF7A6FE069BD8087D280ED340F2E83049
:103E9000B3FBF0F25543581B80B20599B0FBF1F328
:103EA00008A831A101F0C0F804E008A828491A4682
:103EB00001F0BAF81C4F00963A2470256E22802338
:103EC00020462946FDF714FD0096079801900296BA
:103ED00008AA204629461B4BFDF77AFE30201149DF
:103EE000085C30B131200A5C08A8224901F09CF836
:103EF00003E008A820A101F097F800967024A02202
:103F00008025284621462B46FDF7F2FC00960798AF
:103F10000190029608AA284621463B46FDF758FE26
:103F20000BB0F0BDE4000020E0FF00000A0000201C
:103F3000566C0008486C00085F6C0008F96B0008BC
:103F4000E7030000FF7F00005B6C0008446C000882
:103F50007B6C000825336C754B000000EA6B000891
:103F60006E6C0008686C0008256C752E256C754B0E
:103F7000000000004D6C00082D2D2D2525000000AF
:103F8000032800D3032030490A78824203D02F4A05
:103F900000239370087070472F4908707047C0461F
:103FA000304948807047C0460246104801888A421E
:103FB00000D30A4642801B48002100F0BABAC0462E
:103FC00010B5012800D80120084C2080401E81B285
:103FD000144800F02EF920886188814204D910BC71
:103FE00002BC8E46FFF7E0BF10BDC04606000020B1
:103FF000B0B502280FD0012813D10A4D0021284660
:1040000000F0D0FA01242846214600F007FB28469C
:1040100000F0FFFA03E0034800F0F6FA002402483B
:104020000470B0BD00400140800F0020082800D37C
:10403000082005494A78824204D0044A00231384A8
:104040004870D3707047C0460A000020E40000208A
:10405000014948707047C04600000020014988802F
:104060007047C046D0000020016840220A43026029
:10407000704700003C4A904201D1D16070474268CD
:10408000D20401D4C16070470173704710B536493E
:10409000884204D0124988420CD1074C01E040F21A
:1040A0000C342046FFF720FE204610BC02BC8E4692
:1040B000FFF710BE10BDC0460E0400000246806827
:1040C000084201D0012070470020054B9A4206D1DA
:1040D00029B9906841F600010140484248417047C3
:1040E0000038004070B50368046842681E4DA8425D
:1040F0001BD18A6840F600041546254340F6007639
:10410000B5422ED143F240052B402240D21818C9A7
:104110001343234308390D460C3534CD89691A43BE
:1041200022432A430A43026014E043F640031C4042
:104130000B6823434C681C43CB6823430C691C4326
:104140004B6923438C691C430460084B1A408968FF
:1041500011434160C16940F600029143C1610120F1
:1041600070BD002070BDC04600300140FFF000006F
:10417000002140F20072016041608260C160016113
:104180004161816170470000B0B58B08032B1ED8D8
:104190008907090F88400F228A40D2430C499C00AE
:1041A00001A52C19A746C04600F00BB800F004B8D2
:1041B00000F004B800F004B8091D02E0083100E086
:1041C0000C310B6813400B600A6802430A60B0BDF3
:1041D00008000140001F41424141880003490A682C
:1041E00004239A43101808607047C04610E000E0AE
:1041F00010B50420C043FFF7EDFF07480068FCF747
:1042000083F80649FCF734F8054C2060206805491E
:10421000FBF7F1FF606010BD140000200024F44A99
:104220006400002000007A44016880220A43026092
:104230007047C1627047032904D88904090C081823
:10424000406B70470020704710B5032928D88B00B9
:1042500001A4E3189F46C04600F006B800F016B867
:1042600000F007B800F00AB881690C239943816116
:1042700012E0C1690C239943C16105E0C16940F6B0
:1042800000439943C16112021C3006E0816940F687
:1042900000439943816112021830016811430160A3
:1042A00010BD0021C18081800122428001807047C1
:1042B00010B5032900D9FBE08B0001A4E3189F4649
:1042C00000F006B800F0B3B800F045B800F087B8C9
:1042D000036A01218B43036283690324A34383613F
:1042E0001388046A1C430462036A0224A343036222
:1042F0009388046A1C430462764BC3180A24E34182
:10430000072B00D9D4E09940E123194200D1CFE036
:10431000016A0423994301625188036A0B430362D3
:10432000016A082399430162D188036A0B4303623F
:10433000416840F2001399434160118943680B437F
:104340004360416840F200239943416051894268CB
:104350000A43426010BD016A40F2001399430162B2
:104360000321C943C3690B40C36111880902036A71
:104370000B430362016A40F2002399430162918872
:104380000902036A0B43036250490B1F984200D095
:104390008EE0036A40F20044A343036253881B0289
:1043A000046A1C430462036A40F60004A3430362E8
:1043B000D3881B02046A1C430462086841F20003AC
:1043C00098430860108900010B6803430B6008687C
:1043D00042F20003984308605089000123E0016A1B
:1043E00041F2000399430162C16940F200339943ED
:1043F000C16111880903036A0B430362016A42F237
:1044000000039943016291880903036A0B43036225
:104410002E490B1F98424BD1086844F20003984381
:104420000860108980010A6802430A6040E0016A5E
:10443000102399430162816940F2003399438161FD
:1044400011880901036A0B430362016A202399431F
:10445000016291880901036A0B4303629C49884207
:1044600027D09849884223D1016A402399430162A9
:1044700051880901036A0B430362016A802399434F
:104480000162D1880901036A0B4303620F48016886
:1044900040F20043994301601189890003680B438E
:1044A0000360016840F6000399430160518907E009
:1044B00010BD0748016840F200439943016011892B
:1044C000890002680A43026010BDC046042C014006
:1044D0000440014000D4FEBF10B5032928D88B004A
:1044E00001A4E3189F46C04600F006B800F016B8D5
:1044F00000F007B800F00AB8816970239943816120
:1045000012E0C16970239943C16105E0C16947F2B6
:1045100000039943C16112021C3006E0816947F231
:104520000003994381611202183001681143016050
:1045300010BD032903D88904090C08184263704789
:1045400010B5032928D88B0001A4E3189F46C04664
:1045500000F006B800F016B800F007B800F00AB88E
:10456000816908239943816112E0C1690823994355
:10457000C16105E0C16940F600039943C1611202BF
:104580001C3006E0816940F6000399438161120204
:10459000183001681143016010BD80B50C21FBF794
:1045A000C6FD80BD4162704710B5154C494988422F
:1045B00017D01449884219D04449884214D041493F
:1045C000884214D04249884209D04349884204D0E5
:1045D0003D49884207D1F63409E0A41D07E0641D77
:1045E00005E0E41D03E010BDFD3400E0F934204691
:1045F000FFF77AFB204610BC02BC8E46FFF76ABB71
:104600000B0300000010004001680122914301608B
:104610007047016801220A430260704742690A43F9
:104620004261704710B50A888262264A904202D0E1
:10463000254B984219D103687024A34303604B882B
:1046400004681C4304608B8804681C4304608B6806
:10465000C36290420BD1136840F20034A34313604D
:10466000CB8814681C4314601BE08B68C362164B34
:1046700098420BD0154B984208D0154B984205D064
:10468000144B984202D0144B98420CD1036840F26C
:104690000034A3430360CB8804681C430460904249
:1046A00006D1097B0163416901220A43426110BDC1
:1046B000074A9042F5D0084A9042F2D0054A90420B
:1046C000EFD0F0E7002C0140000400400020004043
:1046D000004001400048014000440140F8B4032973
:1046E00000D990E08B0001A4E3189F4600F006B8C3
:1046F00000F05FB800F01EB800F03CB8046A012377
:1047000000939C430462046A0A25AC430462148843
:10471000056A2543056284690325AC438461548896
:104720008569254385613B4C10340546183506469E
:1047300020361DE0036A374C23400362036A40F6CB
:104740000025AB43036213881B02056A1D43056203
:10475000C3690325AB43C3615388C5691D43C56164
:10476000103405461C350646203640F200130093EF
:1047700004273CE0046A41F2000541F20003009383
:10478000AC430462046A4AF20005AC430462148834
:104790002403056A25430562C46940F20035AC4331
:1047A000C46154882402C5692543C56105461C358A
:1047B00019E0046A102300939C430462046AA02554
:1047C000AC43046214882401056A254305628469A8
:1047D00040F20035AC438461548824028569254346
:1047E000856105461835064620360C27084C2B688F
:1047F00023402B60D388BB402C681C432C6033685B
:10480000009C234333609288F8BCFFF71DBDC0466F
:10481000FF0FFFFFFFFEFFFFC2680A43C260704741
:10482000C94301617047C2680A40531E9A4100693A
:104830000840411E8841104070478162012A03D11F
:10484000416901220A4342617047491E4A424A4176
:10485000D103426C48F200039A43511841647047F7
:104860000349002202730260426081607047C046C3
:10487000FFFF000010B50B48022181701E4CA0798B
:1048800041424141A17100F01DF8A07910B1FDF73E
:1048900009FF01E0FDF722FF10BC01BC8646FDF7D1
:1048A000C9B9C0460A000020134800210184C17024
:1048B0000279521CD3B2022B00D811460171FDF7C8
:1048C000B9B9C0460A490B4A002019B11070521CF0
:1048D000491EFAE70849C8820883C8634883888369
:1048E00008644864C88388704870FCF701B8C04603
:1048F000E2040000E4020020E4000020F0B591B0E2
:104900000646F64CE06B216C65786A1E9541401AAC
:1049100007902D2801D3002000E00120618B089131
:10492000002E0C9600D0A2E0054030024119A06C88
:10493000884200D19BE00D91002000901B200121B6
:104940002B220F23FCF7D4FF4FF60004002D4ED08E
:1049500000941E20099020220B920226E04D314641
:104960003346A847009424200A9026220692314616
:104970003346A84700941D20049027220592032166
:104980000B46A84700941C252826042128463246B9
:104990000B46D34FB84700940521284632460B46B4
:1049A000CF4DA847009406210498059A0B46A847C6
:1049B000009407210998069A0B46A84700941F20E7
:1049C000252208210B46A847009409210B980A9A32
:1049D0000B46A8470094212023220A210B46A84712
:1049E00022200B214FF60002FCF776FF3BE01F343C
:1049F000A4B200941F20099021220B920426ED4DB1
:104A000031463346A847009424200A902622069275
:104A100031463346A84700941E26272705213046F5
:104A20003A460B46E34DA8470094062130463A46E5
:104A30000B46E04EB047009407210998069A0B46B2
:104A4000B04700942020252208210B46B04700944F
:104A500009210B980A9A0B46B04700942220232282
:104A60000A210B46B047D24C0D98A0640C9ED24F41
:104A7000BD78E06C40F2E0710691A84215D00021AB
:104A80001020022D07D140F2E072009201900291B5
:104A90002C20CC4A05E0C94A0092019002912C20BA
:104AA000C74A0B46FDF794F8E5643D78206DA842AF
:104AB0001ED0002610270096019702960524204656
:104AC0006843C1490A1864203146BC4BFDF780F8A1
:104AD000B94800780096019702960C9E6043BA4947
:104AE0000A184C207021B94BFDF772F8B0480565E3
:104AF0000120099000060D90012E35D1EFF31084AE
:104B000072B6B54E14360EAF38463146FCF7A0FCEF
:104B10003D793F783046FCF7A7FC0B9004B962B6AC
:104B200038460D9908432E040643A14C606DB042EF
:104B30004ED00024009480202221A0223223FCF7B2
:104B4000D7FECDB30A950EADA44928463A4600F0EB
:104B50006BFA1020009401900294802022212A46B2
:104B60000A9D40F2E0732FE03406FDF78FFE261811
:104B70008F4C606DB04203D100200B90054627E0BA
:104B8000FDF784FE0025012809D110200095019031
:104B90000295802022218F4A40F2E07308E0102025
:104BA00000950190029580202221894A4FF600034A
:104BB000FDF70EF80B950AE0102000940190029486
:104BC0008020222186A27D4BFDF702F8784C666595
:104BD000668BA06DB0420A9520D0608B28B1628BA5
:104BE0000EA881A100F020FA01E080480E90002478
:104BF000009480254027A022502328463946FCF700
:104C000077FE10200094019002940EAA284639469F
:104C10006A4BFCF7DDFF664886650446A78DE06DAC
:104C2000B8422ED0F8087C2805D80EA871493A461B
:104C300000F0FAF90EE040F2E830B9B2B1FBF0F260
:104C40005043381A80B20A21B0FBF1F30EA868492C
:104C500000F0EAF900240094022570262C2280231B
:104C600028463146FCF744FE10200094019002943F
:104C70000EAA2846314640F2E073FCF7A9FF4C4CDF
:104C8000E7650C9D012D0B9E05D10A9818B1206E89
:104C9000012814D136E058480799814201D30020F9
:104CA0000990691E481E8141089880B2421E9041B9
:104CB000084009990840216E814221D090B100201E
:104CC00010210090019102902C2070214CA240F202
:104CD000E073FCF77DFF01240FE0C046E4000020F4
:104CE00039180008002410200094019002942C2010
:104CF0007021424A314BFCF76BFF2D480466044695
:104D0000012D18D10D993143606E0D9188424DD01F
:104D1000002600967024A0228025284621462B4696
:104D2000FCF7E6FD10200096019002960B980128F2
:104D300030D0324A2FE02C06FDF7A8FD00040419FC
:104D4000FCF790F921181A48406E0D9188422DD039
:104D5000FCF788F902460EAC2AA1204600F064F95F
:104D6000002700977025A02280263046294633462A
:104D7000FCF7BEFDFDF78AFD102100970191029717
:104D8000012801D020480690069883B23046294673
:104D9000224606E01DA2022800D11DA20B4B284688
:104DA0002146FCF715FF02480D99416611B0F0BD90
:104DB000E4000020391800080A000020E0FF00008D
:104DC000566C0008486C0008806C0008FF7F0000EB
:104DD0005B6C0008446C0008540100204D6C000816
:104DE0002D2D2D2000000000253375002D2D2D00C8
:104DF0006E6C0008686C0008EE0200005F6C000832
:104E00004F4B20005425750000F8FFFF4455540017
:104E100032434800F0B589B0044600F0F7F80025A9
:104E20000095A0228023284629460793FCF760FDC1
:104E300010270095019702950CB146A200E043A20D
:104E4000022C089400D145A20220464C464E059003
:104E500029462346B0470095019702955020434AC2
:104E6000049029462346B047414800909F26414C74
:104E70002846394632463B46A0473D4800907C20B4
:104E80005F2339460246A0473948009060242846EF
:104E9000214632462346374EB0470095019702958A
:104EA00008980128069401D0344A00E032A2122169
:104EB000079E30462B4B2C4CA0470095019702953E
:104EC00032212FA23046274B274CA047009501974F
:104ED00002952CA230460499224B1E46224CA04734
:104EE000009501970295294A0598069C214633466C
:104EF0001D4EB0470095019702952C2024A2214613
:104F0000184B194EB0470095019702954C2021A2ED
:104F10002146144BB047009501970295089E012E3B
:104F200001D01FA200E01DA2079821460D4B0E4C98
:104F3000A0477920FDF78EFA284600F043F8304666
:104F400009B0F0BC02BC8E46FFF7D8BC45434720F1
:104F50000000000053704F3200000000532D454305
:104F600047000000FFFF0000D11B0008536C000841
:104F7000FF7F0000391800084F322500646C0008DC
:104F800042504D002F6D696E00000000776C0008E4
:104F9000534947005350414E0000000053494D0013
:104FA00050574D00232141431448C08891FBF0F134
:104FB0003820401A5D2800DB5D20262900DD122004
:104FC00080B2704710B510B17920FDF743FA0B4C51
:104FD000207840000A490A5A0A487821FCF7BEFFA7
:104FE0002020E0800F480021C1848185064A82622A
:104FF000817201218170C16B816610BD0A000020A1
:105000008E6B000854010020020038000020C043CD
:1050100004498864C864086548658865C865086689
:1050200048667047E40000200FB410B504A9074B90
:1050300002AA039800F01CF8044602A9002000F020
:10504000BFF9204610BC08BC04B01847C153000883
:1050500002E008C8121F08C1002AFAD17047704741
:10506000002001E001C1121F002AFBD1704700009F
:10507000FFB58FB00546002606E025280AD0129A13
:10508000119990476D1C761C28780028F5D1304680
:1050900013B0F0BD002402940121B54A009400E051
:1050A00004436D1C2B780846203B98401042F7D1F2
:1050B00028782A280ED0022228780146303909297A
:1050C00016D802990A2359433039401814436D1CED
:1050D0000290F1E7109802C802911090002904DABA
:1050E00001204003044348420290022004436D1C07
:1050F00028782E2817D10420044368786D1C2A28AC
:105100000CD110986D1C02C8009110900BE0009912
:105110000A225143303940186D1C0090287801460E
:1051200030390929F3D928786C2810D006DC4C28AE
:105130001AD068280ED06A2817D104E0742813D03A
:105140007A2812D110E00120400504430CE001212F
:10515000090501E0032109050C436978814203D167
:105160000120000524186D1C6D1C2878692874D056
:1051700006DC00288BD0632827D0642806D16CE099
:105180006E2808D073282CD0752878D0129A1199DF
:105190009047761C5FE06002400F022809D0032888
:1051A0000DD00428109801680DD00E60001D1090DD
:1051B00051E01098F21701680E604A60F6E7109807
:1051C00001680E80F2E70E70F0E710986A460178E9
:1051D0001173001D10900020507303A8019001204E
:1051E00005E0109802C8019110900020C0436107AB
:1051F0000CD5002700E07F1C00998F420FDA874210
:10520000F9DB0199C95D0029F5D108E0002700E02C
:105210007F1C8742FCDB0199C95D0029F8D1029807
:105220002146C01B0290129B119A00F0B3F880191E
:10523000C61907E0019801990078491C0191129A5A
:10524000119990477F1EF5D22146129B119A029820
:1052500000F090F886196D1C16E70A20019010994D
:1052600001C910916102490F032900D100B204293C
:1052700000D140B2002803DA40422D2103E00DE0C6
:10528000210504D52B216A461173012103E0E107B2
:1052900011D02021F7E70CAF0C9114E00A20019007
:1052A000109901C910916102490F032900D180B200
:1052B000042900D1C0B20021EDE70199FBF7B2F853
:1052C00030317F1E39700028F7D104A8C01B203070
:1052D0000190600704D5012000048443009801E098
:1052E000012000900199884201DD401A00E0002071
:1052F000411800900C9809180298401A0290E00397
:1053000006D42146129B119A029800F043F88619A0
:1053100000200D9008E003A9085C129A11999047AB
:105320000D98401C761C0D900C998842F3DBE0032D
:105330000CD52146129B119A029800F02BF8861981
:1053400004E0129A302011999047761C0099481E6B
:1053500000900029F5DC05E03878129A7F1C11993D
:105360009047761C0199481E01900029F4DC6BE7F8
:1053700009280100F8B5044600251E461746880492
:1053800004D405E039462020B0476D1C641EF9D5D1
:105390002846F8BDFFB50446002581B01E46C80367
:1053A00001D5302700E02027880404D505E03846E1
:1053B0000399B0476D1C641EF9D5284605B0F0BDB1
:1053C0000A68531C0B60107070470000000000005A
:1053D00000000000000000000000000000080808B5
:1053E0000808080800001818000000486C24120083
:1053F0000000000000000000000000000024242441
:105400007F1212127F12121200000000081C2A2ABA
:105410000A0C1828282A2A1C080800000022251532
:1054200015152A585454542200000000000C121282
:10543000120A76252911916E000000060604030069
:1054400000000000000000000000004020101008D4
:10545000080808080810102040000002040808107E
:1054600010101010100808040200000000000808C6
:105470006B1C1C6B080800000000000000000808FE
:1054800008087F080808080000000000000000006D
:1054900000000000000006060403000000000000F9
:1054A0000000FE00000000000000000000000000FE
:1054B00000000000000006060000000080404020C0
:1054C0002010100808040402020000000018244202
:1054D00042424242424224180000000000080E08E6
:1054E000080808080808083E00000000003C424286
:1054F000422020100804427E00000000003C42428E
:10550000201820404042221C0000000000203028CB
:10551000242422227E20207800000000007E020247
:10552000021A26404042221C0000000000382402DB
:10553000021A26424242241800000000007E222265
:10554000101008080808080800000000003C42424B
:10555000422418244242423C000000000018244229
:10556000424264584040241C00000000000000003B
:1055700018180000000018180000000000000000CB
:10558000000800000000000808040000004020108F
:105590000804020408102040000000000000000081
:1055A0007F0000007F0000000000000000020408EF
:1055B000102040201008040200000000003C42427D
:1055C000464020101000181800000000001C225A4D
:1055D000555555552D42221C0000000000080818A2
:1055E0001414243C224242E700000000001F222243
:1055F000221E22424242221F00000000007C424242
:10560000010101010142221C00000000001F224292
:10561000424242424242221F00000000003F42122A
:10562000121E12120242423F00000000003F4212CE
:10563000121E12120202020700000000003C222289
:10564000010101712122221C0000000000E74242FA
:1056500042427E42424242E700000000003E08080B
:10566000080808080808083E00000000007C101028
:105670001010101010101010110F000000772212DF
:105680000A0E0A121222227700000000000702020E
:10569000020202020202427F00000000007736365A
:1056A00036362A2A2A2A2A6B0000000000E34646E2
:1056B0004A4A52525262624700000000001C2241D6
:1056C000414141414141221C00000000003F424253
:1056D00042423E020202020700000000001C22417A
:1056E000414141414D53321C60000000003F4242A5
:1056F000423E1212222242C700000000007C4242B9
:10570000020418204042423E00000000007F490889
:10571000080808080808081C0000000000E74242CA
:10572000424242424242423C0000000000E7424204
:10573000222424141418080800000000006B4949B2
:1057400049495555362222220000000000E7422434
:1057500024181818242442E70000000000772222B1
:10576000141408080808081C00000000007E21200E
:10577000101008040442423F00000078080808089E
:105780000808080808080808780000000202040455
:1057900008080810102020204040001E1010101093
:1057A00010101010101010101E00003844000000DF
:1057B00000000000000000000000000000000000E9
:1057C000000000000000000000FF000608000000CC
:1057D00000000000000000000000000000000000C9
:1057E000003C4278444242FC0000000000030202F8
:1057F000021A26424242261A000000000000000061
:1058000000384402020244380000000000604040BA
:1058100040784442424264D800000000000000008A
:10582000003C427E0202423C0000000000F088087A
:10583000087E08080808083E00000000000000007C
:10584000007C22221C023C42423C00000003020277
:10585000023A4642424242E700000000000C0C00BF
:10586000000E08080808083E000000000030300064
:105870000038202020202020221E000000030202E9
:105880000272120A1612227700000000000E0808A9
:10589000080808080808083E000000000000000092
:1058A000007F9292929292B70000000000000000E8
:1058B000003B4642424242E7000000000000000078
:1058C000003C42424242423C000000000000000016
:1058D000001B26424242221E020700000000000078
:1058E000007844424242447840E00000000000005A
:1058F00000774C040404041F0000000000000000B6
:10590000007C42023C40423E0000000000000008D3
:10591000083E0808080808300000000000000000E9
:1059200000634242424262DC0000000000000000CE
:1059300000E74224241408080000000000000000D2
:1059400000EB4949555522220000000000000000EC
:10595000007624181818246E0000000000000000D3
:1059600000E7422424141808080700000000000083
:10597000007E22100808447E000000C02020202065
:105980002010202020202020C00010101010101007
:105990001010101010101010101000060808080841
:1059A000081008080808080806000C32C2000000A9
:1059B00000000000000000000000000000000000E7
:1059C00000000000000000000000000000000000D7
:1059D00000000000000000000000000000000000C7
:1059E00000000000000000000000000000000000B7
:1059F0000000600060006000600060006000600007
:105A00004000200020002000000000000000600096
:105A10006000600000000000000000000000600660
:105A20006006300398018800440000000000000078
:105A30000000000000000000000000000000000066
:105A40000000000000000000000000000000000056
:105A500000001002100210021002FE07FE070802EA
:105A60000801080108010801FE07FE0704010401FE
:105A7000040104010000000000000000000000001C
:105A800040004000F00158034C03CC034C00580088
:105A90007000E000C001C00140034C035C034C03F4
:105AA0004801F0004000400000000000000000003D
:105AB00000000E010A019100910091005100510077
:105AC0003A00AE03A00250045004480448044804BD
:105AD00084028403000000000000000000000000B9
