:020000040800F2
:1000000078190020E1000008670C0008650C000862
:1000100000000000000000000000000000000000E0
:100020000000000000000000000000006B0C000851
:100030000000000000000000690C0008EB0F000841
:10004000F3000008F3000008F3000008F3000008C4
:10005000F3000008F3000008F3000008FD070008A3
:100060000000000065040008F3000008F300000829
:10007000F3000008F3000008F3000008000000008F
:100080000D190008F300000800000000F30000084C
:10009000F30000089D180008F3000008F3000008B2
:1000A000F3000008F3000008F3000008F300000864
:1000B000F300000800000000000000000000000045
:1000C000F300000800000000F30000080348854624
:1000D00000F090F9004800478126000878190020B8
:1000E0000448804704480047FEE7FEE7FEE7FEE7D6
:1000F000FEE7FEE7ED0F0008CD00000803460B43C6
:100100009B0703D009E008C9121F08C0042AFAD2CD
:1001100003E00B780370401C491C521EF9D2704753
:10012000D2B201E00270401C491EFBD2704700228F
:10013000F6E710B513460A4604461946FFF7F0FFE6
:10014000204610BDF8B502464A40D40F42004B008D
:1001500052085B089A4202D20246084611464A00FB
:1001600023D0C30D4A00DDB2120EAD1A202D35DAB0
:1001700049020126490AF6058A19002C00D052428C
:1001800020214F1B1146B9402A411018C20D9A4236
:1001900021D0002C17D0012D08DCDA05801AD20FEF
:1001A0008019D207DBB200F0EBF8F8BDDA05801A4F
:1001B000012340001B06C01880185A428018CA0F3D
:1001C0001043490007E04908C2071143DA05801AC5
:1001D00080194008801800F0CBF8F8BD61000122BA
:1001E000511A001BF7E70122D2075140AAE701226A
:1001F000D2075040A6E7024670B54A40D30FDB074E
:1002000040002DD04A002AD0010E140E0002120226
:100210000919400A520A8418E50104465443000AA9
:10022000120A2E045043A4194219200CC543AA18DF
:10023000120C0125AD03521C521912047F392404FB
:1002400000D0521C104301D44000491EC2B20C061B
:10025000C0092018401C4008802A02D003E000207A
:1002600070BD40084000002900DA0020184370BD2E
:1002700070B502464A40D50F40004A00ED074008DD
:100280005208002814D0002A12D0C40DD30D410208
:100290000120C0055202490A520AE41A091812182C
:1002A0007D34914201D3641C00E04900002C01DA46
:1002B000002070BD0023914201D3891A03434008F6
:1002C00049000028F7D100290AD0914202D101212A
:1002D000C90705E0914201D2012101E00121C94392
:1002E000E005C018401900F043F870BD0122D207A4
:1002F000002800DB101A002900DB511A814201D8C6
:10030000012070470020704710B500229623114647
:1003100000F036F810BDC20F410040020123400A30
:10032000DB05D207090EC0187F2901DA00207047CB
:10033000962903DC9623591AC84001E09639884073
:10034000002AF4D040427047410040020122400A96
:10035000D205090E80187F2901DA002070479629FE
:1003600003DC9622511AC84070479639884070477E
:10037000002904DA401C490001D1400840007047C0
:1003800070B40024050C05D11024000402D100290A
:1003900021D01124050E01D100020834050F01D12E
:1003A0000001241D850F01D18000A41C002801DB61
:1003B0004000641C002908D020252E1B0D46F54066
:1003C000A14000D001212943084301061B1B000A5C
:1003D000DB1D02D5002070BC7047DB0518188018A3
:1003E0000029F8DA401C4900F5D170BC40084000F3
:1003F000704700001CB50948009009480190054667
:100400000126009C05E0E36807CC33430C3C984789
:100410001034AC42F7D3FFF75DFE00002C5D0008FE
:100420004C5D000870B50446002903D0002020224E
:10043000012310E0002801D00020C043C046C04680
:100440000DE02546D5408D4205D30D469540641BF1
:100450001D46954040191546521E002DF1DC2146DF
:1004600070BD000070B5174E35880020042101F0E2
:100470003FFC6C0858B10020042101F02FFCB26849
:100480002AB1706818B1022D01D32146904700208F
:10049000022101F02DFC98B10B48012101700020D0
:1004A000022101F01BFCB26852B1706840B1022D0C
:1004B00006D361004018214670BC08BC9E46104718
:1004C00070BDC0469C00002014000020CA48C078BF
:1004D0007047C046C34802218170C748C178491C93
:1004E000CAB20323B2FBF3F25A43891AC17001F076
:1004F0002FB8C046B0B590B1044641F200403E214D
:1005000021616061002525606560A560204601F0DD
:1005100051FB38202554A586E58685482063B0BD6B
:10052000F0B58BB017460C4605460C21FFF7FFFDD2
:10053000002C00D1FAE07E4887423E4600D30646B2
:10054000A0680A9010B13002216801E03002014633
:10055000421A12125118216062685118401A801014
:1005600080186060000A288000B2C1174840411A14
:100570006069020A032307935A43462A00D8462299
:100580002346283309936B4B914206D20902091A7C
:10059000891108186061E0684DE0E06822690A99F5
:1005A000091A914247D30122AA70002841D0184667
:1005B000FA304843FA21B0FBF1F081B240F22C133B
:1005C000C91A5D4B99425B4B33D80496A0852346EC
:1005D000183309994E780896089E76009853089823
:1005E000461C07200890064002964E70087807289F
:1005F000069701D8401C08700390C1B200200591F5
:100600001E4621B13788C019491EB61CF9E7069F5E
:1006100038B14A49059E714346087118B1FBF0F0A4
:100620006085039EF0B202283CD20022049EE2853F
:10063000404B0A98E06030B10A99081A984202D9F2
:10064000204601F0B7FA208E864201D22686304637
:10065000618E8E4201D966863146394E112F01D303
:10066000B74202D9A28E521CA286E28E521CE286AA
:1006700092B2FA2A099F4ED3A28E042A01D90421EC
:1006800004E0081A80B21428079904D2397420466D
:1006900001F090FA3AE0462802D32A49884233D33F
:1006A000022032E0019502998E1B3146089D2940B7
:1006B0000027D5B285420DD2C9B249005D5A711CDE
:1006C000089E31404E009E5B751B6D43EF19521C16
:1006D0000E46EEE70598401EB7FBF0F101208007BB
:1006E000034680088B42FBD80022019D069F049E92
:1006F000002B9CD098185208814200D3D218081AB7
:1007000000D301469B08F3E70120387400206063A2
:10071000608611362686608DA880A08DE880E08DE9
:100720002881387CA872A068401CA0600BB0F0BD86
:10073000FF0F0000EE020000A406000060EA0000C7
:10074000EE0F0000B90B0000401EC0B2032803D812
:10075000800004A10858704700A0704757414954D1
:1007600000000000D65C0008E45C0008DB5C0008C8
:10077000CE5C00080248A021024A02F0FBB8C04645
:100780003C0100206D1E000808B116498880164AF9
:10079000164900200B461BB11070521C5B1EFAE775
:1007A00040F22032124B1AB118809B1C521EFAE7FD
:1007B000104A19B11070521C491EFAE70E49888080
:1007C000C880086208814881C8810882886248829E
:1007D0008882C862486288810863C882087000F015
:1007E000E3B8C0460A0000207C020020E2040000BA
:1007F0004E0800208F0E00200401002080B510203C
:1008000001F0A8FD30B104480C3080BC02BC8E461B
:1008100001F0E6BA80BDC04618000020F8B500908F
:10082000032801D80320009000254E4F2C462E4669
:10083000A8B2009988420ED200F018F8A1B28842FE
:10084000044600D80C46B9B28842074600D30F468A
:1008500036186D1CECE7A0B2B9B20818301A00992E
:10086000891EB0FBF1F080B2F8BDC046B0B50224DD
:10087000204601F007F9012001F058F9074D6D1CE1
:10088000204601F005F908B9002DF8D125B1B0BC1A
:1008900001BC864601F044B90020B0BD5F79FEFF7F
:1008A000F0B587B000240094A02280230493204652
:1008B000214600F0A9FC1025009401950294022025
:1008C000069026A2274F284E21463B46B04700946B
:1008D000019502945020059024A221463B46B04742
:1008E000234800909F27234E204629463A462B4610
:1008F000B0471F4800907C205F2329460246B0473E
:100900001B4800906021039120463A460B46B047B1
:10091000009401950294122117A2049F3846114BAE
:10092000114EB047009401950294322113A238462B
:100930000C4BB047374600940195029410A20698DC
:10094000039E3146074BB8470094019502940EA2CE
:1009500005983146034BB84707B0F0BD484553539F
:1009600000000000FFFF0000E914000854420000EE
:10097000FF7F00005111000842504D00525200000C
:10098000524D5353440000005155414C49545900B5
:10099000584880887047C0465648C0887047C0464F
:1009A000544880787047C04610B5524C20460C30F1
:1009B000FFF7A0FD00206060A07020802081A07261
:1009C00010BDC046BFB502464A4D29460C3101ACA8
:1009D0002046FFF7A5FD07CC07C5BFBDF0B589B020
:1009E0000D4600261027019702963D4C214608B17E
:1009F00040F2E071009108B13CA200E039A22C2045
:100A00003146334600F070FD00960197029664204F
:100A100031462A46234600F067FD3648828822B1D7
:100A200006A835A103F05CFB01E03448069000966F
:100A3000019702968020222106AA234600F054FD49
:100A40002C48C28822B106A82DA103F049FB03E07F
:100A500006A806712B480690009601970296802002
:100A60000590422106AC0394274B284D2246A84707
:100A70002048028926A1204603F032FB0096049705
:100A8000022470254A2220462946059B00F0BCFB23
:100A900000960197029620462946039A40F2E07399
:100AA0001A4CA04700965024A02220462946059BB8
:100AB00000F0AAFB0F4FB87AFFF746FE0246B87A5D
:100AC0000096049901910296012840F2E07300D04B
:100AD000034B204629460D4CA04709B0F0BDC04647
:100AE000E0FF0000484F4C440000000052554E20EB
:100AF00000000000A8000020253375002D2D2D00DA
:100B0000253475002D2D2D2DFF7F0000E9140008E0
:100B10002534756D73000000F0B585B00024009495
:100B2000A02280232046214600F06EFB01260227EA
:100B3000032512200490202C17D04FF600000090BF
:100B400040490857503080B20B199957491D89B256
:100B5000DA57503292B25B575B1D9BB200F0F8FA45
:100B6000049801F033F8A41CE5E700240E2004905B
:100B70001C2C16D03448009034490857503080B2AD
:100B80000B199957491D89B2DA57503292B25B5707
:100B90005B1D9BB200F0DCFA049801F017F8A41C6E
:100BA000E6E70025182004900C20039033244B2600
:100BB0002F46042F12D0009504980190029524A08E
:100BC000C25D03987843383080B22146224B00F052
:100BD0001DFC304600F0FAFF7F1CEAE700201021E0
:100BE000009001910290202050211C4A1C4B00F0E3
:100BF0007BFC40F2CF10009014248C226C25204600
:100C000029462B4600F0A4FA86270C26A0B28C2891
:100C100010D840F2E07100918628014600D3394691
:100C20008A1D29462B4600F093FA304600F0CEFF8D
:100C30000834EBE740F2041005B0F0BC02BC8E466D
:100C400000F0C4BF605C0008FF7F0000425C000849
:100C50004845535300000000FFFF0000825C00087D
:100C60001F840000FEE770477047704770B500248E
:100C700010B109B1934203D223462002C01870BDBF
:100C8000049E9B1A9DB2B5422346F6D36B089B186F
:100C900000229BB20C4634B105889D4200D8521CFC
:100CA000801C641EF7E790B2642242434808101883
:100CB000B0FBF1F40123E0E7F0B588B0002600288E
:100CC00000D1BFE0109D002D00D1BBE0129C079425
:100CD000002C00D1B6E0002900D1B3E0002A00D1F9
:100CE000B0E00D9C002C00D1ACE0119F0297002FCA
:100CF00000D1A7E08A4200D30A465B18A24200D383
:100D000022460F9C03940E9C00949C1A94FBF1F3D2
:100D10004B43E31A9CB2B4FBF1F34B43E31AC75CB9
:100D20000026079B1E720196DE809A803F015F803D
:100D30001F800594641C0692561E3B4696B1B4FB78
:100D4000F1F24A43A21A825C1201934202D9079B34
:100D50001A801346BA4202D9079F7A801746641C4C
:100D6000761EEBE7069A029CA242049200D30494FA
:100D7000039C4CB39F42019C3BD9DB195E080123C5
:100D800002969A4226D0059AD718B7FBF1F44C4345
:100D90003C1B045D24017F1EB7FBF1F64E43BE1BD6
:100DA000865D3701039A012A06D1029EBE42069A49
:100DB00008D3A64206D20FE0029EBE42069A01D296
:100DC000A64209D25B1CDCE7009CB4FBF2F3534360
:100DD000E41A0EE0019C0CE00124079E3472F380BB
:100DE0001424B2FBF4F4141BE318B3FBF2F45443E1
:100DF0001C1B049B5E1E0296521E0792A2B2039217
:100E00001C46019F069EE4B1049A012A01D10023E9
:100E100003E0029AB7FBF2F39BB2039A9B18B3FB71
:100E2000F6F272439A1A059BD218B2FBF1F34B43C8
:100E3000D21A825C12012A80079ABF18AD1C641E68
:100E4000E1E7049E304608B0F0BDF0B588B000265A
:100E5000002800D1C1E0109D002D00D1BDE0129C02
:100E60000794002C00D1B8E0002900D1B5E0002A99
:100E700000D1B2E00D9C002C00D1AEE0119F029792
:100E8000002F00D1A9E000260196079F3E728A42FA
:100E900000D30A465B18A24200D322460F9C03945B
:100EA0000E9C00949C1A94FBF1F34B43E31A9CB202
:100EB000B4FBF1F34B43E31A5B00C75A019B079E57
:100EC000F380B280778037800594641C0692561EAA
:100ED0003B4696B1B4FBF1F24A43A21A5200825A41
:100EE0009A4202D2079B1A801346BA4202D9079F40
:100EF0007A801746641C761EEBE7069A029CA24293
:100F0000049200D30494039C4CB39F42019C3BD9B0
:100F1000DB195E08012302969A4226D0059AD7185B
:100F2000B7FBF1F44C433C1B6400045B7F1EB7FB32
:100F3000F1F64E43BE1B7600875B039A012A06D169
:100F4000029EBE42069A08D3A64206D20FE0029E37
:100F5000BE42069A01D2A64209D25B1CDCE7009C85
:100F6000B4FBF2F35343E41A0EE0019C0CE00124BD
:100F7000079E3472F3801424B2FBF4F4141BE318BC
:100F8000B3FBF2F454431C1B049B5E1E0296521EDC
:100F90000792A2B203921C46019F069EE4B1049AF6
:100FA000012A01D1002303E0029AB7FBF2F39BB2BE
:100FB000039A9B18B3FBF6F272439A1A059BD21858
:100FC000B2FBF1F34B43D21A5200825A2A80079A9D
:100FD000BF18AD1C641EE1E7049E304608B0F0BDAA
:100FE00001460020022200F05BBD7047FCB444487B
:100FF000021F136801210B43136013689B07FCD584
:10100000036880241C43046000230193019B7F2B11
:1010100002D8019B5B1CF8E7036890241C43046022
:1010200000230193019B7F2B02D8019B5B1CF8E7F7
:1010300003230093DC430568254005601468314DA7
:10104000254015600468304D2540056004682F4B2D
:101050001C400460846A0F25AC438462C46A40F279
:101060000315AC43C4620C04C56AA543C562CC0732
:10107000C56AA543C562046B8C43046300244460C5
:10108000234EB51C17682F4317604F04761E254664
:10109000654113683B4201D1002DF7D113683B42F3
:1010A00000D1FEE71B4B1C6802252C430526B443E8
:1010B0001C600368036003680360036803600368DF
:1010C000124C234003601D231B0404681C4304606E
:1010D0000B0614681C43146013689B01FCD502685E
:1010E000009B9A43026002682A4302600C22036854
:1010F0001340082BFBD1C8060021FCBC01F07EBFC9
:1011000004100240FFFFF2FE0C00FF08FFFFC27751
:10111000FEFF000000200240F8B5009316460D4681
:1011200007462A20B7498847084C3846A04730462A
:10113000A0472B20B34988472846A0470098A047DE
:101140002C20B049F8BC04BC96460847BD170008DF
:10115000F0B587B05C1A0B46151A0122002D01DD8F
:10116000009207E025B16D420021C943009101E0E2
:1011700000250095002C01DD019207E024B16442B6
:101180000021C943019101E000240194A5422F46AA
:1011900000D8274603940C99029100221446164663
:1011A00091B28F4222DB049406922C46059080B2C5
:1011B00099B2029A1D4600F01BF803983218BA4201
:1011C00001DC2B4601E001982B18254604980119F3
:1011D000B942059801DD009C0019D61B00DC1646BB
:1011E000CC1B00DC0C46069A521CD9E707B0F0BDB8
:1011F00010B5144602460B46FFF78EFF204610BC82
:1012000002BC8E4600F0DABAFEB515460E46511EF7
:101210008AB20293591E8BB201903146FFF77CFFD0
:10122000089CB0B2029988420AD2019FB8B2A84283
:1012300004D2204600F0C2FA7F1CF7E7761CF0E7E4
:10124000FEBD0000F0B589B06B4820260022089250
:101250006A4C3146A0476425694F2846B8470122A9
:101260006548314616460792A0472846B847624867
:1012700040F200113246A0472846B8471120614984
:1012800088477820B847B1205E49884705265E4DDB
:1012900030460696A8473C242046A8472046A84743
:1012A000B220584988473046A8472046A8472046DC
:1012B000A847B320534988473046A8472046A84747
:1012C0002046A8473046A8472046A8472046A847BA
:1012D000B4204C49884703200590A847C0242046E5
:1012E0004849884728200390A8470820A847042792
:1012F00038460197A847C120424988472046A84759
:10130000C220404988470D200490A8470898A84764
:10131000C3203C4988478D242046A8472A263046CA
:10132000A847C420374988472046A847EE20A84749
:10133000C520344988471A20A847362031498847B4
:101340007020A847E0202F4988473846A847222028
:10135000A8470720A8470A20A8472E242046A847C8
:101360003020A84725200290A8473046A847039878
:10137000A84726273846A8472046A8473A20039082
:10138000A8470898A8470798A8470598A847132092
:101390000590A847E1201B498847019E3046A84791
:1013A0001620A8470620A8470498A8472D242046C1
:1013B000A8473846A8472320A84727273846A847E4
:1013C0003846A8470298A8472046A8473B20A84788
:1013D0000898A8470798A8473046A8470598A847FF
:1013E0000398084988470698A8472920054909B065
:1013F000F0BC04BC9646084700040048432400089B
:10140000CD1B0008451800080D180008F0B58BB07A
:1014100007931646119C0A19521E93B26508421989
:10142000521E92B208900691FFF776FE0A95680761
:10143000210900B1491C6143203EF0B20190002512
:1014400012980990109805902A46089E03940291DC
:1014500090B2884241D2182C049205D0102C3CD175
:10146000019909011F4A03E03021019A51431C4AA6
:101470005118081804780027082F29D00120B840F7
:101480002040099971B128B1B0B2069989B2079A82
:10149000FFF7AEFE761CB0B20899401A0A9988424E
:1014A0000ED10FE00028059800D0079800F086F9CB
:1014B0006D1CE8B20A9AB0FBF2F15143401A06D013
:1014C0007F1CD9E70698401C0690089E00E0002586
:1014D000049A521C039C0299BAE70BB0F0BDC046B7
:1014E000724A000882440008F0B587B0069315469A
:1014F000059107460D980490400803900E9E0C9CA1
:101500002A7862B10094049801900296B8B20599C5
:10151000069BFFF77BFF03983F186D1CF0E707B0B1
:10152000F0BD00008D48C078022803D001280DD1FD
:1015300000F048BD8A498878821E5042504109789F
:1015400005224A4387498918FFF748BA02F028B8AC
:10155000F0B587B08148C07802287FD000240128E8
:1015600000D08FE00094A0228023069320462146DD
:10157000FFF74AFE1026009401960294022005907F
:1015800079A27A4F7A4D21463B46A84700940196AE
:10159000029450200490774A21463B46A84776485B
:1015A00000909F25754F204631462A463346B8475E
:1015B000714800907C205F2331460246B8476E4850
:1015C00000906021039120462A460B46B8470094BC
:1015D0000196029412216A4A069D2846634B644F85
:1015E000B847009401960294322166A228465F4BC8
:1015F0005F4FB84700940196029463A2284604996D
:101600005A4B1D46B847009401960294604A0598CB
:10161000039F39462B46564DA847009401960294E5
:101620002C205CA23946514B514DA847009401969D
:1016300002944C2058A239464C4BA847009401967E
:10164000029457A206983946484BA84700F06EFB13
:1016500007B0F0BC01BC864600F0B4BCFFF720F92F
:1016600000F064FB3E498878821E50425041097860
:1016700005224A433B49891807B0F0BC04BC964692
:10168000FFF7ACB90094A0228023069320462146A0
:10169000FFF7BAFD102600940196029402200590EF
:1016A00040A2324F324D21463B46A8470094019656
:1016B000029450202F4A21463B46A8472E480090CE
:1016C0009F252E4F204631462A463346B8472A48A2
:1016D00000907C205F2331460246B84726480090A0
:1016E0006021049120462A460B46B8470094019693
:1016F00002941221224A069D28461C4B1C4FB847D3
:10170000009401960294322128A22846174D2B46B8
:10171000174FB8470094019602941D4A0598049FFC
:1017200039462B46124DA8470094019602943A2060
:1017300020A239460D4B0E4DA84700940196029405
:101740001DA206983946094B094CA04700F0EEFA55
:1017500007B0F0BC01BC864601F022BF04010020A6
:101760000A000020165D000845434700FFFF000007
:10177000E9140008F25C0008FF7F00005111000826
:10178000FA5C000842504D002F6D696E00000000A9
:101790000D5D0008534947005350414E00000000C2
:1017A00050574D0053434F5045000000464F55548D
:1017B0000000000046494E0044494E00F8B5054679
:1017C000344C80210022204600F03BFE324E02279E
:1017D0003046394602F0A0F80028F9D0290A3046F0
:1017E00002F076F802273046394602F095F80028D4
:1017F000F9D0E9B2304602F06BF880210122204690
:10180000F8BC08BC9E4600F01CBEC046F8B50546B4
:10181000204C80210022204600F013FE1E4E02279D
:101820003046394602F078F80028F9D0304629468B
:1018300002F04EF8802101222046F8BC08BC9E46EA
:1018400000F0FFBDF8B50546124C402100262046A9
:10185000324600F0F6FD80212046324600F0F1FDD0
:101860000D4E02273046394602F056F80028F9D0CE
:101870003046294602F02CF84021012520462A4610
:1018800000F0DFFD802120462A46F8BC08BC9E46B9
:1018900000F0D7BD0004004800300140B0B5384D1D
:1018A0006888C0087C2802D86888401C6880314C51
:1018B0002088401C2080A98880B2884204D3002060
:1018C0002080E06800B1804729780E48022907D1BE
:1018D0006188491C61806188814201D90021618051
:1018E0006978022907D1A188491CA180A188814279
:1018F00001D90020A08004480121B0BC04BC964658
:1019000002F0BCBB0F27000000440140F8B5184CA2
:101910000221204602F0B5FB80B1164EF788002563
:101920002046294602F0B5F84FB17081708931899F
:10193000884207D970893189401A08E0F8BD3081A2
:1019400001250DE030890C4941407089401828B1CB
:101950000A49B1FBF0F03061094845803581758155
:10196000F58002212046F8BC04BC964602F086BBF6
:1019700000040040F0000020FFFF000040420F0084
:10198000000000208A48016808220A4302600168BA
:101990000907FCD4016804220A4302600168490770
:1019A000FCD4704710B50C4A012806D0022810D18B
:1019B000032000050C32094B02E00F200005054B07
:1019C00014681C4014600905091801401068084398
:1019D000106010BDFFFF0FFF2C240140FFFFCFFF61
:1019E000411E8841C00272490A6840F600039A43CA
:1019F000101808607047C0466D48016840F2001238
:101A00000A4302607047C04669480168C90703D1AC
:101A1000016801220A4302607047C04610B50123E5
:101A200004461C40624A59B11CB1190513680B43A6
:101A30001360800710D5116848F2000008430AE0DF
:101A40001CB1190513688B431360800704D5106817
:101A500048F200018843106010BDC046012803D041
:101A6000022809D1064800E00448514A136803409F
:101A700013601068084310607047C046FFFFF1FF15
:101A8000FF8FFFFF05490A6882430A607047C0461E
:101A9000024909680840411E8841704700240140FE
:101AA000B0B51E4B05280AD8052444430846A0407B
:101AB0001F25A5409C6AAC4304439C621AE00B2896
:101AC0000BD8052444431E3C0846A0401F25A540D2
:101AD0005C6AAC4304435C620CE010280AD2052423
:101AE00044433C3C0846A0401F25A5401C6AAC432B
:101AF00004431C62092903D8032048431B1D04E04A
:101B0000122909D8032048431E388240072181400A
:101B10001868884310431860B0BDC0460C240140CB
:101B20000148006880B270474C240140C107204939
:101B300004D0012292050B6813430B60800704D583
:101B4000012040050A6802430A607047B0B540F2C0
:101B500000140546254040F20043104A71B115B10A
:101B6000116821431160184202D0116819431160B5
:101B7000800712D55168022008430DE015B11168A5
:101B8000A1431160184202D0116899431160800787
:101B900003D55068022188435060B0BD0424014041
:101BA0000120C00502490A6802430A607047C04626
:101BB0000824014000218162C162C1601822282AE4
:101BC00002D08152921CFAE77047000010B5FEF770
:101BD0009BFB01460A484068FEF70DFBFEF7B4FB8D
:101BE000084948600020886001220A60064B0C68A2
:101BF0001C40012CFBD00B6893430B60886010BD28
:101C00009000002010E000E0010001001421414399
:101C100031480A58012313430B50704714214143A4
:101C20002D480A58202313430B50704710B5142237
:101C300042432E49521853680124A34353600023A2
:101C400053609360D360136180000F228240086864
:101C50001043086010BDC046B0B5142242431E4870
:101C600013580124A343135013180C689C608C680C
:101C7000DC600C8A5C60135843F60074A3434C6824
:101C80001C43CB6823434C691C4314500B7E5B1EE2
:101C90005C425C41A30114584025AC43E318135047
:101CA0004B7E5B1E5C425C41E30114588025AC43D3
:101CB000E3181350897E4B1E9941090113581024D3
:101CC000A34359181150B0BD14224243024813587F
:101CD0000B4313507047C04608000240800081400B
:101CE000024802680A4302607047C046040002408E
:101CF00010B50022082915D801238B4040F2141496
:101D000023420FD082000C469440074A13682340B8
:101D10005C1EA34114244443A01882680A40501E4C
:101D200082411A40104610BD00000240FEB500205E
:101D30000090022012217A245E25224602942B462E
:101D4000FFF762FA234800900127112638463146F2
:101D500022463346204CA0471E480090384629466C
:101D6000029A2B461C4CA0471A480090044638465D
:101D700031463A462B46184FB847009402983146F0
:101D800002462B46B8471326144C14200290B5B2D5
:101D9000782D0BD8029FB9B25C2905D82846224677
:101DA000FFF726FA3F1DF6E71236F0E72426042057
:101DB0000290B5B25C2D0BD8029FB8B2782805D836
:101DC00029462246FFF714FA3F1DF6E71336F0E7DF
:101DD000FEBDC046FF7F00005111000858540000AE
:101DE00070B504460068616800F031FB411E88410F
:101DF0001A4D297801430126C80712D003CC083CAC
:101E000000F025FB012822D1287800B3002028709B
:101E1000A068E16800F01BFB70B9687860B102202F
:101E200014E0002068702E70A068E16800F00FFBDD
:101E300001280CD16E700AE0A068E16800F007FB91
:101E4000012800D16E78F00701D101202074102004
:101E500070BC02BC8E4600F079BAC04698000020E3
:101E600010B503240474029C1EC010BDF0B585B0EB
:101E70000B4604464C4D4D4E4E4F00200490002B17
:101E800000D18EE02088B98849004B4A5052B98869
:101E9000491CB980B988A94201D90499B980691C43
:101EA000FA888A4202D2F988491CF980396A491CA9
:101EB0003962796A08187862B989491CB98189B28E
:101EC00050296BD35021B0FBF1F001093A893B4D09
:101ED000A9543989491C39813989B14201D90499F8
:101EE0003981721C79890192914202D27989491C07
:101EF00079810393B96A029421B102022C490A4004
:101F00003B6B03E002022A490A4013461621795E20
:101F1000D21AD211D218130A1B1A1BB25B1A9B08D1
:101F2000CB181DB2082195FBF1F109B27F26F443CD
:101F3000A14200DC21461C4CE034A54200DC0E46E8
:101F4000F9891F4C6654F989491CF9813A63FB826F
:101F5000F989164EB142029C01D90499F981398A56
:101F6000019A9142104D02D2398A491C3982B96ACC
:101F7000491CB96280B2FEF725FDFEF709FD7882A3
:101F8000FEF70AFDB882FEF70BFD18B1012038708C
:101F9000B86AF8620498B8817862039BA41C5B1E3F
:101FA0006DE705B0F0BDC0461F030000E10400006E
:101FB00000FFFF00040100204E0800208F0E0020CB
:101FC0007C020020F0B58DB0B548866AC76A0178FA
:101FD0000791448A002500951B2001212B220F2305
:101FE0000991FFF711F9601E84410894F01BAD4977
:101FF000884200D309954FF60001079A002A5AD06B
:102000002C2858D800911E200590202207920225E6
:10201000A54C4FF6000729462B46A04700972420E1
:1020200006902622049229462B46A04700971D269B
:1020300027220392032130460B46A04700971C2716
:1020400028240421384622460B46974DA8474FF6D0
:10205000000000900521384622460B46924CA047CE
:102060004FF60007009706213046039A0B46A0471B
:10207000009707210598049A0B46A04700974FF652
:1020800000051F20252208210B46A04700954FF68A
:10209000000509210798069A0B46A04700952120C4
:1020A00023220A210B46A04722200B214FF60002D3
:1020B000FFF79EF83DE04FF600001F3084B2009419
:1020C0001F200590212207920425774E29462B4692
:1020D000B0470094242006902622049229462B46DD
:1020E000B04700941E2527260521284632460B4678
:1020F0006D4FB84700940621284632460B466A4D7C
:10210000A847009407210598049A0B46A847009415
:102110002020252208210B46A84700940921079872
:10212000069A0B46A8470094222023220A210B4638
:10213000A8475E4DA97840F2E0705D4E0229089CE8
:1021400007D1002110220090019202912C205A4ABE
:1021500006E0002110200096019002912C20554AA3
:102160000B46FFF7C1F92878002510270095019745
:10217000029505210791484350490A1864202946D1
:102180003346FFF7B1F900F01DF9012808D1009599
:1021900001970295802022214A4A40F2E07307E02D
:1021A00000950197029580202221454A4FF60003B1
:1021B000FFF79AF93A4E708A28B1728A0AA842A1AA
:1021C00001F08EFF01E041480A9009980440009513
:1021D00001970295802040210AAA354BFFF784F928
:1021E000728BD0087C2804D80AA83A4901F078FFFD
:1021F00011E040F2E83091B22646B1FBF0F46043C2
:10220000101A80B20A21B0FBF1F30AA83049224625
:10221000344601F065FF0095019702950220702178
:102220000AAA40F2E073FFF75FF944B10095019705
:1022300002952C2070212AA240F2E07306E000955E
:10224000019702952C20702123A2194BFFF74CF91E
:102250001648007800950197029507994143174861
:1022600042184C2070211F4BFFF73EF900F0AAF8EE
:10227000012808D1009501970295802070211AA2AB
:1022800040F2E07307E000950197029580207021ED
:102290000B4A4FF60003FFF727F90DB0F0BDC0461B
:1022A00004010020EE020000511100080A00002085
:1022B000E0FF0000F55C0008ED5C0008165D00081A
:1022C000E05C0008E95C0008253375002D2D2D0029
:1022D000045D0008FE5C00085741495400000000FE
:1022E0004F4B2000FF7F000052554E0010B5164B9B
:1022F0001C6884431C605C6884435C609C68844305
:102300009C60DC688443DC6019B1012905D1191D8A
:1023100000E019460C6804430C60022A0DD0C1434A
:10232000012A06D07AB99A6802439A60DA680A40AC
:1023300008E09A680A409A6002E09968014399604F
:10234000DA680243DA6010BD000401400449086005
:102350007047C046024909680840411E88417047DD
:1023600014040140B64800787047C04605484088CC
:1023700040F2F411884201D9002070471A480069E0
:102380007047C04600000020174840887047C0468C
:10239000AB4880787047C046094840887047C046BF
:1023A0000748008818B10349B1FBF0F000E00020B5
:1023B00080B2704740420F00014800887047C04615
:1023C000060000200348007808B902207047012069
:1023D0007047C0468E0E0020994840787047C0462E
:1023E000014880887047C046F0000020F8B50346D9
:1023F000006A00935C6A00252E46202D0CD01746FB
:10240000F740FF0705D00F46AF400F23AB4098437E
:1024100038432D1D761CF0E708250026202E0CD011
:102420001346EB40DB0705D00B46B3400F27B74000
:10243000BC431C43361D6D1CF0E7009908624C62DA
:10244000F8BD0AB1182200E02822815070470069C7
:102450000840411E88417047FEB502930192026810
:102460000090C56800263746202E10D0029BFB4006
:10247000DB0709D0019BB3400324B440A5431D43AF
:102480000B46B340A2431A43B61C7F1CECE70098EE
:102490000260C560FEBDF8B5012902D1416819434B
:1024A00001E0416899434160009081680024032065
:1024B0002646202C0CD01F46F740FF0705D01746B4
:1024C000A7400546A540A9433943A41C761CF0E764
:1024D00000988160F8BD10B5002484814481437266
:1024E00006C0FF21017010BD10B50446FF20207208
:1024F00003CC083CFFF7ABFF617A884209D1A07A90
:10250000772805D8401CA072022801D1607B20B139
:1025100010BD00206073A07210BD012060731020F8
:10252000207210BD70B548F2000290423DD044F2D6
:102530000002904213D042F2000290425FD1102973
:102540007AD1FFF73FFF02286ED1FFF735FF01F088
:102550006FF9FFF721FF01F05FF9012065E0102915
:102560006AD1FFF719FF0646FFF726FF0546FFF77A
:1025700023FF40F2E834FA2800D34408204601F053
:1025800057F93046FDF7C0FE06462846FDF7BCFE6B
:1025900001463046FDF76CFE05462046FDF7B4FEC9
:1025A00001462846FDF727FE37E0102944D1FFF702
:1025B000F3FE0446FFF700FF84422CD2FFF7FCFE37
:1025C000FDF7A2FE0446FFF7E7FEFDF79DFE054678
:1025D0001A492046FDF70FFE2946FDF7B3FD0446D4
:1025E000FFF7EAFEFDF790FE01462046FDF77EFE6E
:1025F00090B9FFF7E1FEFDF787FE04460CE040F2DC
:102600000022904218D1102916D10D488178022954
:1026100010D101210FE000242046FDF77CFE70BCA4
:1026200002BC8E4601F0F8B8022070BC02BC8E4697
:1026300001F016B90221817070BDC0460AD7233D52
:102640000A000020426081604370002101707047E1
:1026500010B504464078424242416168A068FFF7E5
:10266000F0FE0220207010BD10B504464278501EC6
:1026700082416168A068FFF7E4FE0120207010BD70
:102680008EB001F0E3F900F059FA00F015FB00F00C
:102690000FFA00F053FB00F02BFC00F095FB00F06C
:1026A000F3FB09AFAB490024384644F2000223464D
:1026B0000894FFF7C7FFE04E3546203528460ECF79
:1026C0000EC009AF3846A34948F200022346FFF77F
:1026D000B9FF34462C3420460ECF0EC02846FFF7F3
:1026E000C3FF07942046FFF7B3FF09AFD1499A4CC7
:1026F000384642F20002089BA04734463834204650
:102700002ECF2EC009AF3846CA4944F20002089BBA
:10271000914DA8473046483006902ECF2EC009AFC5
:102720003846C44948F20002089B8B4DA847304602
:10273000583005902ECF2EC009AF3846BD4940F223
:102740000022089B844DA8473046683004902ECF65
:102750002EC00820009009AF10223846B5490B461C
:10276000FFF77EFB30460C3014223946FDF7C6FCDD
:102770001120FEF735FCC820FEF750F8054640F260
:10278000E83001F055F840F2F41001F045F8012767
:10279000384601F065F840F2E830FFF717FAFEF727
:1027A00051FD40F2E830FFF711FAFEF74BFDFEF75E
:1027B000B3F903200390FEF713FC01952846FDF7BB
:1027C000E3FFFDF7D7FF65480297394600F0E0F8D0
:1027D000FEF7BEFE6248634DA8476348A8476348BA
:1027E000A847FFF7D1FD0546FFF7FAFD0746307809
:1027F00070B172B60898307062B6FDF76BFEB088A3
:1028000001F016F8F08801F007F85020FF2131544C
:102810007078A0B172B60898707062B6FDF756FE77
:1028200008B901F055FCFFF7CDFD012801D0029851
:1028300000E0022001F014F84020FF2131540A2D5D
:102840000BD320464A4DA8470698A8470598A847A5
:102850000498A847002000F0DBFF502F19D3012572
:10286000284600F0D1FF284601F020F8FFF790FD40
:10287000022802D1019800F0CDFBFEF753FE0020A4
:1028800001F01AF80225284600F0BEFF284601F0A4
:102890000DF84025715DFF2904D0B08FFFF742FE8F
:1028A000FF2070555020315CFF2904D0A08AFFF72B
:1028B00039FEFF2020766025715DFF2905D05C2060
:1028C000305AFFF72FFEFF2070557025715DFF29EC
:1028D00005D06C20305AFFF725FEFF207055307F61
:1028E000032823D0FDF7F2FD40B1FFF73BFD317F18
:1028F00001290CD1401E0DD208980BE0FFF76CFDAA
:10290000317F01290AD1401E0BD2002009E00328A3
:1029100000D2401CC0B200F071FF05E0082800D2D0
:10292000401CC0B200F0BAFF03983077FFF74AFDB1
:102930002C21715C012806D1012900D151E70798AB
:10294000FFF792FE4DE7022900D14AE70798FFF70B
:102950007FFE46E700080048D7240008AD2900089C
:10296000004401406F3E0008002C0140000400407C
:10297000E9240008044B198058609A60034A022336
:10298000137000F05DB8C0469C00002014000020C9
:10299000044AD06000201080012900D8012102489B
:1029A00081807047F00000200000002010B5BF4C6F
:1029B000204642F20001FFF74AFD20B11E480021E7
:1029C000018181700DE01C4802891C494B1C9A4210
:1029D00002D20289521C028102898A4201D981787D
:1029E00011B3204644F20001FFF731FD28B112492E
:1029F000002048811049C87010BD0F4C608928B96B
:102A0000FFF7DAFCA080FFF7C7FCE08061890B4884
:102A1000421C914202D26189491C618161898142D3
:102A200001D9E07818B110BD01214170C9E701203A
:102A30002070DFE70004004818000020CF070000E6
:102A400070B588B00D460646012000242146FFF7E8
:102A500005F840F2005000F083FD0920214600F007
:102A6000A1FA2046FFF7E2F801A940F2001008831E
:102A70008C760E4A0192039640F200420492029034
:102A800042F20000069005952046FFF7E5F8204643
:102A9000FFF7C4F82046FFF7B9F806212046FFF7F4
:102AA00013F9FEF7A9FF08B070BDC0464C240140E1
:102AB000F8B5F34C204600F053FDF834204600F002
:102AC0004FFD0924204600F0E7FCE0060324002522
:102AD000082321462A46FFF7BFFC0226164F304640
:102AE0002946B84740F200102946B84740F2004056
:102AF0002946B8472846FEF773FF0127384639466E
:102B0000FEF750FF284621463246FEF7C9FFFFF781
:102B100047F8072041043846FEF7A0FF38463946FB
:102B2000FEF77CFFFEF770FF3846FFF74FF8F8BC62
:102B300001BC8646FEF726BF4D1B0008F0B585B0E8
:102B4000564C601C564DA8472046A847EE342046F8
:102B5000A847544D0124544E284644F20001224611
:102B6000B047284648F200012246B0474F4D202189
:102B7000049128462246B047402103912846224628
:102B8000B0478021029128462246B047284640F2AD
:102B900000112246B0470026454F424D28462146A7
:102BA000324644F20003B84728462146324648F2EE
:102BB0000003B8473D4D28463146224642F2000305
:102BC000B84728463146224644F20003B847284613
:102BD0003146224648F20003B8472846314622468D
:102BE00040F20023B8470823284631462246B8471A
:102BF000284621463246049BB8472846214632469D
:102C0000039BB847284621463246029BB8472846D0
:102C10002146324640F20013B8471023019328465C
:102C200031462246B8470327224D1E4831463A46D0
:102C300044F20003A8471B4831463A4648F20003D5
:102C4000A8471A4831463A46049B1A4DA8471748E8
:102C500031463A46039B174DA847144831463A4639
:102C6000029BA847114831463A4640F20013A84754
:102C70000720394600F096F90421204600F0B2FE04
:102C80000222019C20463146FFF730FB204605B06A
:102C9000F0BC02BC8E46FFF759BBC04612050000CF
:102CA000613500080008004843240008000400487B
:102CB0005924000897240008F0B587B0B54C204689
:102CC00000F04EFCFB34204600F04AFC0920C6060A
:102CD0000024A025304621462A46FFF787FB022123
:102CE000304622462B46FFF7B7FB032730462146E6
:102CF0003A462B46FFF7CFFB0F4D284600F0F4FD78
:102D00006E46304600F062FE059740F20070029079
:102D10004CF2000001900694049440F204100090DC
:102D2000FC3003902846314600F00AFE284600F0A9
:102D3000C9FD07B0F0BDC04600300140F0B587B016
:102D40001F4800F00DFC1F4C204601F05BF803AE5D
:102D5000304601F0B3F90025357331200590472046
:102D6000039004952046314601F08AF86F463846B4
:102D700001F041F801263E80B81C0A21FDF7D7F981
:102D8000204629463A4600F0C1FE1922204629462F
:102D900000F0FDFF70222046294600F0CBFF2046C0
:102DA00029462A4600F0FAFF204600F06BFE204636
:102DB000314601F078F9204601F054F807B0F0BD33
:102DC0000B060000002C0140F0B587B0714C204686
:102DD00000F0C6FBFF34204600F0C2FB0920C50608
:102DE000022100240426284622463346FFF734FBFE
:102DF0000322284621463346FFF74DFB284621464D
:102E00003246FFF7F3FA1F4D284600F0FBFF6E46EF
:102E1000304601F053F93473344802904720009053
:102E200001942846314601F02BF804AF384600F0F3
:102E3000E2FF01263E80B81C0A21FDF778F92846FA
:102E400021463A4600F062FE2846214640F2F4123E
:102E500000F09DFF60222846214600F06BFF2846C7
:102E60002146224600F09AFF284600F00BFE284635
:102E7000314601F018F9284600F0F4FF07B0F0BD24
:102E800011050000004001407FB5164800F068FBC6
:102E9000154C204600F0B6FF0125204629462A465B
:102EA00001F0F9F86E46304601F008F90020307361
:102EB0000E4902914721009101902046314600F0D1
:102EC000DFFF2046294601F0D9F81520022100F045
:102ED00069F82046294601F0CDF8204600F0C2FFEF
:102EE0007FBDC0461106000000440140E70300001A
:102EF000F0B587B0274800F033FB274800F030FBDF
:102F00000920C606022100910025402430462A46A9
:102F10002346FFF7A1FA0322304629462346FFF74E
:102F2000BAFA0127304639462246FFF75FFA1020E9
:102F3000394600F037F8194E304600F063FF01AC17
:102F4000204601F0BBF816480390472001900295F7
:102F50003046214600F094FF05AC204600F0CFFD3E
:102F6000E580A5806780258030462946224600F00E
:102F7000E3FF304600F086FD3046009C214601F01C
:102F80007DF83046214601F075F8304600F06AFFC2
:102F900007B0F0BD1105000001070000000400406B
:102FA000FFFF0000B0B542B2002A05D40323144647
:102FB0009C43104BE31803E00C2313400C4C1B19EB
:102FC0009407E40E8907090EA140FF25A5401C685F
:102FD000AC430C431C60002A08D4C1081C220A40E0
:102FE0001F2101400120884003495050B0BDC04618
:102FF00014ED00E000E400E000E100E0034A0A40D4
:10300000024303480260BFF34F8F704780FFFF1FEA
:1030100008ED00E0F0B595B0F04EF178491E0122C0
:10302000119240F2E834012928D8ED4F3A78520045
:10303000ECA3995A0F91358AF289B16A0E9100B1C9
:10304000B8800F98854200D30F9DA0180346F9332E
:10305000E649CC1820222F46CFB3E549B3FBF1F661
:10306000E4494E4392B2A657F1174E40761AB24247
:1030700000D832467F1E5B1E641EEDE708B1F7499B
:103080008880F648417812A80022028113920F929C
:1030900012924800F24A105AEFF3108472B60529D2
:1030A00000D3AAE0F288B388318B3546B67812AFE8
:1030B000059778270497EB4F0397029601910090AC
:1030C000EB4840F22031FDF7C0FEEA49A8E092B299
:1030D000F0490C925143E14A9288B1FBF2F1DE4A89
:1030E0000A40DC4B9A4200D80B46D9494B83471B18
:1030F000FA37E648C0191090FEF718FE6D420F9897
:10310000401E0D9000200146C5B3D84AB7FBF2F22D
:10311000DF4B5A43109B9A56232353430C9A93FB3D
:10312000F2F238239C1A5D2C00DB5D24262A00DD98
:1031300012240E9A52190F9EB2FBF6F37343D21A61
:10314000772353430D9AB3FBF2F2961C119AD207E0
:103150000AD180B2B2B2824206D340F2E073009349
:1031600089B2A3B2FDF7F4FF7F1C1098401C1090A9
:103170006D1C0020119030462146C5E7B4490878FF
:10318000002800D162E1C86A0E9A824200D25DE155
:10319000C86A0E9A101A0F9A904200D356E1C86A74
:1031A0004FF600010091401E0F9AB0FBF2F151431F
:1031B000401A772141430D98B1FBF0F5A81C84B269
:1031C0001221162320462246FDF7C2FF032C09D305
:1031D000681C80B213214FF60002FEF709F8782C24
:1031E00000D933E1E81C80B213214FF6000215B07C
:1031F000F0BC08BC9E46FDF7FBBF72893389318B5A
:103200003546B67812AF059778270497954F039700
:1032100002960191009094489449FDF74DFDFA21E2
:103220000A9104B962B612A989880E910F990B46CA
:103230002F46109060B112A841880388B87838B939
:10324000388B801C0E9CB0FBF4F26243801A3883EA
:103250000D93CB1A40F2E832D2325A437F4880882D
:10326000B2FBF0F27A83844A14465C43B4FBF0F478
:103270002546794E3540774EB54200D82646BE8366
:103280000D9C64186508744C303C23422C4607D0D2
:10329000144650344443794EA419794EB4FBF6F4E5
:1032A00009947C781CB16C4C40F2E83601E0754E14
:1032B000694C0F9170438018734AB0FBF2F60E9878
:1032C00002280BD31099022909D3481E0A9A4243B7
:1032D0000E98401EB2FBF0F20A9200E010993046C0
:1032E00020400890002003294ED308341C40182C9D
:1032F0004AD35803800C079602D0D80880B200E069
:1033000004200026854201D8334602E02A1A93B2EF
:103310001099401980B20C90524F0B9635460E967C
:103320003246B14217D03C88A34210D200215AB194
:103330000C98A04209D80E980404344600D00B9C87
:10334000401C0E900B9435460A46109900E001226D
:10335000BF1C761CE5E70E9884B20020022C11D326
:103360000B9A91B2ABB28B421099394F079E0BD991
:10337000601E0A9B4343A81A80B242089A18B2FB07
:10338000F0F001E0324F079E3446786310200E9033
:103390000090344E30460D9A0F9BFDF767FCF88382
:1033A000089808B1A0B20E907720109C60430F904F
:1033B000FEF7BCFC2246099880B20D90601E0C906E
:1033C0000025284629460F9BAB423FD0022A13D343
:1033D0000C9AB5FBF2F2941C0FE0C04604010020E9
:1033E0000A000020FA00F401E803E2047C02002055
:1033F000E20400001EFBFFFF022432880D9BD21A5C
:10340000232353430E9A93FBF2F22523252A1746D2
:1034100000DB1F46DB439A4201DB383700E012270E
:10342000119AD2070AD180B2A2B2824206D340F2E8
:10343000E073009389B2BBB2FDF78AFEB61C773504
:103440000020119020463946109ABCE715B0F0BD17
:10345000040100200F270000F0FF00000A000020F8
:10346000BC5C00085E0700208F0E0020E204000014
:103470004E080020204E0000740900005D0200008C
:10348000BA04000088130000E81200007C0200204B
:103490001EFBFFFFA04B00002F490A684CF20003FF
:1034A0009A430A60CA6A2D4B1340CB62092851D84F
:1034B000820001A39A18974600F012B800F027B8CE
:1034C00000F01BB800F01CB800F00FB800F029B8ED
:1034D00000F032B800F017B800F032B800F009B8C8
:1034E00001200004CA6A824315E0086844F2000221
:1034F00029E008684CF2000216E00868086024E041
:103500000868086012E0086848F200020CE0012038
:103510000004CA6A0243CA62C86A40F200129043B9
:1035200017E0086844F2000202430A600120C00765
:10353000CA6A0243CA6208E0086848F2000202E070
:1035400008684CF2000202430A60CA6A40F20010A6
:103550001043C8627047C04604100240FFFEFE7F61
:103560001F21014001228A4080090C49435813431E
:10357000435070471F21014001228A4080090749BA
:1035800043589343435070471F21014001228A4012
:1035900080090249435813434350704700100240CA
:1035A000F0B589B0FEF7E2FE0746FEF7F9FE0446E5
:1035B000784807B9476B784DA97840F2E070774EAC
:1035C0000229049707D10021102200900192029154
:1035D0002C20744A06E000211020009601900291F0
:1035E0002C206F4A0B46FDF77FFF687800251027D7
:1035F000009501970295052141436B4842186420CC
:10360000039029463346FDF76FFFFEF7DBFE0128E6
:1036100008D100950197029580202221644A40F24A
:10362000E07307E0009501970295802022215F4A10
:103630004FF60003FDF758FFE0087D28059706D3F5
:1036400040F2E830B4FBF0F206A85CA102E006A864
:103650005949224600F044FD009580244227A022CB
:10366000522320463946FDF7CFFD0095059E019671
:10367000029506AA20463946484BFDF735FF454FCF
:10368000787800950196029508B150A200E04DA20D
:103690005021504B2046FDF727FFBA8B4548461C6A
:1036A000B24204D206A84D4900F01AFD10E090B2D3
:1036B00040F2E831B0FBF1F430466043101A80B2BA
:1036C0000A21B0FBF1F306A84349224600F008FDA9
:1036D0000095022470273822802320463946FDF7C2
:1036E00093FD009505980190029506AA204639465B
:1036F00040F2E073FDF7F8FE049BD8087D280ED356
:1037000040F2E830B3FBF0F25643981B80B20399C5
:10371000B0FBF1F306A832A100F0E2FC04E006A839
:1037200025491A4600F0DCFC1A4F00953A24702611
:103730006E22802320463146FDF766FD00950598F0
:103740000190029506AA20463146224BFDF7CCFE99
:10375000B87F28B1FA7F06A824A100F0C1FC03E0DD
:1037600006A824A100F0BCFC00957024A0228026AD
:10377000304621463346FDF747FD009505980190F8
:10378000029506AA30462146044BFDF7ADFE09B06E
:10379000F0BDC046040100200A000020E0FF000048
:1037A000F55C0008ED5C00088F5C0008E05C000838
:1037B000E95C0008E7030000115D000825336C7523
:1037C0004B000000355670700000000031567070DC
:1037D00000000000FF7F0000045D0008FE5C0008A0
:1037E000256C752E256C754B000000002533752562
:1037F000250000002D2D2D2525000000032800D3D5
:1038000003202949087070472A4908707047C0464C
:103810002B4948807047C0460246104801888A42BA
:1038200000D30A4642801B48002100F0B0BAC046CF
:1038300010B5012800D80120084C2080401E81B21C
:10384000144800F024F920886188814204D910BC12
:1038500002BC8E46FFF7E0BF10BDC0460600002048
:10386000B0B502280FD0012813D10A4D00212846F7
:1038700000F0C6FA01242846214600F0FDFA284649
:1038800000F0F5FA03E0034800F0ECFA00240248E7
:103890000470B0BD004001408E0E0020082800D307
:1038A00008200149487070470A000020014948700B
:1038B0007047C04600000020014988807047C0461C
:1038C000F0000020016840220A43026070470000B7
:1038D0003C4A904201D1D16070474268D20401D481
:1038E000C16070470173704710B53649884204D0F3
:1038F000124988420CD1074C01E040F20C342046BA
:10390000FFF742FE204610BC02BC8E46FFF732BED7
:1039100010BDC0460E04000002468068084201D077
:10392000012070470020054B9A4206D129B99068C2
:1039300041F60001014048424841704700380040CC
:1039400070B50368046842681E4DA8421BD18A689E
:1039500040F600041546254340F60076B5422ED1C8
:1039600043F240052B402240D21818C91343234389
:1039700008390D460C3534CD89691A4322432A4350
:103980000A43026014E043F640031C400B682343E3
:103990004C681C43CB6823430C691C434B6923438D
:1039A0008C691C430460084B1A40896811434160CC
:1039B000C16940F600029143C161012070BD002041
:1039C00070BDC04600300140FFF00000002140F211
:1039D0000072016041608260C1600161416181618A
:1039E00070470000B0B58B08032B1ED88907090F5C
:1039F00088400F228A40D2430C499C0001A52C1913
:103A0000A746C04600F00BB800F004B800F004B8B8
:103A100000F004B8091D02E0083100E00C310B6829
:103A200013400B600A6802430A60B0BD0800014001
:103A3000001F41424141880003490A6804239A4318
:103A4000101808607047C04610E000E010B5042070
:103A5000C043FFF7EDFF07480068FCF755FC064937
:103A6000FCF706FC054C206020680549FCF7C3FB09
:103A7000606010BD100000200024F44A9000002077
:103A800000007A44016880220A4302607047C162E4
:103A90007047032904D88904090C0818406B704743
:103AA0000020704710B5032928D88B0001A4E31823
:103AB0009F46C04600F006B800F016B800F007B800
:103AC00000F00AB881690C239943816112E0C16951
:103AD0000C239943C16105E0C16940F60043994355
:103AE000C16112021C3006E0816940F6004399432F
:103AF00081611202183001681143016010BD00217C
:103B0000C1808180012242800180704710B5032965
:103B100000D9FBE08B0001A4E3189F4600F006B833
:103B200000F0B3B800F045B800F087B8036A01218F
:103B30008B43036283690324A34383611388046A6C
:103B40001C430462036A0224A34303629388046A49
:103B50001C430462764BC3180A24E341072B00D9A7
:103B6000D4E09940E123194200D1CFE0016A042357
:103B7000994301625188036A0B430362016A082377
:103B800099430162D188036A0B430362416840F2A2
:103B9000001399434160118943680B4343604168B6
:103BA00040F2002399434160518942680A434260D0
:103BB00010BD016A40F20013994301620321C94319
:103BC000C3690B40C36111880902036A0B43036296
:103BD000016A40F200239943016291880902036A55
:103BE0000B43036250490B1F984200D08EE0036ADA
:103BF00040F20044A343036253881B02046A1C433F
:103C00000462036A40F60004A3430362D3881B02E4
:103C1000046A1C430462086841F200039843086088
:103C2000108900010B6803430B60086842F200032F
:103C3000984308605089000123E0016A41F20003C3
:103C400099430162C16940F200339943C16111880F
:103C50000903036A0B430362016A42F200039943BA
:103C6000016291880903036A0B4303622E490B1F0B
:103C700098424BD1086844F20003984308601089C9
:103C800080010A6802430A6040E0016A10239943F8
:103C90000162816940F20033994381611188090111
:103CA000036A0B430362016A2023994301629188EE
:103CB0000901036A0B4303629C49884227D0984953
:103CC000884223D1016A4023994301625188090146
:103CD000036A0B430362016A802399430162D1881E
:103CE0000901036A0B4303620F48016840F2004375
:103CF000994301601189890003680B4303600168DF
:103D000040F6000399430160518907E010BD074860
:103D1000016840F2004399430160118989000268FB
:103D20000A43026010BDC046042C0140044001401B
:103D300000D4FEBF10B5032928D88B0001A4E318D6
:103D40009F46C04600F006B800F016B800F007B86D
:103D500000F00AB8816970239943816112E0C1695A
:103D600070239943C16105E0C16947F2000399439B
:103D7000C16112021C3006E0816947F200039943D9
:103D800081611202183001681143016010BD0329DE
:103D900003D88904090C08184263704710B5032939
:103DA00028D88B0001A4E3189F46C04600F006B84F
:103DB00000F016B800F007B800F00AB881690823CF
:103DC0009943816112E0C16908239943C16105E00B
:103DD000C16940F600039943C16112021C3006E03C
:103DE000816940F60003994381611202183001682D
:103DF0001143016010BD80B50C21FCF798F980BD1E
:103E00004162704710B5154C4949884217D0144992
:103E1000884219D04449884214D04149884214D07C
:103E20004249884209D04349884204D03D498842EA
:103E300007D1F63409E0A41D07E0641D05E0E41D88
:103E400003E010BDFD3400E0F9342046FFF79CFB91
:103E5000204610BC02BC8E46FFF78CBB0B03000053
:103E60000010004001680122914301607047016821
:103E700001220A430260704742690A434261704767
:103E800010B50A888262264A904202D0254B984299
:103E900019D103687024A34303604B8804681C4352
:103EA00004608B8804681C4304608B68C362904282
:103EB0000BD1136840F20034A3431360CB8814681D
:103EC0001C4314601BE08B68C362164B98420BD0F6
:103ED000154B984208D0154B984205D0144B984288
:103EE00002D0144B98420CD1036840F20034A34333
:103EF0000360CB8804681C430460904206D1097BB0
:103F00000163416901220A43426110BD074A9042A0
:103F1000F5D0084A9042F2D0054A9042EFD0F0E73F
:103F2000002C0140000400400020004000400140FF
:103F30000048014000440140F8B4032900D990E052
:103F40008B0001A4E3189F4600F006B800F05FB8AC
:103F500000F01EB800F03CB8046A012300939C43B3
:103F60000462046A0A25AC4304621488056A254386
:103F7000056284690325AC438461548885692543BF
:103F800085613B4C103405461835064620361DE049
:103F9000036A374C23400362036A40F60025AB43B3
:103FA000036213881B02056A1D430562C36903256A
:103FB000AB43C3615388C5691D43C56110340546D1
:103FC0001C350646203640F20013009304273CE0DF
:103FD000046A41F2000541F200030093AC4304621D
:103FE000046A4AF20005AC43046214882403056A9B
:103FF00025430562C46940F20035AC43C46154886E
:104000002402C5692543C56105461C3519E0046ACB
:10401000102300939C430462046AA025AC4304620D
:1040200014882401056A25430562846940F200353D
:10403000AC43846154882402856925438561054623
:104040001835064620360C27084C2B6823402B6079
:10405000D388BB402C681C432C603368009C2343EE
:1040600033609288F8BCFFF71DBDC046FF0FFFFF0D
:10407000FFFEFFFFC2680A43C2607047C943016187
:104080007047C2680A40531E9A4100690840411EA9
:104090008841104070478162012A03D141690122A1
:1040A0000A4342617047491E4A424A41D103426C69
:1040B00048F200039A4351184164704703490022B3
:1040C00002730260426081607047C046FFFF0000DB
:1040D000024841784A424A41427070470401002038
:1040E0000FB410B504A9074B02AA039800F01CF8FE
:1040F000044602A9002000F0BFF9204610BC08BC0D
:1041000004B018477944000802E008C8121F08C12B
:10411000002AFAD170477047002001E001C1121F48
:10412000002AFBD170470000FFB58FB0054600267E
:1041300006E025280AD0129A119990476D1C761C2A
:1041400028780028F5D1304613B0F0BD0024029441
:104150000121B54A009400E004436D1C2B78084609
:10416000203B98401042F7D128782A280ED002220E
:10417000287801463039092916D802990A2359436B
:104180003039401814436D1C0290F1E7109802C8B2
:1041900002911090002904DA0120400304434842B0
:1041A0000290022004436D1C28782E2817D1042089
:1041B000044368786D1C2A280CD110986D1C02C825
:1041C000009110900BE000990A22514330394018B9
:1041D0006D1C00902878014630390929F3D92878D8
:1041E0006C2810D006DC4C281AD068280ED06A281B
:1041F00017D104E0742813D07A2812D110E00120DE
:10420000400504430CE00121090501E003210905F3
:104210000C436978814203D10120000524186D1CEC
:104220006D1C2878692874D006DC00288BD06328A0
:1042300027D0642806D16CE06E2808D073282CD0D3
:10424000752878D0129A11999047761C5FE0600229
:10425000400F022809D003280DD0042810980168C7
:104260000DD00E60001D109051E01098F2170168FB
:104270000E604A60F6E7109801680E80F2E70E7053
:10428000F0E710986A4601781173001D1090002025
:10429000507303A80190012005E0109802C8019115
:1042A00010900020C04361070CD5002700E07F1C60
:1042B00000998F420FDA8742F9DB0199C95D002925
:1042C000F5D108E0002700E07F1C8742FCDB019964
:1042D000C95D0029F8D102982146C01B0290129BAB
:1042E000119A00F0B3F88019C61907E001980199F6
:1042F0000078491C0191129A119990477F1EF5D2BE
:104300002146129B119A029800F090F886196D1CB4
:1043100016E70A200190109901C910916102490F16
:10432000032900D100B2042900D140B2002803DAE9
:1043300040422D2103E00DE0210504D52B216A46E2
:104340001173012103E0E10711D02021F7E70CAF41
:104350000C9114E00A200190109901C9109161029A
:10436000490F032900D180B2042900D1C0B2002135
:10437000EDE70199FCF756F830317F1E39700028BF
:10438000F7D104A8C01B20300190600704D501209C
:1043900000048443009801E00120009001998842C4
:1043A00001DD401A00E00020411800900C98091827
:1043B0000298401A0290E00306D42146129B119AFB
:1043C000029800F043F8861900200D9008E003A938
:1043D000085C129A119990470D98401C761C0D901C
:1043E0000C998842F3DBE0030CD52146129B119A0D
:1043F000029800F02BF8861904E0129A30201199E7
:104400009047761C0099481E00900029F5DC05E0D5
:104410003878129A7F1C11999047761C0199481E92
:1044200001900029F4DC6BE709280100F8B5044687
:1044300000251E461746880404D405E0394620208E
:10444000B0476D1C641EF9D52846F8BDFFB504467B
:10445000002581B01E46C80301D5302700E0202783
:10446000880404D505E038460399B0476D1C641EE6
:10447000F9D5284605B0F0BD0A68531C0B601070D2
:104480007047000000000000000000000000000075
:1044900000000000000808080808080800001818B4
:1044A000000000486C241200000000000000000022
:1044B00000000000002424247F1212127F12121226
:1044C00000000000081C2A2A0A0C1828282A2A1C86
:1044D000080800000022251515152A5854545422A6
:1044E00000000000000C1212120A76252911916EAC
:1044F00000000006060403000000000000000000A9
:1045000000000040201010080808080808101020BB
:1045100040000002040808101010101010080804D1
:1045200002000000000008086B1C1C6B080800005B
:10453000000000000000080808087F0808080800BC
:10454000000000000000000000000000000006065F
:1045500004030000000000000000FE000000000056
:10456000000000000000000000000000000006063F
:1045700000000000804040202010100808040402C1
:1045800002000000001824424242424242422418E3
:104590000000000000080E08080808080808083E87
:1045A00000000000003C4242422020100804427EED
:1045B00000000000003C4242201820404042221CE3
:1045C0000000000000203028242422227E202078B1
:1045D00000000000007E0202021A26404042221C17
:1045E0000000000000382402021A26424242241829
:1045F00000000000007E22221010080808080808A9
:1046000000000000003C4242422418244242423C46
:104610000000000000182442424264584040241C1C
:10462000000000000000000018180000000018182A
:10463000000000000000000000080000000000086A
:104640000804000000402010080402040810204064
:1046500000000000000000007F0000007F0000005C
:10466000000000000002040810204020100804028E
:1046700000000000003C4242464020101000181884
:1046800000000000001C225A555555552D42221C91
:1046900000000000000808181414243C224242E7DD
:1046A00000000000001F2222221E22424242221F3E
:1046B00000000000007C4242010101010142221C75
:1046C00000000000001F2242424242424242221F9A
:1046D00000000000003F4212121E12120242423F2E
:1046E00000000000003F4212121E121202020207D6
:1046F00000000000003C2222010101712122221C45
:104700000000000000E7424242427E42424242E74D
:1047100000000000003E0808080808080808083ED5
:1047200000000000007C101010101010101010106D
:10473000110F0000007722120A0E0A1212222277AD
:104740000000000000070202020202020202427F91
:10475000000000000077363636362A2A2A2A2A6BCD
:104760000000000000E346464A4A52525262624745
:1047700000000000001C2241414141414141221CF6
:1047800000000000003F424242423E020202020795
:1047900000000000001C2241414141414D53321CA8
:1047A00060000000003F4242423E1212222242C7F5
:1047B00000000000007C4242020418204042423EB9
:1047C00000000000007F4908080808080808081CC5
:1047D0000000000000E74242424242424242423C64
:1047E0000000000000E742422224241414180808A4
:1047F00000000000006B49494949555536222222E4
:104800000000000000E7422424181818242442E77E
:104810000000000000772222141408080808081C71
:1048200000000000007E2120101008040442423FD6
:1048300000000078080808080808080808080808A0
:10484000780000000202040408080810102020204C
:104850004040001E101010101010101010101010FA
:104860001E000038440000000000000000000000AE
:104870000000000000000000000000000000000038
:1048800000FF00060800000000000000000000001B
:104890000000000000000000003C4278444242FC5E
:1048A0000000000000030202021A26424242261AB9
:1048B00000000000000000000038440202024438FA
:1048C000000000000060404040784442424264D80A
:1048D0000000000000000000003C427E0202423C5A
:1048E0000000000000F08808087E08080808083E5C
:1048F0000000000000000000007C22221C023C425C
:10490000423C000000030202023A4642424242E7B1
:1049100000000000000C0C00000E08080808083E0B
:10492000000000000030300000382020202020202F
:10493000221E0000000302020272120A16122277DF
:1049400000000000000E0808080808080808083ED3
:104950000000000000000000007F9292929292B747
:104960000000000000000000003B4642424242E7D7
:104970000000000000000000003C42424242423C75
:104980000000000000000000001B26424242221EE0
:1049900002070000000000000078444242424478D0
:1049A00040E000000000000000774C040404041FF5
:1049B0000000000000000000007C42023C40423E3B
:1049C0000000000000000008083E08080808083041
:1049D000000000000000000000634242424262DC2E
:1049E000000000000000000000E742242414080832
:1049F000000000000000000000EB4949555522224C
:104A00000000000000000000007624181818246E32
:104A1000000000000000000000E7422424141808F1
:104A20000807000000000000007E22100808447EF5
:104A3000000000C020202020201020202020202046
:104A4000C0001010101010101010101010101010C6
:104A500010100006080808080810080808080808C8
:104A600006000C32C2000000000000000000000040
:104A70000000000000000000000000000000000036
:104A80000000000000000000000000000000000026
:104A90000000000000000000000000000000000016
:104AA00000000000000000000000600060006000E6
:104AB00060006000600060004000200020002000D6
:104AC00000000000000060006000600000000000C6
:104AD00000000000000060066006300398018800B6
:104AE0004400000000000000000000000000000082
:104AF00000000000000000000000000000000000B6
:104B0000000000000000000000001002100210026F
:104B10001002FE07FE07080208010801080108014B
:104B2000FE07FE0704010401040104010000000067
:104B3000000000000000000040004000F0015803A9
:104B40004C03CC034C0058007000E000C001C001D1
:104B500040034C035C034C034801F000400040005C
:104B6000000000000000000000000E010A0191009A
:104B700091009100510051003A00AE03A002500490
:104B800050044804480448048402840300000000E0
:104B90000000000000000000000038006C006C0005
:104BA0006C006C006C002C0098071C011A0133018A
:104BB00033016301E300C308C6093C07000000009D
:104BC0000000000000000C001C0010001000080095
:104BD00004000000000000000000000000000000D1
:104BE00000000000000000000000000000000000C5
:104BF00000000000000000040002000180008000AE
:104C00004000400020002000200020002000200064
:104C100020004000400080008000000100020004ED
:104C20000000000000000200040008001000100056
:104C300020002000400040004000400040004000B4
:104C400040002000200010001000080004000200B6
:104C50000000000000000000000000000000400014
:104C6000C0004000460C4E0FD001F0015E0F460C14
:104C70004000400040000000000000000000000074
:104C80000000000000000000000000000000000024
:104C900040004000400040004000FE0F4000400047
:104CA0004000400040000000000000000000000044
:104CB00000000000000000000000000000000000F4
:104CC00000000000000000000000000000000000E4
:104CD0000000000000000C001C0010001000080084
:104CE00004000000000000000000000000000000C0
:104CF00000000000000000000000FE0700000000AF
:104D000000000000000000000000000000000000A3
:104D10000000000000000000000000000000000093
:104D20000000000000000000000000000000000083
:104D30000000000000001C001C001C00000000001F
:104D40000000000000000004000600020003000153
:104D50000001800080004000400060002000200032
:104D600010001000080008000C00040006000200FB
:104D7000000000000000000000000000F0009801AA
:104D80000C030C03060606060606060606060606BD
:104D9000060606060C030C039801F0000000000054
:104DA00000000000000000000000000040007C0047
:104DB00060006000600060006000600060006000F3
:104DC00060006000600060006000FC030000000004
:104DD000000000000000000000000000F800840156
:104DE000020306030603000300018001C000600007
:104DF00020001000080204020602FE03000000006A
:104E00000000000000000000000000007800C60064
:104E10008601860180018001C000700080010001D0
:104E200000030003060306038601F80000000000EB
:104E30000000000000000000000000008001800170
:104E4000C001A001A00190018801880184018201B4
:104E5000FE0F8001800180018001E007000000005A
:104E6000000000000000000000000000FC0304003F
:104E70000400040004000400F4008C010403000397
:104E800000030603060382018401F800000000000D
:104E9000000000000000000000000000E001180316
:104EA0000C030C0004000600E60116030E060606BD
:104EB0000606060604060C021803F00000000000B7
:104EC000000000000000000000000000F8070C06D1
:104ED0000402040100010001800080004000400045
:104EE00040006000600060006000600000000000A2
:104EF000000000000000000000000000F8010C03AA
:104F00000606060606060C021C03F000C8010C0388
:104F100006060606060606060C03F0010000000061
:104F2000000000000000000000000000F0000C0184
:104F30000C03060206060606060606078C06780619
:104F40000006000300030C018C0178000000000043
:104F50000000000000000000000000000000000051
:104F6000000000000000E000E000E00000000000A1
:104F7000000000000000E000E000E0000000000091
:104F80000000000000000000000000000000000021
:104F90000000000000006000600000000000000051
:104FA00000000000000000006000600040002000E1
:104FB00020000000000000000000000400020001CA
:104FC00080004000200010000800040008001000CD
:104FD00020004000800000010002000400000000EA
:104FE00000000000000000000000000000000000C1
:104FF000000000000000FE07000000000000FE07A7
:1050000000000000000000000000000000000000A0
:105010000000000000000000000004000800100074
:105020002000400080000001000200040002000196
:105030008000400020001000080004000000000074
:10504000000000000000000000000000E00318065F
:10505000040C040C0C0C0C0C0007800140004000F8
:10506000400000000000E000E000E0000000000060
:1050700000000000000000000000E00018030C0227
:10508000CC0564056605A605B604B604B604B604E8
:10509000B602E4010C040C021803F000000000004A
:1050A0000000000000000000000000006000600040
:1050B0005000D00090009000880088010801F8019D
:1050C000040304030402020202060F0F00000000A2
:1050D000000000000000000000000000FE008C0343
:1050E0000C030C030C030C038C01FC000C030C02DE
:1050F0000C060C060C060C060C03FE01000000005A
:10510000000000000000000000000000E0031803A1
:105110000C060C0404040600060006000600060047
:10512000060006040C040C021803F0000000000046
:105130000000000000000000000000007F008C0163
:105140000C030C030C060C060C060C060C060C06D5
:105150000C060C060C030C038C017F000000000001
:10516000000000000000000000000000FF03060334
:1051700006040604060086008600FE0086008600FF
:1051800086000600060406040602FF030000000075
:10519000000000000000000000000000FF03060304
:1051A00006040604060086008600FE0086008600CF
:1051B000860006000600060006001F000000000032
:1051C000000000000000000000000000F0001801D6
:1051D0000C020C0204020600060006000600C60FC0
:1051E000060306030C030C031803F0000000000084
:1051F0000000000000000000000000000F0F060685
:1052000006060606060606060606FE070606060645
:10521000060606060606060606060F0F0000000034
:10522000000000000000000000000000FC0360001F
:10523000600060006000600060006000600060006E
:1052400060006000600060006000FC03000000007F
:10525000000000000000000000000000F807C0008F
:10526000C000C000C000C000C000C000C000C0003E
:10527000C000C000C000C000C000C000C600660082
:105280003C0000000000000000000000CF03860189
:10529000C60046002600160036002E006E004600AE
:1052A000C60086008601060106038F070000000085
:1052B0000000000000000000000000001F000600C9
:1052C00006000600060006000600060006000600AE
:1052D00006000600060406040602FF0300000000A4
:1052E0000000000000000000000000000707860327
:1052F00086038E038E034E034E034A035A035A035A
:105300003A0332033203320312038707000000001E
:105310000000000000000000000000008E0F0C02E2
:105320001C021C0234023402640264024402C402FD
:10533000840284038403040304031F0200000000AA
:10534000000000000000000000000000F0009801D4
:105350000C030C02060606060606060606060606E8
:10536000060606060C020C039801F000000000007F
:10537000000000000000000000000000FF00060325
:10538000060606060606060606068603FE00060054
:10539000060006000600060006001F0000000000D0
:1053A000000000000000000000000000F000980174
:1053B0000C030C0206060606060606060606060688
:1053C000060676064C02CC039801F0008007000325
:1053D000000000000000000000000000FF010603C4
:1053E00006060606060606060603FE004600C6007A
:1053F000860086010603060306060F0E0000000065
:10540000000000000000000000000000F8020C0393
:105410000602060206000E003C00F800E0038003CE
:1054200000070206020606060C03F0010000000059
:10543000000000000000000000000000FE07620401
:10544000610861086000600060006000600060004A
:1054500060006000600060006000F8010000000073
:105460000000000000000000000000001E070C0209
:105470000C020C020C020C020C020C020C020C02BC
:105480000C020C020C020C021801F00000000000DB
:105490000000000000000000000000000F070602EE
:1054A000040104010C010C01880088009800980098
:1054B000500050007000300020002000000000006C
:1054C000000000000000000000000000F70E620471
:1054D00042044604460464026402E402E4029C02BC
:1054E0009C01980198018801880088000000000054
:1054F0000000000000000000000000009E070C01FA
:10550000080118019000B0006000200060006000F9
:10551000D00090008801080104038E0700000000FD
:105520000000000000000000000000000F0F060453
:1055300004020C0208011801B800B00070006000FD
:1055400060006000600060006000F8010000000082
:10555000000000000000000000000000FC070C023A
:10556000060302018001800040004000200020006E
:105570001000180008040C040402FE0300000000E0
:10558000000000000000E0032000200020002000B8
:10559000200020002000200020002000200020000B
:1055A0002000200020002000200020002000E00338
:1055B00000000000000000000000040004000800DB
:1055C00008001000100010002000200040004000E3
:1055D000C000800080000001000100020002000203
:1055E0000004000000007C0040004000400040003B
:1055F00040004000400040004000400040004000AB
:1056000040004000400040004000400040007C005E
:105610000000000060009000080100000000000091
:10562000000000000000000000000000000000007A
:10563000000000000000000000000000000000006A
:10564000000000000000000000000000000000005A
:10565000000000000000000000000000000000004A
:10566000000000000000000000000000000000003A
:10567000FF0F0000000018006000000000000000A4
:10568000000000000000000000000000000000001A
:10569000000000000000000000000000000000000A
:1056A00000000000000000000000000000000000FA
:1056B000000000000000F0010C030C030003E003F5
:1056C0001C030E03060306038E0B7C0E0000000075
:1056D0000000000000000000000008000E000C00A8
:1056E0000C000C000C00CC013C031C060C060C0644
:1056F0000C060C060C060C021C03E4010000000062
:105700000000000000000000000000000000000099
:10571000000000000000F0008C018C0186010600F2
:105720000600060006020C020C01F000000000005A
:10573000000000000000000000000002C0030003A1
:1057400000030003000378038C030C030603060325
:1057500006030603060304038C077801000000001B
:105760000000000000000000000000000000000039
:10577000000000000000E001180308020C060C06FF
:10578000FC070C000C0018041802E00100000000E7
:10579000000000000000000000000000C0036006E0
:1057A000300630003000FE013000300030003000A4
:1057B00030003000300030003000FC0100000000FC
:1057C00000000000000000000000000000000000D9
:1057D000000000000000F007D8068C018C018C014D
:1057E0009801F8000C00FC00CC03060306038E03AE
:1057F000F800000000000000000008000E000C008F
:105800000C000C000C00EC011C030C030C030C033B
:105810000C030C030C030C030C039E070000000098
:1058200000000000000000000000000060006000B8
:105830000000000040007C0060006000600060002C
:1058400060006000600060006000FC030000000079
:10585000000000000000000000000000C001C001C6
:10586000000000000001F001800180018001800142
:105870008001800180018001800180018001CC00D5
:105880007C00000000000000000008000E000C007A
:105890000C000C000C008C038C008C004C006C0085
:1058A0005C008C008C010C010C039E0700000000C2
:1058B0000000000000000000000040007C006000CC
:1058C00060006000600060006000600060006000D8
:1058D00060006000600060006000FC0300000000E9
:1058E00000000000000000000000000000000000B8
:1058F0000000000000003707EE0666066606660632
:1059000066066606660666066606FF0F000000006D
:105910000000000000000000000000000000000087
:10592000000000000000EE011C030C030C030C033C
:105930000C030C030C030C030C039E070000000077
:105940000000000000000000000000000000000057
:10595000000000000000F00098010C030606060697
:105960000606060606060C030C03F0000000000005
:105970000000000000000000000000000000000027
:10598000000000000000EE011C030C060C060C06D3
:105990000C060C060C060C031C03EC010C000C009E
:1059A0003E000000000000000000000000000000B9
:1059B00000000000000078028C030C0306030603BD
:1059C00006030603060304038C03780300030003A5
:1059D000C007000000000000000000000000000000
:1059E0000000000000009F03580638061800180049
:1059F00018001800180018001800FF000000000030
:105A00000000000000000000000000000000000096
:105A1000000000000000F0031C030C020C02380020
:105A2000F000C003040304038C03FC010000000029
:105A30000000000000000000000000000000200046
:105A4000200030003000FE01300030003000300017
:105A500030003000300030023002E0010000000071
:105A60000000000000000000000000000000000036
:105A70000000000008028E030C030C030C030C034F
:105A80000C030C030C030C039C07780100000000BE
:105A90000000000000000000000000000000000006
:105AA0000000000000001E070C0208010801180198
:105AB0009000B000B0006000600020000000000016
:105AC00000000000000000000000000000000000D6
:105AD000000000000000F70E620446046402640245
