:020000040800F2
:1000000018040020E10000081D0400083103000866
:1000100000000000000000000000000000000000E0
:100020000000000000000000000000004D04000877
:1000300000000000000000001F0400084F0400083A
:10004000F3000008F3000008F3000008F3000008C4
:10005000F3000008F3000008F3000008F3000008B4
:1000600000000000F3000008F3000008F30000089F
:10007000F3000008F3000008F3000008000000008F
:10008000F3000008F300000800000000F30000087F
:10009000F3000008F3000008F3000008F300000874
:1000A000F3000008F3000008F3000008F300000864
:1000B000F300000800000000000000000000000045
:1000C000F300000800000000F30000080348854624
:1000D00000F0FEF800480047C11200081804002094
:1000E0000448804704480047FEE7FEE7FEE7FEE7D6
:1000F000FEE7FEE751040008CD000008D2B201E09F
:100100000270401C491EFBD270470022F6E710B572
:1001100013460A4604461946FFF7F0FF204610BD75
:10012000024670B54A40D30FDB0740002DD04A008D
:100130002AD0010E140E000212020919400A520AB6
:100140008418E50104465443000A120A2E04504361
:10015000A4194219200CC543AA18120C0125AD039D
:10016000521C521912047F39240400D0521C10432F
:1001700001D44000491EC2B20C06C0092018401C20
:100180004008802A02D003E0002070BD40084000F3
:10019000002900DA0020184370BD70B502464A40BD
:1001A000D50F40004A00ED0740085208002814D03F
:1001B000002A12D0C40DD30D41020120C005520205
:1001C000490A520AE41A091812187D34914201D3DF
:1001D000641C00E04900002C01DA002070BD0023FF
:1001E000914201D3891A0343400849000028F7D1FE
:1001F00000290AD0914202D10121C90705E09142AC
:1002000001D2012101E00121C943E005C0184019D4
:1002100000F01CF870BD10B500229623114600F0C6
:100220001DF810BD410040020122400AD205090E0E
:1002300080187F2901DA00207047962903DC962276
:10024000511AC8407047963988407047002904DA2F
:10025000401C490001D140084000704770B40024A0
:10026000050C05D11024000402D1002921D011244D
:10027000050E01D100020834050F01D10001241D33
:10028000850F01D18000A41C002801DB4000641C04
:10029000002908D020252E1B0D46F540A14000D096
:1002A00001212943084301061B1B000ADB1D02D55F
:1002B000002070BC7047DB05181880180029F8DA98
:1002C000401C4900F5D170BC400840007047000058
:1002D000064C0125064E05E0E36807CC2B430C3C99
:1002E00098471034B442F7D3FFF7F4FE701A0008B1
:1002F000901A000880B582B0014601A8017000780C
:100300000090012804D0FFE70098022806D00BE0F7
:10031000204844F2000100F037FF06E01D4848F293
:10032000000100F031FF00E0FFE702B080BDC046F1
:10033000FFE7FEE780B586B0154801F04DF8154897
:100340000190012105910022029244F200030093E2
:1003500000F02AFF0198029A059948F200030493DD
:1003600000F022FF009B019802990322039200F003
:1003700062FF01980299039A049B00F05CFF0598C4
:10038000FFF7B8FF0220FFF7B5FF06B080BDC046FB
:10039000130500000008004810B58EB01D4801F09C
:1003A0001BF81D4801F018F80920C0060190002133
:1003B0000491A022029200F087FE0198029B049A09
:1003C000022100F0F1FE0198029B0499032203929E
:1003D00000F031FF1C48069001F064F807A8059072
:1003E00001F060F9039B049A05990698089240F27F
:1003F0000414079440F2007409940C9340F2002313
:100400000A930D920B9201F0B1F8069801F01AF8D8
:100410000EB010BD110500000C06000070477047BB
:1004200080B582B001A90870FFE70748022101F0FA
:100430005DF808B9FFE7F8E701A80178024801F084
:100440000BF802B080BDC0460030014070477047D5
:1004500080B584B034490868012210430860FFE782
:10046000314800688007002801D4FFE7F8E7FFE77C
:100470002E49086880221043086000200390FFE79F
:1004800003987F2805D8FFE7FFE70398401C0390F7
:10049000F6E7264908689022104308600020039080
:1004A000FFE703987F2805D8FFE7FFE70398401C84
:1004B0000390F6E7FFE71D490868032290430860B0
:1004C000194A10681A4B184010600868194A104001
:1004D00008600868184A10400860184908680F2228
:1004E000904308601649086840F203129043086080
:1004F0000868012201921304984308600868D30732
:10050000984308600F490868904308600E4900202E
:100510000290086001F04EF901980299C00600F0BF
:1005200049FF04B080BDC0460010024004100240E4
:10053000FFFFF2FE0C00FF08FFFFC2772C10024005
:1005400030100240341002400810024010B588B04C
:1005500007AC0094208006A80290018005A80190B5
:10056000028004A8039003802A2000F0EDFC00988C
:10057000008800F0B9FC0198008800F0B5FC2B2041
:1005800000F0E2FC0298008800F0AEFC03980088BE
:1005900000F0AAFC2C2000F0D7FC08B010BDB0B5CC
:1005A00092B01D460B46169C11A9088010A8038026
:1005B0000FAB1A800EAA15800DAD2C800CAD002457
:1005C00001942C800BAD2C800A9409940894079414
:1005D000069405940494039402941B880C881B1BB6
:1005E000089312880388D21A079209880391008819
:1005F00002900898012803DBFFE7012005900DE039
:10060000089818B9FFE70020059006E00020C043D5
:100610000590089840420890FFE7FFE707980128F7
:1006200003DBFFE7012004900DE0079818B9FFE70E
:100630000020049006E00020C04304900798404248
:100640000790FFE7FFE708980799884203DDFFE777
:100650000898069002E007980690FFE70BA9002093
:100660000880FFE70BA800880699491C884249DAF0
:10067000FFE703A8008802A909880DAA128800F0E4
:1006800043F80CA928200880FFE70CA80088592807
:100690000EDCFFE70398401C0CA9098880B20022F9
:1006A00000F032F8FFE70C98401C0CA90880ECE73A
:1006B00008990A9840180A900799099840180990D3
:1006C0000A980699884209DDFFE706990A98401AB8
:1006D0000A900599039840180390FFE70998069936
:1006E000884209DDFFE706990998401A09900499A4
:1006F000029840180290FFE7FFE70B98401C0BA9F7
:100700000880AFE712B0B0BD80B584B00B4603A936
:10071000088002A8038001AB00931A800A8803882E
:1007200010461946FFF712FF0098008800F0DCFB26
:1007300004B080BDB0B588B014460D4601460C9A91
:1007400007A8018006A90D8005AD2C8004AC23808C
:1007500003AB1A8002AB009300221A8001AB1A800F
:1007600000880988059A521E049B5B1E92B29BB2B8
:10077000FFF7ECFE009906980880FFE702A80088C2
:1007800004A9098888421BDAFFE7079801A90880B5
:10079000FFE701A8008805A9098888420ADAFFE76F
:1007A00003A8008800F0A0FBFFE70198401C01A906
:1007B0000880EEE7FFE70298401C02A90880DDE709
:1007C00008B0B0BD80B584B00C4800F005FE964876
:1007D000029001210022019240F2E013039300F005
:1007E000E3FC01990298039B032200F024FD029888
:1007F000039900F0D1FC04B080BDC0461205000092
:1008000080B596B0FFF7DEFFFFF7C6FD8648029081
:100810002021019100F0B8FC6420039000F0B4FBAB
:100820000199029800F0B8FC039800F0ADFB029823
:1008300040F2001100F0B0FC039800F0A5FB11207D
:1008400000F082FB782000F09FFBB12000F07CFBE1
:100850000520159000F062FB3C20049000F05EFB48
:10086000049800F05BFBB22000F06EFB159800F0DE
:1008700055FB049800F052FB049800F04FFBB320A6
:1008800000F062FB159800F049FB049800F046FB6D
:10089000049800F043FB159800F040FB049800F02A
:1008A0003DFB049800F03AFBB42000F04DFB032020
:1008B0000A9000F033FBC020059000F045FB282093
:1008C000089000F02BFB082000F028FB0420129079
:1008D00000F024FBC12000F037FB059800F01EFB60
:1008E000C22000F031FB0D200B9000F017FB002020
:1008F000109000F013FBC32000F026FB8D20069023
:1009000000F00CFB2A20079000F008FBC42000F048
:100910001BFB069800F002FBEE2000F0FFFAC5205A
:1009200000F012FB1A2000F0F9FA362000F00CFB60
:10093000702000F0F3FAE02000F006FB129800F0BF
:10094000EDFA222000F0EAFA072000F0E7FA0A2088
:1009500000F0E4FA2E20099000F0E0FA302000F0D8
:10096000DDFA25200E9000F0D9FA079800F0D6FAAB
:10097000089800F0D3FA26200C9000F0CFFA0998DE
:1009800000F0CCFA3A20149000F0C8FA109800F069
:10099000C5FA0120119000F0C1FA0A9800F0BEFAE1
:1009A0001320139000F0BAFAE12000F0CDFA12986B
:1009B00000F0B4FA162000F0B1FA062000F0AEFA0A
:1009C0000B9800F0ABFA2D200F9000F0A7FA0C98CE
:1009D00000F0A4FA232000F0A1FA27200D9000F0E7
:1009E0009DFA0D9800F09AFA0E9800F097FA0F9879
:1009F00000F094FA3B2000F091FA109800F08EFA83
:100A0000119800F08BFA129800F088FA139800F011
:100A100085FA149800F098FA159800F07FFA2920CA
:100A200000F092FA16B080BD00040048F0B58BB01B
:100A300014460D46064612981199109A0AAF3E8048
:100A400009AE3580089407AC238006AB1A8005AA4E
:100A5000117004A90870FFE708980078D8B3FFE781
:100A600005A80078102813D1FFE70AA8008809A973
:100A70000988089A07AB1B8806AC248805AD2D7839
:100A800004AE367802960195009400F027F818E03D
:100A900005A80078182813D1FFE70AA8008809A93B
:100AA0000988089A07AB1B8806AC248805AD2D7809
:100AB00004AE367802960195009400F005F9FFE740
:100AC000FFE70898801C089005A801780A9840184C
:100AD0000AA90880C0E70BB0F0BD0000F0B595B0E2
:100AE00014460D4606461C991B9A1A9814AF3E8070
:100AF00013AE3580129411AC238010AB18800FA870
:100B000002700EAA11700DAA0021009111700CAA9A
:100B100011700BAA11700AAA0192118009AA0292FF
:100B2000118008AA03921180149907AA11800178F4
:100B30000491C80805904907401C069009B905981A
:100B4000069000980199029B039C049A069D6A43B3
:100B5000228005221A800880FFE70AA8008809A9D8
:100B60000988884200DBAAE00AA8008822214143C4
:100B70005448405C12990978884200D099E00AA84C
:100B80000088222141434F48401840781299497803
:100B9000884200D08DE014A8008813A909880FAA04
:100BA0001378C218521ECB185B1E92B29BB2FFF78D
:100BB000CDFC0DA900200870FFE70DA8007808A95A
:100BC0000988884274DAFFE70CA900200870FFE763
:100BD0000CA80078072865DCFFE70EA8007860BB4A
:100BE000FFE70AA8008822214143364840180DA992
:100BF0000978401880780CA90978C840C00728B146
:100C0000FFE711A8008800F06FF904E010A8008841
:100C100000F06AF9FFE70B98411C0BA801700078FF
:100C20000FA90978B0FBF1F25143401A20B9FFE750
:100C30000BA90020087035E02EE00AA800882221C8
:100C40004143204840180DA90978401880780CA924
:100C50000978C840C00748B1FFE714A8008813A965
:100C6000098811AA1288FFF74FFDFFE71498411C6D
:100C700014A80180008807A90988401A0FA90978DB
:100C8000884208D1FFE7079814A908801398401CF0
:100C900013A9088006E0FFE7FFE70C98401C0CA9A9
:100CA000087095E7FFE70D98401C0DA9087084E7D0
:100CB000FFE7FFE70A98401C0AA908804DE715B036
:100CC000F0BDC04651180008F0B595B014460D4669
:100CD00006461C991B9A1A9814AF3E8013AE3580B5
:100CE000129411AC238010AB18800FA802700EAACA
:100CF00011700DAA0021009111700CAA11700BAA9D
:100D000011700AAA0192118009AA0292118008AA00
:100D100003921180149907AA118001780491C808E0
:100D200005904907401C069009B90598069000985F
:100D30000199029B039C049A069D6A432280052226
:100D40001A800880FFE70AA8008809A90988884254
:100D500000DBAAE00AA800884A2141435448405CCD
:100D600012990978884200D099E00AA800884A219F
:100D700041434F484018407812994978884200D042
:100D80008DE014A8008813A909880FAA1378C21847
:100D9000521ECB185B1E92B29BB2FFF7D7FB0DA978
:100DA00000200870FFE70DA8007808A9098888428C
:100DB00074DAFFE70CA900200870FFE70CA80078A0
:100DC000072865DCFFE70EA8007860BBFFE70AA8EC
:100DD00000884A214143364840180DA90978401837
:100DE00080780CA90978C840C00728B1FFE711A88E
:100DF000008800F079F804E010A8008800F074F88A
:100E0000FFE70B98411C0BA8017000780FA9097827
:100E1000B0FBF1F25143401A20B9FFE70BA90020C3
:100E2000087035E02EE00AA800884A214143204896
:100E300040180DA90978401880780CA90978C84095
:100E4000C00748B1FFE714A8008813A9098811AAB0
:100E50001288FFF759FCFFE71498411C14A8018081
:100E6000008807A90988401A0FA90978884208D183
:100E7000FFE7079814A908801398401C13A908805D
:100E800006E0FFE7FFE70C98401C0CA9087095E707
:100E9000FFE70D98401C0DA9087084E7FFE7FFE706
:100EA0000A98401C0AA908804DE715B0F0BDC0465D
:100EB000FB18000880B584B0002103910091A022A6
:100EC00080230846FFF736FC039B02931020019015
:100ED00040F2E0700090034A28201946FFF7A6FD73
:100EE00004B080BD4618000880B584B003A9009105
:100EF0000880244801908021029100F045F9009873
:100F00004078FFF78DFA00980078FFF789FA01988A
:100F1000029900F041F904B080BDC04680B584B0AC
:100F200003A900910870174801908021029100F0F8
:100F30002BF900980078FFF773FA0198029900F0F6
:100F40002BF904B080BDC04680B586B005A90191DB
:100F500008700C4803904021029100F015F90398A5
:100F60008021049100F010F901980078FFF758FAF9
:100F70000299039800F010F90398049900F00CF915
:100F800006B080BD0004004880B584B0039003988B
:100F9000FFF741F918490968FFF7C2F8FFF742F96E
:100FA00016490860164900200860164901200860AB
:100FB000FFE7144800680290FFE7002002A90978C3
:100FC000C907019041B1FFE702A8807801210840DC
:100FD000414248410190FFE70198C0070028E8D14D
:100FE000FFE708490868012290430860044900208F
:100FF000086004B080BDC0460800002014E000E096
:1010000018E000E010E000E010B58CB002460BA83C
:1010100002700AAA118009A900220A8008A90A8080
:1010200007A90A8006A90A8000780A9A801A08800F
:101030002248007888B1FFE706A8018800200590C3
:1010400040F2E072FFF760FB05981D4908800699A1
:101050001C4A1180194908702EE019480088411C6B
:1010600007A8018000889F2816DCFFE7144803903A
:10107000008814490491098807AA128806AB1B88C6
:1010800040F2E0740094FFF78AFA039A04990798F3
:101090001080069808800EE006A8018800200290C3
:1010A00040F2E072FFF730FB02980549088006988D
:1010B00004490880FFE7FFE70CB010BD04000020E2
:1010C000100000201200002086B0059004910392C9
:1010D0000598006A01900598406A009002A90020D6
:1010E0000880FFE702A8008807281DD8FFE702A8AC
:1010F00001880398C840C00780B1FFE702A80188B3
:1011000089000F228A400199914301910499008836
:1011100080008140019808430190FFE7FFE70298B3
:10112000401C02A90880DDE702A908200880FFE72B
:1011300002A800880F281FD8FFE702A8018803989B
:10114000C840C00790B1FFE702A801888900203994
:101150000F228A40009991430091049900888000F1
:1011600020388140009808430090FFE7FFE702988D
:10117000401C02A90880DBE70198059908620098E5
:101180000599486206B0704782B0019000910098BE
:101190000199886202B0704782B001900091009876
:1011A0000199886102B0704787B00690059104925A
:1011B00003930698006801900698C068009002A901
:1011C00000200880FFE702A800880F282BD8FFE73F
:1011D00002A801880398C840C007F0B1FFE702A841
:1011E00001884900032213468B40019999430191DC
:1011F000059B018849008B400199194301910188A1
:1012000049008A4000999143009104990088400068
:101210008140009808430090FFE7FFE70298401CD8
:1012200002A90880CFE701980699086000980699FE
:10123000C86007B0704710B586B0059004A801706B
:10124000039202930078012806D1FFE7029A0599DC
:1012500048681043486005E0029A05994868904341
:101260004860FFE705988068009001A90020088089
:10127000FFE701A800880F281DD8FFE701A8018813
:101280000298C840C00780B1FFE701A80188490063
:1012900003228A40009991430091039900884000FD
:1012A0008140009808430090FFE7FFE70198401C49
:1012B00001A90880DDE700980599886006B010BD97
:1012C00080B5A0B000201F901EA908706846782144
:1012D000FEF71BFF00F088FAFFF72CF8FFF790FAF3
:1012E000FFF7E8FDFFE71EA900200870FFE71EA832
:1012F00000781D280BDCFFE71EA802786946002055
:101300008854FFE71E98401C1EA90870EFE71EA92D
:101310001E200870FFE71EA800783B280BDCFFE7C3
:101320001EA80278694621208854FFE71E98401CB9
:101330001EA90870EFE71EA93C200870FFE71EA851
:10134000007859280BDCFFE71EA8027869460020C8
:101350008854FFE71E98401C1EA90870EFE71EA9DD
:101360005A200870FFE71EA8007877280BDCFFE7FB
:101370001EA80278694621208854FFE71E98401C69
:101380001EA90870EFE71EA900200870FFE71EA83D
:10139000007877280DDCFFE71EA801786846415CDD
:1013A0005020FFF731FEFFE71E98401C1EA9087071
:1013B000EDE798E782B00190009101980099044A06
:1013C0001140084303490860BFF34F8F02B07047D4
:1013D00080FFFF1F08ED00E081B0014668460180F4
:1013E00000881F220146114001238B408109EC4AED
:1013F00088581843885001B07047C04681B00146F4
:101400006846018000881F220146114001238B405D
:101410008109E34A88589843885001B07047C04614
:1014200081B001466846018000881F2201461140B4
:1014300001238B408109DA4A88581843885001B04B
:101440007047C04681B00090009908684022104360
:10145000086001B07047000084B0039002A80180CA
:1014600003988F49884205D1FFE702A800880399B5
:10147000C86015E00398406841F200010840009000
:10148000009838B1FFE703980C3001900298019959
:10149000087004E002A800880399C860FFE7FFE72E
:1014A00004B0704780B584B00390039802902E4931
:1014B00088420ED0FFE702987949884211D1FFE7B0
:1014C00040F20C300190FFF7ABFF0198FFF796FF59
:1014D00008E005480090FFF7A3FF0098FFF78EFF94
:1014E00000E0FFE704B080BD0E04000083B001906F
:1014F0000091019880680099084204D0FFE702A992
:10150000012008702BE001981749884223D1FFE79A
:10151000009870B9FFE701988068C004800F20B17F
:10152000FFE702A90020087019E002A90120087055
:1015300015E0009870B9FFE7019880684005800FBA
:1015400020B1FFE702A90020087008E002A90120ED
:10155000087004E0FFE702A900200870FFE702A876
:10156000007803B07047C0460038004086B0049051
:10157000039100200290019000900498006802906E
:10158000029843F2400108400290049800680190DC
:10159000019843F64001084001900498406800908B
:1015A00000983E490840009004983D4988423DD14A
:1015B000FFE7039801680298084302900398416886
:1015C0000298084302900398C16802980843029069
:1015D00003980169029808430290039841690298B0
:1015E0000843029003988169029808430290039887
:1015F000806840F2007188420BD0FFE70398806852
:1016000040F60071884204D0FFE705A90020087069
:1016100040E00398816840F60000014002980843CA
:101620000290FFE702980499086029E00398016896
:10163000019808430190039841680198084301907C
:101640000398C168019808430190039801690198C3
:101650000843019003984169019808430190039859
:1016600081690198084301900198049908600398E2
:101670008168009808430090009804994860FFE74B
:101680000499C86940F600029043C86105A9012089
:101690000870FFE705A8007806B07047FFF000006B
:1016A0000030014081B0009000990020086000994E
:1016B0004860009A40F2007191600099C8600099FA
:1016C0000861009948610099886101B07047000085
:1016D00084B000200390029031490868012212046E
:1016E00010430860FFE70398401C03902C480068F3
:1016F0000121490408400290FFE70299002001906F
:1017000039B9FFE703982749401A411E88410190E3
:10171000FFE70198C0070028E5D1FFE720480068EF
:101720008003002802D4FFE7FFE7FEE71E490868B0
:10173000022210430522904308601C49009108686A
:10174000086008680860086808600868184A10405F
:10175000086008681D2212041043086010490868D8
:101760000122120610430860FFE70D48006880015F
:10177000002801D4FFE7F8E70C49086803229043EA
:1017800008600868022210430860FFE70748006805
:101790000C210840082801D0FFE7F7E704B07047A4
:1017A00000100240FFFF0000002002400410024031
:1017B000FFFFC27780B5FFF78BFF80BD81B000903F
:1017C0000098042806D1FFE7064908680422104360
:1017D000086005E003490868042290430860FFE7B9
:1017E00001B0704710E000E080B50420C043FFF76F
:1017F000E5FF08480068FEF70EFD0749FEF7CDFC3F
:1018000001460648016000680549FEF789FC054964
:10181000086080BD000000200024F44A0C00002075
:1018200000007A440800002002E008C8121F08C126
:10183000002AFAD170477047002001E001C1121F51
:10184000002AFBD17047BCF2D2D7CABEB2A8C6F7F5
:1018500000BCF20402FC7E1209A1100800D01F0493
:1018600010E41324122412E41324122412E41304A7
:10187000100418D2D7F00F10081008F00F1008103D
:1018800008F00F20001000F83F44224222202110CF
:101890002188144008CABE0000FC1F0000000000A0
:1018A000000000FF7F80008000880888108420826C
:1018B000408140A0004000B2A8000404040804C80D
:1018C0007F414442245204D03F48214811471244EA
:1018D0000A4404240A24119060C6F700007C3E44A8
:1018E0002244227C3E80048008FF7F400130060CA9
:1018F0001803607C3E442244227C3EBCF20000007F
:1019000020400060C000206000F0EF3F98300108E8
:101910001102240902C0FE1F80000830000810FEDA
:1019200008104208104208104208107E08104208B1
:10193000104208107E08104208100008108009109C
:10194000000E100004D2D7000000000000C0FF030A
:10195000C00002C00002C00002C0FF03C00002C0FD
:101960000002C0FF03C0030280010080FF1FC08C83
:101970001820C40810460808630880210840300C6D
:10198000301804004604808107600001000000CA8E
:10199000BE000000000000000004F0FF0F00000087
:1019A000000000000000000000000020FEFF3F00DB
:1019B0001800001800809800C01801C018026018B4
:1019C0000430180C101818081830041810821F0062
:1019D000000E00000400000000B2A800000000C0DB
:1019E0000010800030800020800000FF3F00831046
:1019F0008682088C820048820048820040FE1F20B8
:101A000012082012041022041022021C4303188121
:101A10000118C101986006D8100C580C78200300FA
:101A2000000000C6F7000000000000F0E30F306681
:101A30000C30660C30660C30660CF0E70F30FE0D93
:101A4000100C13FCFF3F0042000081008000016089
:101A5000000EF0E73F2C260C20260C20260C20261A
:101A60000CE0E70F20260C1022040000000000000C
:101A7000901A000800000020080000002818000844
:101A8000981A000808000020100400003818000808
:081A900000A24A04010000005D
:04000005080000CD22
:00000001FF
