:020000040800F2
:1000000018050020E1000008D5050008A903000834
:1000100000000000000000000000000000000000E0
:100020000000000000000000000000001B060008A7
:100030000000000000000000190600081D0600086E
:10004000F3000008F3000008F3000008F3000008C4
:10005000F3000008F3000008F3000008E5020008C0
:1000600000000000F3000008F3000008F30000089F
:10007000F3000008F3000008F3000008000000008F
:10008000F3000008F300000800000000F30000087F
:10009000F3000008F3000008F3000008F300000874
:1000A000F3000008F3000008F30000081D07000833
:1000B000F300000800000000000000000000000045
:1000C000F300000800000000F30000080348854624
:1000D00000F0D8F8004800478B0D000818050020F4
:1000E0000448804704480047FEE7FEE7FEE7FEE7D6
:1000F000FEE7FEE721060008CD000008024670B5C5
:100100004A40D30FDB0740002DD04A002AD0010E11
:10011000140E000212020919400A520A8418E5015D
:1001200004465443000A120A2E045043A4194219EB
:10013000200CC543AA18120C0125AD03521C5219FC
:1001400012047F39240400D0521C104301D4400013
:10015000491EC2B20C06C0092018401C4008802A63
:1001600002D003E0002070BD40084000002900DA02
:100170000020184370BD70B502464A40D50F4000BC
:100180004A00ED0740085208002814D0002A12D077
:10019000C40DD30D41020120C0055202490A520A82
:1001A000E41A091812187D34914201D3641C00E04E
:1001B0004900002C01DA002070BD0023914201D3D8
:1001C000891A0343400849000028F7D100290AD0C2
:1001D000914202D10121C90705E0914201D20121DA
:1001E00001E00121C943E005C018401900F008F8FA
:1001F00070BD10B500229623114600F009F810BD1D
:10020000002904DA401C490001D140084000704731
:1002100070B40024050C05D11024000402D100297B
:1002200021D01124050E01D100020834050F01D19F
:100230000001241D850F01D18000A41C002801DBD2
:100240004000641C002908D020252E1B0D46F540D7
:10025000A14000D001212943084301061B1B000ACD
:10026000DB1D02D5002070BC7047DB051818801814
:100270000029F8DA401C4900F5D170BC4008400064
:1002800070470000064C0125064E05E0E36807CCE8
:100290002B430C3C98471034B442F7D3FFF71AFFB6
:1002A000A8160008C816000880B582B0014601A84B
:1002B000017000780090012804D0FFE70098022820
:1002C00006D00BE0D34844F2000100F0B5FC06E094
:1002D000D04848F2000100F0AFFC00E0FFE702B0B8
:1002E00080BDC04680B5102000F028FC002856D004
:1002F000FFE74F48102100F0A7FCB8B9FFE72848F6
:10030000007898B9FFE726490878401C087025490D
:10031000002008704648082100F096FC012804D10E
:10032000FFE7204901200870FFE734E04048102132
:1003300000F08AFC01282DD1FFE719480078012838
:1003400028D1FFE7164900200870164800780128D8
:100350000DD1FFE73648082100F076FC38B9FFE7F9
:10036000012000F039F90220FFF79EFFFFE70D485A
:10037000007870B9FFE72E48082100F065FC0128DD
:1003800007D1FFE7022000F027F90120FFF78CFFDB
:10039000FFE7FFE7FFE7102000F0C8FBFFE780BDA5
:1003A0000800002009000020FFE7FEE780B584B0C8
:1003B0001E4800F0A7FE40F2006000F0A3FE1C48BB
:1003C00000210291012201921023039300F051FCBD
:1003D0000199072000F0F1FC0198042100F0C8FE0B
:1003E00002990398022200F027FB039800F092FB89
:1003F000039800F09BFB04B080BDC04680B50B485D
:1004000000F080FE0A480021012240F2082300F09B
:1004100030FC80BD80B5054800F074FE0448002122
:1004200001224EF2000300F024FC80BD1205000002
:100430000004004880B586B0154800F063FE75489A
:100440000190012105910022029244F200030093E1
:1004500000F00FFC0198029A059948F200030493FA
:1004600000F007FC009B019802990322039200F020
:1004700047FC01980299039A049B00F041FC0598FF
:10048000FFF712FF0220FFF70FFF06B080BDC04646
:100490001305000080B58AB00990334800F032FEA1
:1004A000324800F02FFE0920C0060490012105917A
:1004B00040F20022029200F057FB0498059940F2A6
:1004C0000042069200F050FB029B0498059A02211C
:1004D000039100F0CEFB029B0498059A002107913E
:1004E00000F00EFC03990498059A069B00F0C1FBEE
:1004F0000498059A069B079900F002FC9B48089017
:1005000000F094FF0799089801F0A9F80799089856
:1005100001F081F80799089801F059F808980999AD
:1005200000F02CFF0898042101F066F808980821D3
:1005300001F086F80898402100F0A2FF089800F02A
:10054000AEFFFFE789480A4900F0C1FF08B9FFE79D
:10055000F8E786480190064900F0AAFF01980421B7
:1005600000F0D3FF0AB080BD110500000E060000A8
:100570000407000080B58AB01B200021019100F023
:100580001CFC40F2005000F0BDFD0220029000F083
:100590007BF9019A029803A98A760C4B05930123F3
:1005A0004B76069240F200130793094B03930A76A9
:1005B000049243F20002089200F094F9029800F0CD
:1005C00055F9029800F044F90AB080BD16000020E9
:1005D000243801407047000080B582B0014601A870
:1005E000017000780090012804D0FFE700980228ED
:1005F00006D00BE0074844F2000100F015FB06E0CE
:10060000044848F2000100F00FFB00E0FFE702B0F1
:1006100080BDC04600080048704770477047000022
:1006200080B584B034490868012210430860FFE7B0
:10063000314800688007002801D4FFE7F8E7FFE7AA
:100640002E49086880221043086000200390FFE7CD
:1006500003987F2805D8FFE7FFE70398401C039025
:10066000F6E72649086890221043086000200390AE
:10067000FFE703987F2805D8FFE7FFE70398401CB2
:100680000390F6E7FFE71D490868032290430860DE
:10069000194A10681A4B184010600868194A10402F
:1006A00008600868184A10400860184908680F2256
:1006B000904308601649086840F2031290430860AE
:1006C0000868012201921304984308600868D30760
:1006D000984308600F490868904308600E4900205D
:1006E0000290086000F010FE01980299C00600F028
:1006F0007BFB04B080BDC0460010024004100240E5
:10070000FFFFF2FE0C00FF08FFFFC2772C10024033
:1007100030100240341002400810024080B582B010
:100720001248134900F022FFE8B1FFE70F481049D3
:1007300000F0FCFE0220019000F070F902460198E2
:1007400040F200110091891A0A4A11700A4A0121E7
:10075000117000F06FF80099019800F04FF90198BE
:1007600000F076F8FFE702B080BDC04600380140D7
:1007700004000407150000201400002081B0014689
:10078000684601700021405600280DD4FFE7002183
:10079000684641561F200A46024001209040490900
:1007A0008900024A8850FFE701B0704700E100E08D
:1007B00070B582B0024601A8027000910021405637
:1007C000002816D4FFE7002401A908570322D343C9
:1007D0001840174A805809578C07E50EFF24AC4093
:1007E000A043009CA401E4B2AC40204319408850CF
:1007F0001AE001A908780F24204008380322D343C7
:1008000018400A4A8058002549578D07EE0EFF25EB
:10081000B540A843009DAD01EDB2B540284321404D
:10082000083919408850FFE702B070BD1CED00E0A8
:1008300000E400E081B001466846017000781421B0
:1008400041436D4A885801239843885001B070474E
:1008500081B0014668460170007814214143664A20
:10086000885801231843885001B0704781B0014671
:10087000684601700078142141435F4A885820235C
:100880009843885001B07047B0B581B001466846C2
:1008900001700178142213464B43574C1959012516
:1008A000A9431951017813464B430021195104788B
:1008B000134663435F4C19510478134663434C4C11
:1008C000195103785A434B4BD150007880000F22C6
:1008D0008240034908681043086001B0B0BDC046BB
:1008E00004000240B0B584B0024603A80090027034
:1008F00002910078FFF79EFF009B029800681C7829
:1009000014210A4662433A4C1051029880681C78C0
:100910000A466243374C10510298008A1C780A46F6
:100920006243444C10511A7808465043324A80586A
:100930000190019843F60074A04301900298446826
:10094000C5682C43406904430198204301900198F5
:100950001B78594388500298007E01280AD1FFE78E
:1009600003A8007814214143234A885840231843A0
:10097000885009E003A80078142141431E4A885892
:10098000402398438850FFE70298407E01280AD10F
:10099000FFE703A8007814214143174A88588023B1
:1009A0001843885009E003A8007814214143124AF3
:1009B0008858802398438850FFE70298807E50B97A
:1009C000FFE703A80078142141430B4A88581023FD
:1009D0009843885009E003A8007814214143064A4F
:1009E0008858102318438850FFE704B0B0BDC046B4
:1009F00010000240140002400800024083B0009141
:100A00000246009802A90A70019001A800880A789D
:100A100014215143074A885003B0704781B0014602
:100A2000684601700178142048430249405801B0DB
:100A30007047C0460C00024085B0049003A80170C6
:100A400002A90A70049B384A116899431160049BFB
:100A50002D4A116899431160049B2C4A11689943EF
:100A60001160049B2A4A1168994311600078019033
:100A700020B1FFE70198012806D00BE0049A2A492B
:100A800008681043086006E0049A1F49086810438C
:100A9000086000E0FFE702A80078009003282FD844
:100AA00000998A0001A080188746C04600F006B869
:100AB00000F00FB800F018B800F021B8049A1349FC
:100AC000086810430860049A114908689043086058
:100AD00017E0049A0D49086890430860049A0C498D
:100AE0000868104308600CE0049A0849086810433D
:100AF0000860049A064908681043086001E0FFE7AF
:100B0000FFE705B07047C0460404014008040140F7
:100B10000C04014081B00090009A0349086810431A
:100B2000086001B07047C0460004014081B00090E9
:100B300000980C49086001B07047C04682B0009030
:100B4000084800680099084204D0FFE701A9012085
:100B5000087003E001A900200870FFE701A80078F1
:100B600002B070471404014086B0059004910392CE
:100B70000598006A01900598406A009002A900203B
:100B80000880FFE702A8008807281DD8FFE702A811
:100B900001880398C840C00780B1FFE702A8018818
:100BA00089000F228A40019991430191049900889C
:100BB00080008140019808430190FFE7FFE7029819
:100BC000401C02A90880DDE702A908200880FFE791
:100BD00002A800880F281FD8FFE702A80188039801
:100BE000C840C00790B1FFE702A8018889002039FA
:100BF0000F228A4000999143009104990088800057
:100C000020388140009808430090FFE7FFE70298F2
:100C1000401C02A90880DBE701980599086200984A
:100C20000599486206B0704782B001900091009823
:100C30000199886202B0704782B0019000910098DB
:100C40000199886102B0704783B0019000910198CA
:100C500000690099084204D0FFE702A9012008704A
:100C600003E002A900200870FFE702A8007803B0A3
:100C7000704787B006900591049203930698006828
:100C800001900698C068009002A900200880FFE744
:100C900002A800880F282BD8FFE702A80188039834
:100CA000C840C007F0B1FFE702A80188490003224D
:100CB00013468B40019999430191059B0188490096
:100CC0008B40019919430191018849008A4000999C
:100CD00091430091049900884000814000980843A6
:100CE0000090FFE7FFE70298401C02A90880CFE7C9
:100CF00001980699086000980699C86007B0704787
:100D000010B586B0059004A8017003920293007894
:100D1000012806D1FFE7029A059948681043486008
:100D200005E0029A0599486890434860FFE70598F6
:100D30008068009001A900200880FFE701A80088D2
:100D40000F281DD8FFE701A801880298C840C007F6
:100D500080B1FFE701A80188490003228A40009979
:100D60009143009103990088400081400098084316
:100D70000090FFE7FFE70198401C01A90880DDE72C
:100D800000980599886006B010BD80B582B000203B
:100D900001906946087000F0D1FAFFF74BFBFFF7AE
:100DA00039FBE1204002FFF775FBFFF7E3FBFFF79C
:100DB00025FBFFF7FBFAFFE7FEE780B584B00A46A4
:100DC000014603A80190017002A90A700022009256
:100DD00080560978FFF7ECFC009901984056FFF720
:100DE000CDFC04B080BD000082B00190009101985C
:100DF0000099044A1140084303490860BFF34F8F2C
:100E000002B0704780FFFF1F08ED00E09DB01CA9F5
:100E10000870002002901B901A901990189017905B
:100E200016901590149013901290119010900F90AE
:100E30000E900D900C90AA490B91AA490A91099025
:100E400008900791069005910490A74800680C212E
:100E5000084080081B901B98039040B1FFE703985F
:100E6000012807D0FFE70398022806D044E0A148F4
:100E7000179044E09F48179041E09B4801680F227B
:100E800092041140890C119100680121C9060840A3
:100E9000C00E10901098012804D1FFE7119811306E
:100EA00011900BE011980F2803D1FFE7102011904B
:100EB00003E01198801C1190FFE7FFE78A48006863
:100EC000012109040840000C0F900F9870B1FFE752
:100ED000874800680F210840401C0E900E998548F5
:100EE000B0FBF1F111984843179004E011997F4845
:100EF00048431790FFE702E07E481790FFE77A48E3
:100F00000168C9B209090D910D9A08A9895C0C9173
:100F100017990C9AD1401691016840F20072114065
:100F2000090A0D910D9A06A9895C0C9116990C9AE3
:100F3000D1401591006843F600010840C00A0D90A9
:100F40000D9904A8405C0C9016980C99C840149018
:100F50001CA800780190052800D9BCE001998A00FE
:100F600001A080188746C04600F00AB800F00BB810
:100F700000F00CB800F00DB800F00EB800F07DB82D
:100F800017981890A8E016981890A5E01598189052
:100F9000A2E0149818909FE05748006840F20011B2
:100FA000084088420FD0FFE7534800680121090438
:100FB0000840884203D0FFE75148139002E04F48B1
:100FC0001390FFE756E0CE48006880B2800B1A907D
:100FD00049480068C00F19901A980090032847D814
:100FE00000998A0001A080188746C04600F006B824
:100FF00000F012B800F01EB800F02CB8199820B913
:10100000FFE714984008139005E016980321B0FB01
:10101000F1F01390FFE72CE0199820B9FFE714983E
:101020008008139005E016980521B0FBF1F01390AD
:10103000FFE71EE0199830B9FFE714980621B0FBCE
:10104000F1F0139005E016980721B0FBF1F0139032
:10105000FFE70EE0199820B9FFE71498C008139035
:1010600005E016980921B0FBF1F01390FFE700E0CE
:10107000FFE7FFE7139818902EE01F4800688007ED
:1010800018B9FFE71498129022E01B48006803216A
:101090000840012803D1FFE71798129017E016487F
:1010A000006803210840022804D1FFE748F200004D
:1010B00012900BE01048006803210840032803D178
:1010C000FFE70C48129000E0FFE7FFE7FFE7FFE7CC
:1010D0001298189000E0FFE718981DB07047C046BE
:1010E00006070809010203040410024000093D003C
:1010F0002C10024000127A0030100240003FAB0179
:10110000809FD50081B001466846018000881F227B
:101110000146114001238B408109764A88581843C3
:10112000885001B07047C04681B0014668460180D2
:1011300000881F220146114001238B4081096D4A1E
:1011400088589843885001B07047C04681B0014626
:101150006846018000881F220146114001238B4010
:101160008109644A88581843885001B07047C046C6
:1011700085B00A4604A9087003A802700278920795
:10118000130F0F229A40D2430292097802789207F5
:10119000120F91400191007880080090032835D803
:1011A00000998A0001A080188746C04600F006B862
:1011B00000F00EB800F016B800F01EB8029A1849F8
:1011C000086810400860019A0868104308601EE033
:1011D000029A1249086810400860019A0868104392
:1011E000086014E0029A0C49086810400860019AEF
:1011F0000868104308600AE0029A0649086810402F
:101200000860019A08681043086000E0FFE705B035
:101210007047C04614000140100001400C0001401E
:101220000800014084B00020039002903149086812
:101230000122120410430860FFE70398401C03904A
:101240002C4800680121490408400290FFE70299F8
:101250000020019039B9FFE703982749401A411E41
:1012600088410190FFE70198C0070028E5D1FFE71A
:10127000204800688003002802D4FFE7FFE7FEE76C
:101280001E490868022210430522904308601C4949
:1012900000910868086008680860086808600868C5
:1012A000184A1040086008681D22120410430860A4
:1012B000104908680122120610430860FFE70D4834
:1012C00000688001002801D4FFE7F8E70C490868AE
:1012D0000322904308600868022210430860FFE779
:1012E000074800680C210840082801D0FFE7F7E70D
:1012F00004B0704700100240FFFF000000200240D1
:1013000004100240FFFFC27780B5FFF78BFF80BD5E
:1013100081B000900098042806D1FFE706490868CC
:1013200004221043086005E0034908680422904342
:101330000860FFE701B0704710E000E080B50420CE
:10134000C043FFF7E5FF08480068FEF752FF074972
:10135000FEF711FF01460648016000680549FEF7E7
:10136000CDFE0549086080BD000000200024F44A3D
:101370001000002000007A440C00002080B588B0E6
:101380000790069100200590049003900290079822
:101390000190374988420AD0FFE7019835498842D1
:1013A0000AD1FFE70520FFF731FD059005E0022097
:1013B000FFF72CFD059000E0FFE7079800680004A8
:1013C000002818D5FFE70598400006994A088018BC
:1013D000B0FBF1F002900298134908400490029883
:1013E0000007400F039004A8008803A90988084358
:1013F0000799C86016E0059806994A088018B0FB5E
:10140000F1F00290029808490840049002980F21D8
:101410000840039004A8008803A909880843079995
:10142000C860FFE708B080BDF0FF000080B584B061
:101430000390039802900E4988420DD0FFE702986E
:101440000C49884210D1FFE70C480190FFF77EFE5F
:101450000198FFF769FE08E007480090FFF776FE65
:101460000098FFF761FE00E0FFE704B080BDC046D2
:101470000044004000380140110400000E03000049
:1014800082B0019000910199886840229043886061
:10149000009A019988681043886002B0704781B053
:1014A00000900099086801221043086001B070475D
:1014B00082B001906846018000881F210840012207
:1014C00082400199086A1043086202B0704784B0F4
:1014D000009101460098029101A9088002980A88AB
:1014E0009209805809881F221140C840C00720B1C6
:1014F000FFE703A90120087003E003A9002008709A
:10150000FFE703A8007804B0704782B001906846F6
:10151000018000881F220146114001238B40019960
:10152000820988581843885002B0704782B00190F1
:10153000009100980C49884208D1FFE70199D02218
:10154000885848F20003984388500BE000981F2108
:1015500009040840000C012282400199086A1043E6
:101560000862FFE702B0704709340F3410B585B048
:1015700003900291002001900090039802A909882D
:1015800089094058029C1F231C4001210A46A240A1
:10159000104001900398029A920D8058029A1B0401
:1015A0001A40120C914008400090009838B1FFE7B3
:1015B000019820B1FFE704A90120087003E004A905
:1015C00000200870FFE704A8007805B010BD82B0C5
:1015D00001900091019908680122904308600199E7
:1015E000086840F2006290430860009A0199086818
:1015F0001043086002B0704782B0019000910199D9
:101600000868042290430860009A01990868104312
:10161000086002B0704782B001900091019908689B
:101620000122904308600199486843F20002904308
:101630004860009A019948681043486002B07047BA
:1016400082B00190009101990868082290430860D7
:10165000009A019908681043086002B0704782B090
:101660000190009101990868012290430860019956
:10167000086841F2000290430860009A01990868E6
:101680001043086002B0704702E008C8121F08C18A
:10169000002AFAD170477047002001E001C1121FF3
:1016A000002AFBD170470000C81600080000002087
:1016B0000800000088160008D01600080800002066
:1016C000100500009816000800A24A04000000005F
:04000005080000CD22
:00000001FF
