:020000040800F2
:1000000018040020E1000008D9030008E5020008F8
:1000100000000000000000000000000000000000E0
:100020000000000000000000000000001F040008A5
:1000300000000000000000001D040008210400086A
:10004000F3000008F3000008F3000008F3000008C4
:10005000F3000008F3000008F3000008F3000008B4
:1000600000000000F3000008F3000008F30000089F
:10007000F3000008F3000008F3000008000000008F
:10008000F3000008F300000800000000F30000087F
:10009000F30000081D050008F3000008F300000845
:1000A000F3000008F3000008F3000008F300000864
:1000B000F300000800000000000000000000000045
:1000C000F300000800000000F30000080348854624
:1000D00000F0D8F800480047650700081804002021
:1000E0000448804704480047FEE7FEE7FEE7FEE7D6
:1000F000FEE7FEE725040008CD000008024670B5C3
:100100004A40D30FDB0740002DD04A002AD0010E11
:10011000140E000212020919400A520A8418E5015D
:1001200004465443000A120A2E045043A4194219EB
:10013000200CC543AA18120C0125AD03521C5219FC
:1001400012047F39240400D0521C104301D4400013
:10015000491EC2B20C06C0092018401C4008802A63
:1001600002D003E0002070BD40084000002900DA02
:100170000020184370BD70B502464A40D50F4000BC
:100180004A00ED0740085208002814D0002A12D077
:10019000C40DD30D41020120C0055202490A520A82
:1001A000E41A091812187D34914201D3641C00E04E
:1001B0004900002C01DA002070BD0023914201D3D8
:1001C000891A0343400849000028F7D100290AD0C2
:1001D000914202D10121C90705E0914201D20121DA
:1001E00001E00121C943E005C018401900F008F8FA
:1001F00070BD10B500229623114600F009F810BD1D
:10020000002904DA401C490001D140084000704731
:1002100070B40024050C05D11024000402D100297B
:1002200021D01124050E01D100020834050F01D19F
:100230000001241D850F01D18000A41C002801DBD2
:100240004000641C002908D020252E1B0D46F540D7
:10025000A14000D001212943084301061B1B000ACD
:10026000DB1D02D5002070BC7047DB051818801814
:100270000029F8DA401C4900F5D170BC4008400064
:1002800070470000064C0125064E05E0E36807CCE8
:100290002B430C3C98471034B442F7D3FFF71AFFB6
:1002A000700C0008900C000880B582B0014601A8CF
:1002B000017000780090012804D0FFE70098022820
:1002C00006D00BE0544844F2000100F0B7F906E014
:1002D000514848F2000100F0B1F900E0FFE702B038
:1002E00080BDC046FFE7FEE780B58AB00990184898
:1002F00000F074FA9D48049000F056FB0498012227
:100300000392114600F078FC05A8019000F08CFCE7
:10031000019904980F4A0A80002202924A808A803A
:10032000099B0793CA800A7300F0B8FB03990498ED
:1003300000F03CFC0299152000F028FA039904987B
:1003400000F02AFC049800F09FFB0AB080BDC04674
:10035000110600001F1C000080B5054800F03EFAA1
:100360000448002101224EF2000300F06FF980BD25
:10037000120500000004004880B586B0154800F062
:100380002DFA25480190012105910022029244F2A4
:100390000003009300F05AF90198029A059948F277
:1003A0000003049300F052F9009B01980299032284
:1003B000039200F092F901980299039A049B00F0CD
:1003C0008CF90598FFF770FF0220FFF76DFF06B06C
:1003D00080BDC046130500007047000080B582B0A4
:1003E000014601A8017000780090012804D0FFE7C1
:1003F0000098022806D00BE0074844F2000100F004
:1004000015F906E0044848F2000100F00FF900E099
:10041000FFE702B080BDC046000800487047704743
:100420007047000080B584B0F54908680122104388
:100430000860FFE7FC4800688007002801D4FFE758
:10044000F8E7FFE72D490868802210430860002084
:100450000390FFE703987F2805D8FFE7FFE703989D
:10046000401C0390F6E72549086890221043086075
:1004700000200390FFE703987F2805D8FFE7FFE7F8
:100480000398401C0390F6E7FFE71C490868032225
:1004900090430860EE4A1068194B184010600868D5
:1004A000184A104008600868174A10400860174949
:1004B00008680F22904308601549086840F203124B
:1004C0009043086008680122019213049843086071
:1004D0000868D307984308600E490868904308608D
:1004E0000D4900200290086000F024FA019802995A
:1004F000C00600F061F904B080BDC046041002409F
:10050000FFFFF2FE0C00FF08FFFFC2772C10024035
:1005100030100240341002400810024080B51348E9
:10052000012100F04CFB01281FD1FFE710480078A3
:10053000012807D1FFE70120FFF750FF0220FFF756
:100540004DFF09E00A49002008700120FFF7ACFECA
:100550000220FFF7A9FEFFE705490878401C087054
:100560000248012100F022FBFFE780BD004401406A
:100570000800002081B00146684601700021405605
:1005800000280DD4FFE70021684641561F200A4687
:1005900002400120904049098900024A8850FFE743
:1005A00001B0704700E100E070B582B0024601A8DA
:1005B0000270009100214056002816D4FFE7002465
:1005C00001A908570322D3431840174A80580957F6
:1005D0008C07E50EFF24AC40A043009CA401E4B2CC
:1005E000AC402043194088501AE001A908780F2434
:1005F000204008380322D34318400A4A8058002577
:1006000049578D07EE0EFF25B540A843009DAD016B
:10061000EDB2B54028432140083919408850FFE722
:1006200002B070BD1CED00E000E400E082B001907B
:10063000009100980199886202B0704782B00190E1
:10064000009100980199886102B0704787B00690C8
:100650000591049203930698006801900698C0687B
:10066000009002A900200880FFE702A800880F2858
:100670002BD8FFE702A801880398C840C007F0B153
:10068000FFE702A801884900032213468B40019925
:1006900099430191059B018849008B4001991943B9
:1006A0000191018849008A40009991430091049981
:1006B000008840008140009808430090FFE7FFE772
:1006C0000298401C02A90880CFE7019806990860AB
:1006D00000980699C86007B0704710B586B00590BD
:1006E00004A80170039202930078012806D1FFE765
:1006F000029A059948681043486005E0029A0599F6
:10070000486890434860FFE705988068009001A919
:1007100000200880FFE701A800880F281DD8FFE708
:1007200001A801880298C840C00780B1FFE701A86E
:100730000188490003228A4000999143009103995E
:10074000008840008140009808430090FFE7FFE7E1
:100750000198401C01A90880DDE700980599886090
:1007600006B010BD80B582B00020019069460870C7
:1007700000F0FAF8FFF700FEFFF7EEFD0248FFF782
:10078000B3FDFFE7FEE7C0468713000080B584B0E5
:100790000A46014603A80190017002A90A700022CE
:1007A000009280560978FFF7FFFE009901984056A5
:1007B000FFF7E0FE04B080BD82B001900091019887
:1007C0000099044A1140084303490860BFF34F8F62
:1007D00002B0704780FFFF1F08ED00E081B00146C6
:1007E0006846018000881F220146114001238B408A
:1007F00081094C4A88581843885001B07047C04658
:100800000010024081B001466846018000881F2226
:100810000146114001238B408109424A8858984380
:10082000885001B07047C0460010024081B00146B8
:100830006846018000881F220146114001238B4039
:100840008109384A88581843885001B07047C0461B
:100850000010024084B000200390029031490868E3
:100860000122120410430860FFE70398401C039024
:100870002C4800680121490408400290FFE70299D2
:100880000020019039B9FFE70398F049401A411E52
:1008900088410190FFE70198C0070028E5D1FFE7F4
:1008A000204800688003002802D4FFE7FFE7FEE746
:1008B0001D490868022210430522904308601B4925
:1008C000009108680860086808600868086008689F
:1008D000174A1040086008681D221204104308607F
:1008E000104908680122120610430860FFE70D480E
:1008F00000688001002801D4FFE7F8E70B49086889
:100900000322904308600868022210430860FFE752
:10091000064800680C210840082801D0FFE7F7E7E7
:1009200004B0704700100240002002400410024052
:10093000FFFFC27780B5FFF78DFF80BD81B00090CB
:100940000098042806D1FFE70649086804221043EE
:10095000086005E003490868042290430860FFE747
:1009600001B0704710E000E080B50420C043FFF7FD
:10097000E5FF08480068FFF73CFC0749FFF7FBFB71
:1009800001460648016000680549FFF7B7FB0549C5
:10099000086080BD000000200024F44A1000002000
:1009A00000007A440C00002080B58AB009900998B4
:1009B00008907449884226D0FFE708982C4988425D
:1009C00029D0FFE70898704988422CD0FFE70898A3
:1009D0006B4988420FD0FFE708986C4988422BD0BA
:1009E000FFE708986A4988422FD0FFE708986949CD
:1009F000884232D039E023480790FFF717FF079865
:100A0000FFF700FF32E01E480690FFF70FFF069841
:100A1000FFF7F8FE2AE019480590FFF707FF059851
:100A2000FFF7F0FE22E040F208400490FFF7FEFEE0
:100A30000498FFF7E7FE19E040F210300390FFF74B
:100A4000F5FE0398FFF7DEFE10E00B480290FFF77B
:100A5000EDFE0298FFF7D6FE08E006480190FFF78A
:100A6000E5FE0198FFF7CEFE00E0FFE70AB080BD8B
:100A700000100040120300001103000004040000F5
:100A8000010400000B03000081B000900099086889
:100A900001221043086001B07047000082B001904D
:100AA0000091009800880199886201983449884231
:100AB00005D0FFE701983349884212D1FFE7019939
:100AC000086870229043086000984288019908687D
:100AD00010430860009882880199086810430860F4
:100AE000FFE7009880680199C8620198244988420C
:100AF00019D0FFE701982349884214D0FFE70198F5
:100B0000214988420FD0FFE70198204988420AD046
:100B1000FFE701981E49884205D0FFE701981D496B
:100B200088420DD1FFE70199086840F200329043F6
:100B300008600098C2880199086810430860FFE7C0
:100B400001980F4988420FD0FFE701980F4988426A
:100B50000AD0FFE701980E49884205D0FFE70198C7
:100B60000C49884205D1FFE70098007B0199086392
:100B7000FFE70199486901221043486102B07047BC
:100B8000002C0140000400400020004000400140D3
:100B9000004401400048014082B001900091009A59
:100BA0000199C8681043C86002B0704782B00190D4
:100BB00000910098C0430199086102B0704784B069
:100BC000029001910298C068019908400090029833
:100BD00000690199084207D0FFE7009820B1FFE7BC
:100BE00003A90120087003E003A900200870FFE7B3
:100BF00003A8007804B0704784B0009101460098C3
:100C0000039102A9088001A802700988039A9162E1
:100C10000078012806D1FFE70399486901221043B3
:100C20004861FFE704B0704781B000900099002050
:100C300008800099488000998880009A0349916053
:100C40000099C8800099087301B07047FFFF000049
:100C500002E008C8121F08C1002AFAD17047704785
:100C6000002001E001C1121F002AFBD170470000E3
:100C7000900C00080000002008000000500C000844
:100C8000980C00080800002010040000600C000808
:080C900000A24A04000000006C
:04000005080000CD22
:00000001FF
