:020000040800F2
:1000000068080020710100081702000813020008A8
:1000100000000000000000000000000000000000E0
:100020000000000000000000000000001B020008AB
:100030000000000000000000190200081D02000876
:100040008301000883010008830100088301000880
:100050008301000883010008830100088301000870
:1000600000000000830100088301000883010008EC
:1000700083010008830100088301000800000000DC
:1000800083010008830100080000000083010008CC
:100090008301000883010008830100088301000830
:1000A0008301000883010008830100088301000820
:1000B00083010008000000000000000000000000B4
:1000C00083010008000000008301000800F002F82E
:1000D00000F03EF812A030C8083824182D18AC42A1
:1000E00001D100F035F80FCCA246AB460CA730CFBB
:1000F0002D1B083F3F197C427F1E54442D090426C6
:10010000F441641EAC4201D300F022F801263342D0
:1001100000D0FB1A3343984754465D46DFE70000A2
:10012000280300003803000070470000002300246B
:1001300000250026103A01D378C1FBD8520700D31E
:1001400030C100D50B6070471FB51FBD10B510BD85
:1001500000F02DF81146FFF7F7FF00F0E7F800F088
:1001600045F803B4FFF7F2FF03BC00F04BF80000C2
:100170000748804707480047FEE7FEE7FEE7FEE73F
:10018000FEE7FEE704480549054A064B70470000B4
:1001900025020008CD000008680000206808002043
:1001A0006804002068040020704770477047754657
:1001B00000F024F8AE46050069465346C008C0006A
:1001C000854618B020B5FFF7DDFF60BCB6460026B7
:1001D0000027C0C5C0C5C0C5C0C5C0C5C0C5C0C555
:1001E000C0C5403D490849008D46704710B50446DA
:1001F000C046C0462046FFF7B4FF10BD0048704718
:100200000000002001491820ABBEFEE726000200D6
:100210007047FFE7FEE770477047704780B500F012
:1002200079F880BD80B584B0804908680122104308
:100230000860FFE77D4800688007002801D4FFE7D9
:10024000F8E7FFE77C490868802210430860002037
:100250000390FFE703987F2805D8FFE7FFE703989F
:10026000401C0390F6E77449086890221043086028
:1002700000200390FFE703987F2805D8FFE7FFE7FA
:100280000398401C0390F6E7FFE76B4908680322D8
:1002900090430860654A1068184B18401060086861
:1002A000174A104008600868644A10400860154901
:1002B00008680F22904308601349086840F203124F
:1002C0009043086008680122019213049843086073
:1002D0000868D307984308600C4908689043086091
:1002E0000B4900200290086000F0AAF801980299DA
:1002F000C00600F021F804B080BDC046FFFFF2FE4A
:100300000C00FF082C100240301002403410024054
:10031000081002400448006828B1FFE70249086855
:10032000401E0860FFE770476000002081B0002099
:100330000090FFE7FEE7000082B001900091019875
:100340000099044A1140084303490860BFF34F8FE6
:1003500002B0704780FFFF1F08ED00E084B000206E
:10036000039002903149086801221204104308608A
:10037000FFE70398401C03902C48006801214904C2
:1003800008400290FFE702990020019039B9FFE789
:1003900003982749401A411E88410190FFE70198C0
:1003A000C0070028E5D1FFE7204800688003002847
:1003B00002D4FFE7FFE7FEE71E4908680222104368
:1003C0000522904308601C4900910868086008688D
:1003D0000860086808600868184A104008600868E3
:1003E0001D221204104308601049086801221206F9
:1003F00010430860FFE70D4800688001002801D421
:10040000FFE7F8E70C490868032290430860086892
:10041000022210430860FFE7074800680C210840EB
:10042000082801D0FFE7F7E704B07047001002404A
:10043000FFFF00000020024004100240FFFFC277CF
:1004400080B5FFF78BFF80BD580400080000002036
:08045000680800002C010008FF
:04000005080001717D
:00000001FF
