:020000040800F2
:1000000028040020E1000008750A00085D080008C7
:1000100000000000000000000000000000000000E0
:10002000000000000000000000000000790A000845
:100030000000000000000000770A00087B0A0008AA
:10004000F3000008F3000008F3000008F3000008C4
:10005000F3000008F3000008F3000008F3000008B4
:1000600000000000F3000008F3000008F30000089F
:10007000F3000008F3000008F3000008000000008F
:10008000790B0008F300000800000000F3000008EE
:10009000F3000008F3000008F3000008F300000874
:1000A000F3000008F3000008F3000008650C0008E6
:1000B000F300000800000000000000000000000045
:1000C000F300000800000000F30000080348854624
:1000D00000F0E2FA004800470D1000082804002054
:1000E0000448804704480047FEE7FEE7FEE7FEE7D6
:1000F000FEE7FEE77D0A0008CD000008024670B565
:100100004A40D30FDB0740002DD04A002AD0010E11
:10011000140E000212020919400A520A8418E5015D
:1001200004465443000A120A2E045043A4194219EB
:10013000200CC543AA18120C0125AD03521C5219FC
:1001400012047F39240400D0521C104301D4400013
:10015000491EC2B20C06C0092018401C4008802A63
:1001600002D003E0002070BD40084000002900DA02
:100170000020184370BD70B502464A40D50F4000BC
:100180004A00ED0740085208002814D0002A12D077
:10019000C40DD30D41020120C0055202490A520A82
:1001A000E41A091812187D34914201D3641C00E04E
:1001B0004900002C01DA002070BD0023914201D3D8
:1001C000891A0343400849000028F7D100290AD0C2
:1001D000914202D10121C90705E0914201D20121DA
:1001E00001E00121C943E005C018401900F04CF8B6
:1001F00070BD10B500229623114600F04DF810BDD9
:10020000C20FD207400040080BD0C10D0723DB010D
:10021000C91840020905400A1143C20840071143AA
:100220007047002001467047F0B51FB40646002015
:1002300082B005464024019100901BE001992246BE
:100240000F46304600F069FA049A059B801A9941DE
:1002500010D310461946224600F04FFA361A8F4145
:100260000197224601200021009F00F046FA38182D
:100270004D4100902046641E0028DFDC019B009861
:100280002946324607B0F0BD002904DA401C490077
:1002900001D140084000704770B40024050C05D11E
:1002A0001024000402D1002921D01124050E01D10F
:1002B00000020834050F01D10001241D850F01D172
:1002C0008000A41C002801DB4000641C002908D029
:1002D00020252E1B0D46F540A14000D001212943C9
:1002E000084301061B1B000ADB1D02D5002070BC61
:1002F0007047DB05181880180029F8DA401C4900FF
:10030000F5D170BC4008400070470000F0B50746CA
:100310000846584087B0C00F049048000E46590068
:1003200040084908BC1A884105D2384631461E4665
:1003300017460B4602465800400810434CD0300D7B
:10034000039040055900400D490D0590401A029058
:10035000402872DA18030121000B090508430190B7
:1003600004980092002805D001995242002088414B
:1003700000920190029840210A1A0199009800F019
:10038000BCF905460C466B4607CB00F0D7F9C019FF
:100390007141039A0E0D0023D71756401A467A4032
:1003A000164344D0049A002A2DD0029A012A039AB7
:1003B00015DC1205C01A914101263605001C714159
:1003C000D20F059ED2070093019202962A46234639
:1003D00000F0D4F907B0F0BD38463146FAE716050B
:1003E000224A0F46B218C01AB74101210905001C64
:1003F0004F4100187F41114618187941E20F104310
:100400006D19644113E0E2076D0815436408C207E3
:100410001443039A01261205C01A91413605001CA7
:100420007141CE07400830434908C01851412A465F
:10043000234600F096F9CDE7FFE70498012240003B
:10044000C117121A00238B4104983146C417381A79
:10045000A141EEE730B40124E407634030BC55E726
:1004600030B40124E407614030BC4FE70000E0FFF6
:10047000F0B51FB488B00B99099800244840099939
:10048000C00F490049080991C0070B990090490025
:1004900049080B9109990898A64608431CD00B9966
:1004A0000A98084318D0099801244000420D4800DA
:1004B000410D099824050003000B204309900B9877
:1004C0000003000B20430B9050181C4940180022D9
:1004D00001901446104605E0002001460DB0F0BD25
:1004E000032801DA034600E003239C46C11A0AAE42
:1004F0000AE05F0008ADED5B4F00F75B7D4300272E
:10050000AA187C41491C5B1E6145F2DD410004AB29
:100510005A522104120C0A43240C401C0828DFDB29
:10052000019802900099704601910090059B049AF1
:100530000799069800F022F9D0E700000DFCFFFFB4
:10054000F0B50C465C4085B0E40FE40703944C0022
:100550000026640859009446490802460296224340
:1005600021D062460A431ED06200570D4A000E0396
:100570002303550D012402462C492405781B1B0B2F
:10058000360B401823432643614600901C46501A00
:10059000B44103D30098401C009002E092180098E8
:1005A0005B41002803DA0020014605B0F0BD0020C1
:1005B000012109050746864611E064461D46141BC5
:1005C000B54106D36546521BB341744607430C43FD
:1005D000A646CD0740084908284392185B410546C6
:1005E0000D43EAD11046184313D0604619465040D7
:1005F0007140084306D06046101AB34106D201226A
:10060000002306E000220123DB0702E00122D2439F
:100610005310009874460105381C6141029C039DEB
:100620000019694100F09DF8BFE70000FD030000DC
:100630004A0009030123090B1B0519430A4B10B596
:10064000520D9A4202DA0020014610BD064B3433A7
:100650009A4203DC9A1A00F060F810BD034BD218DE
:1006600000F04BF810BD0000FF030000CDFBFFFFC2
:1006700010B5002904DB0124E40740428C412146E7
:10068000002B04DB1C460123DB075242A3419942A5
:1006900000D1904210BD0000064C0125064E05E039
:1006A000E36807CC2B430C3C98471034B442F7D393
:1006B000FFF710FDE82600080827000870B504467B
:1006C000002903D000202022012310E0002801D0BF
:1006D0000020C043C046C0460DE02546D5408D42AF
:1006E00005D30D469540641B1D469540401915469F
:1006F000521E002DF1DC214670BD10B5202A04DB0E
:100700000146203A9140002010BD914020239C1AC0
:100710000346E3401943904010BD10B5202A04DB86
:100720000846203AD040002110BD0B46D340D040AF
:100730002024A21A91400843194610BD10B5202A62
:1007400006DBCB170846203A1041C1170B4306E0E1
:100750000B461341D0402024A21A91400843194669
:1007600010BD10B5002B08DA0024401C614192181E
:100770005B411A4301D14008400010BDF0B51FB4E1
:1007800082B005460C0003D0084601F02BFB02E0C6
:1007900001F028FB20300246009021462846FFF752
:1007A000ACFF049B059A04460F46184311430843C7
:1007B00014D0184610431BD0009840210A1A18463E
:1007C0000599FFF7AAFF05460E46009A0599049879
:1007D000FFF793FF084305D0012004E02046394687
:1007E00007B0F0BD0020C11705430E432C4337432B
:1007F00000990E986305401A7905E40A00220C431B
:10080000FD0A0A3002D500200146E9E7010510196A
:1008100069410C9C0D9D00196941FFF7A2FFDFE7BC
:1008200080B582B0014601A80170007800900128CF
:1008300004D0FFE70098022806D00BE0544844F2A9
:10084000000100F04FFB06E0514848F2000100F0C3
:1008500049FB00E0FFE702B080BDC046FFE7FEE7CE
:1008600080B58EB0804800F089FD284800F086FDF4
:100870000920C00600900221069100220492402324
:10088000019300F037FB0098019B0499032200F0CC
:1008900078FB0098019A0121039100F0C3FA0499B2
:1008A000102000F0C7FBE648079000F0DDFE08A826
:1008B000029001F0E1F80299049A079847230B800F
:1008C0004A808A80E24B0A93CA8000F047FF0CA856
:1008D000059000F0BAFE039B0499059A07981180D1
:1008E00053809180D18000F0B7FF079800F028FE78
:1008F0000699079801F099F80699079801F08BF886
:10090000079800F021FF0EB080BDC046010700002F
:1009100080B5054800F032FD0448002101224EF266
:10092000000300F0E7FA80BD120500000004004853
:1009300080B586B0154800F021FD154801900121D1
:1009400005910022029244F20003009300F0D2FAD3
:100950000198029A059948F20003049300F0CAFA3C
:10096000009B019802990322039200F00AFB019870
:100970000299039A049B00F004FB0598FFF750FFCF
:100980000220FFF74DFF06B080BDC04613050000F2
:100990000008004880B58AB00990334800F0EEFCAA
:1009A000324800F0EBFC0920C006049001210591BB
:1009B00040F20022029200F035FA0498059940F2C4
:1009C0000042069200F02EFA029B0498059A02213A
:1009D000039100F08FFA029B0498059A0021079179
:1009E00000F0CFFA03990498059A069B00F082FA6A
:1009F0000498059A069B079900F0C3FAAD48089041
:100A000001F0B2F80799089801F0C7F9079908981A
:100A100001F09FF90799089801F077F9089809996A
:100A200001F03EF80898042101F084F908980821A3
:100A300001F0A4F90898402101F0C0F8089801F0ED
:100A4000CCF8FFE7F5480A4901F0DFF808B9FFE7FD
:100A5000F8E7F2480190064901F0C8F8019804212E
:100A600001F0F1F80AB080BD110500000E0600008B
:100A700004070000704770477047704780B584B026
:100A800034490868012210430860FFE731480068D4
:100A90008007002801D4FFE7F8E7FFE72E49086840
:100AA00080221043086000200390FFE703987F280E
:100AB00005D8FFE7FFE70398401C0390F6E72649B7
:100AC000086890221043086000200390FFE7039815
:100AD0007F2805D8FFE7FFE70398401C0390F6E75F
:100AE000FFE71D490868032290430860194A10680F
:100AF0001A4B184010600868194A104008600868CE
:100B0000184A10400860184908680F22904308608E
:100B10001649086840F203129043086008680122F1
:100B200001921304984308600868D307984308604B
:100B30000F490868904308600E4900200290086041
:100B400000F0C4FC01980299C00600F089FA04B0D4
:100B500080BDC0460010024004100240FFFFF2FEBC
:100B60000C00FF08FFFFC2772C100240301002403B
:100B7000341002400810024080B582B03048022193
:100B800000F05CFF012859D1FFE72E48008850B9DA
:100B9000FFE72B48002100F0DDFC2C4908802949A3
:100BA0000120088045E027480088012840D1FFE760
:100BB0002348002100F0CEFC014623480180008834
:100BC00022490988884208DDFFE71F4800881F493D
:100BD0000988401A1F49086009E01C4801881A4822
:100BE0000088401A1A4940181A490860FFE7194856
:100BF00000900068FFF7FDFA01461748FFF7BBFABF
:100C000001461648019001600068FFF7F9FA0246B4
:100C10000B46134801F0D6F8009A01990B4B0020BF
:100C20001880106008600849088006490880FFE7BE
:100C3000FFE70348022100F0F8FEFFE702B080BDA5
:100C400000040040080000201E0000201C000020BE
:100C5000FFFF00000C000020002474491800002051
:100C6000DC26000880B582B06C48134901F01CF8FE
:100C7000E8B1FFE76948104900F0F6FF0220019053
:100C800000F0AAF80246019840F200110091891A7A
:100C90000A4A11700A4A0121117000F06FF8009998
:100CA000019800F089F8019800F076F8FFE702B0AB
:100CB00080BDC04600380140040004072100002028
:100CC0002000002081B00146684601700021405696
:100CD00000280DD4FFE70021684641561F200A4630
:100CE00002400120904049098900024A8850FFE7EC
:100CF00001B0704700E100E070B582B0024601A883
:100D00000270009100214056002816D4FFE700240D
:100D100001A908570322D3431840174A805809579E
:100D20008C07E50EFF24AC40A043009CA401E4B274
:100D3000AC402043194088501AE001A908780F24DC
:100D4000204008380322D34318400A4A805800251F
:100D500049578D07EE0EFF25B540A843009DAD0114
:100D6000EDB2B54028432140083919408850FFE7CB
:100D700002B070BD1CED00E000E400E081B001466F
:100D8000684601700078142141430A4A88580123BB
:100D90009843885001B0704781B0014668460170A1
:100DA000007814214143034A88580123184388508E
:100DB00001B070470800024083B0009102460098DD
:100DC00002A90A70019001A800880A7814215143F1
:100DD000074A885003B0704781B0014668460170E9
:100DE0000178142048430249405801B07047C0467A
:100DF0000C00024080B582B00190009101A80178FA
:100E0000064800F0A5FEFFE70448054900F0FDFE96
:100E100008B9FFE7F8E7019802B080BD003801404B
:100E20000707000086B00590049103920598006AB8
:100E300001900598406A009002A900200880FFE711
:100E400002A8008807281DD8FFE702A80188039898
:100E5000C840C00780B1FFE702A8018889000F22BF
:100E60008A40019991430191049900888000814052
:100E7000019808430190FFE7FFE70298401C02A990
:100E80000880DDE702A908200880FFE702A80088A3
:100E90000F281FD8FFE702A801880398C840C007A1
:100EA00090B1FFE702A80188890020390F228A400B
:100EB0000099914300910499008880002038814076
:100EC000009808430090FFE7FFE70298401C02A942
:100ED0000880DBE701980599086200980599486247
:100EE00006B0704782B00190009100980199886126
:100EF00002B0704787B0069005910492039306985C
:100F0000006801900698C068009002A9002008803F
:100F1000FFE702A800880F282BD8FFE702A8018866
:100F20000398C840C007F0B1FFE702A80188490054
:100F3000032213468B40019999430191059B018837
:100F400049008B40019919430191018849008A4069
:100F500000999143009104990088400081400098D5
:100F600008430090FFE7FFE70298401C02A90880B1
:100F7000CFE701980699086000980699C86007B005
:100F8000704710B586B0059004A8017003920293D3
:100F90000078012806D1FFE7029A059948681043B6
:100FA000486005E0029A0599486890434860FFE769
:100FB00005988068009001A900200880FFE701A83B
:100FC00000880F281DD8FFE701A801880298C840B3
:100FD000C00780B1FFE701A80188490003228A40C9
:100FE0000099914300910399008840008140009846
:100FF00008430090FFE7FFE70198401C01A9088023
:10100000DDE700980599886006B010BD80B582B014
:10101000002001906946087000F072FAFFF788FC22
:10102000FFF776FCE1204002FFF7B4FCFFF718FC65
:10103000FFE7FEE780B584B00A46014603A80190A9
:10104000017002A90A700022009280560978FFF709
:1010500053FE009901984056FFF734FE04B080BD5E
:1010600082B00190009101980099044A1140084310
:1010700003490860BFF34F8F02B0704780FFFF1F26
:1010800008ED00E09DB01CA90870002002901B90A4
:101090001A9019901890179016901590149013901C
:1010A0001290119010900F900E900D900C90AA49F4
:1010B0000B91AA490A910990089007910690059111
:1010C0000490A74800680C21084080081B901B98DA
:1010D000039040B1FFE70398012807D0FFE703988A
:1010E000022806D044E0A148179044E09F4817909A
:1010F00041E0F44801680F2292041140890C1191DB
:1011000000680121C9060840C00E109010980128FF
:1011100004D1FFE71198113011900BE011980F28BE
:1011200003D1FFE71020119003E01198801C11906B
:10113000FFE7FFE7E3480068012109040840000CCD
:101140000F900F9870B1FFE7874800680F210840A3
:10115000401C0E900E998548B0FBF1F11198484360
:10116000179004E011997F4848431790FFE702E089
:101170007E481790FFE7D3480168C9B209090D916D
:101180000D9A08A9895C0C9117990C9AD140169177
:10119000016840F200721140090A0D910D9A06A9EA
:1011A000895C0C9116990C9AD1401591006843F610
:1011B00000010840C00A0D900D9904A8405C0C90F5
:1011C00016980C99C84014901CA800780190052826
:1011D00000D9BCE001998A0001A080188746C0466A
:1011E00000F00AB800F00BB800F00CB800F00DB831
:1011F00000F00EB800F07DB817981890A8E0169887
:101200001890A5E015981890A2E0149818909FE007
:101210005748006840F20011084088420FD0FFE7AD
:1012200053480068012109040840884203D0FFE7C1
:101230005148139002E04F481390FFE756E0A14851
:10124000006880B2800B1A9049480068C00F19905E
:101250001A980090032847D800998A0001A08018A6
:101260008746C04600F006B800F012B800F01EB87D
:1012700000F02CB8199820B9FFE714984008139093
:1012800005E016980321B0FBF1F01390FFE72CE086
:10129000199820B9FFE714988008139005E0169874
:1012A0000521B0FBF1F01390FFE71EE0199830B96B
:1012B000FFE714980621B0FBF1F0139005E01698B3
:1012C0000721B0FBF1F01390FFE70EE0199820B969
:1012D000FFE71498C008139005E016980921B0FBA9
:1012E000F1F01390FFE700E0FFE7FFE71398189095
:1012F0002EE01F480068800718B9FFE71498129085
:1013000022E01B48006803210840012803D1FFE7C1
:101310001798129017E01648006803210840022829
:1013200004D1FFE748F2000012900BE0104800687B
:1013300003210840032803D1FFE70C48129000E086
:10134000FFE7FFE7FFE7FFE71298189000E0FFE7ED
:1013500018981DB07047C04606070809010203042B
:101360000410024000093D002C10024000127A00D7
:1013700030100240003FAB01809FD50081B0014694
:101380006846018000881F220146114001238B40DE
:101390008109494A88581843885001B07047C046AF
:1013A00081B001466846018000881F220146114035
:1013B00001238B408109404A88589843885001B0E6
:1013C0007047C04681B001466846018000881F22F0
:1013D0000146114001238B408109374A8858184340
:1013E000885001B07047C04684B00020039002903E
:1013F000314908680122120410430860FFE703988E
:10140000401C03902C4800680121490408400290C8
:10141000FFE702990020019039B9FFE703982749B7
:10142000401A411E88410190FFE70198C00700283B
:10143000E5D1FFE7204800688003002802D4FFE7D9
:10144000FFE7FEE71E490868022210430522904389
:1014500008601C490091086808600868086008680E
:1014600008600868184A1040086008681D221204C5
:1014700010430860104908680122120610430860F2
:10148000FFE70D4800688001002801D4FFE7F8E776
:101490000C49086803229043086008680222104340
:1014A0000860FFE7074800680C210840082801D0C1
:1014B000FFE7F7E704B0704700100240FFFF0000AD
:1014C0000020024004100240FFFFC27780B5FFF702
:1014D0008BFF80BD81B000900098042806D1FFE703
:1014E0000649086804221043086005E003490868BB
:1014F000042290430860FFE701B0704710E000E06D
:1015000080B50420C043FFF7E5FF08480068FEF7F8
:1015100070FE0749FEF72FFE01460648016000688D
:101520000549FEF7EBFD0549086080BD0400002079
:101530000024F44A1400002000007A441000002027
:1015400081B000900099086880221043086001B0C3
:101550007047000084B0039002A80180002101912F
:101560000088009003281DD800998A0001A08018E7
:101570008746C04600F006B800F008B800F00AB888
:1015800000F00CB80398406B01900CE00398806B5E
:10159000019008E00398C06B019004E00398006C90
:1015A000019000E0FFE7019804B0704784B0039019
:1015B00002A8018001A90A8000880090032841D870
:1015C00000998A0001A080188746C04600F006B83E
:1015D00000F010B800F01CB800F026B80399886934
:1015E0000C229043886101A80288039988691043FE
:1015F000886128E00399886940F600429043886139
:1016000001A80088020203998869104388611AE0E2
:101610000399C8690C229043C86101A80288039904
:10162000C8691043C8610EE00399C86940F60042DA
:101630009043C86101A8008802020399C869104359
:10164000C86100E0FFE704B0704781B000900099E6
:1016500000200880009A012151800099888000991B
:10166000C88001B07047000080B58AB00990099821
:1016700008907449884226D0FFE708982C49884290
:1016800029D0FFE70898704988422CD0FFE70898D6
:101690006B4988420FD0FFE708986C4988422BD0ED
:1016A000FFE708986A4988422FD0FFE70898694900
:1016B000884232D039E023480790FFF783FE07982D
:1016C000FFF76EFE32E01E480690FFF77BFE06989D
:1016D000FFF766FE2AE019480590FFF773FE0598AC
:1016E000FFF75EFE22E040F208400490FFF76AFE3A
:1016F0000498FFF755FE19E040F210300390FFF711
:1017000061FE0398FFF74CFE10E00B480290FFF7D4
:1017100059FE0298FFF744FE08E006480190FFF7E3
:1017200051FE0198FFF73CFE00E0FFE70AB080BDE4
:101730000010004012030000110300000404000028
:10174000010400000B03000081B0009000990868BC
:1017500001221043086001B07047000082B0019080
:101760000091009800880199886201983449884264
:1017700005D0FFE701983349884212D1FFE701996C
:1017800008687022904308600098428801990868B0
:101790001043086000988288019908681043086027
:1017A000FFE7009880680199C8620198244988423F
:1017B00019D0FFE701982349884214D0FFE7019828
:1017C000214988420FD0FFE70198204988420AD07A
:1017D000FFE701981E49884205D0FFE701981D499F
:1017E00088420DD1FFE70199086840F2003290432A
:1017F00008600098C2880199086810430860FFE7F4
:1018000001980F4988420FD0FFE701980F4988429D
:101810000AD0FFE701980E49884205D0FFE70198FA
:101820000C49884205D1FFE70098007B01990863C5
:10183000FFE70199486901221043486102B07047EF
:10184000002C014000040040002000400040014006
:10185000004401400048014080B584B0039002A8D4
:101860000180019200880090032800D9C9E0009906
:101870008A0001A08018874600F006B800F030B852
:1018800000F05EB800F08BB80399086A012290431B
:1018900008620399086A0A2398430862019803883A
:1018A0000399086A184308620399886903239843D7
:1018B000886101984388039988691843886103996E
:1018C0008869F023984388610198C08803010399CF
:1018D0008869184388610399086A1043086291E097
:1018E0000399086A1022904308620399086AA023AA
:1018F000984308620198008803010399086A184315
:1019000008620399886940F200339843886101981E
:10191000408803020399886918438861039988699C
:101920004FF20003984388610198C088030303992C
:101930008869184388610399086A1043086261E066
:101940000399086A40F20012904308620399086AFA
:1019500040F6002398430862019800880302039927
:10196000086A184308620399C86903239843C86149
:10197000019843880399C8691843C8610399C869E5
:10198000F0239843C8610198C08803010399C8698E
:101990001843C8610399086A1043086232E003994A
:1019A000086A41F20002904308620399086A4AF209
:1019B0000003984308620198008803030399086AAA
:1019C000184308620399C86940F200339843C8611C
:1019D0000198408803020399C8691843C8610399B4
:1019E000C8694FF200039843C8610198C088030397
:1019F0000399C8691843C8610399086A10430862CB
:101A000000E0FFE7039802A90988019A9288FFF78E
:101A1000CDFD04B080BD82B001900091009A019983
:101A2000C8681043C86002B0704782B0019000914E
:101A30000098C0430199086102B0704784B00290D9
:101A400001910298C06801990840009002980069CD
:101A50000199084207D0FFE7009820B1FFE703A9EA
:101A60000120087003E003A900200870FFE703A825
:101A7000007804B07047000081B000900099002009
:101A800008800099488000998880009A03499160F5
:101A90000099C8800099087301B07047FFFF0000EB
:101AA00080B588B0079006910020059004900390BF
:101AB0000290079801903D4988420AD0FFE70198BB
:101AC0003B4988420AD1FFE70520FFF7DBFA059082
:101AD00005E00220FFF7D6FA059000E0FFE707983F
:101AE00000680004002818D5FFE705984000069913
:101AF0004A088018B0FBF1F00290029813490840A0
:101B0000049002980007400F039004A8008803A9DE
:101B1000098808430799C86016E0059806994A089D
:101B20008018B0FBF1F00290029808490840049038
:101B300002980F210840039004A8008803A909888F
:101B400008430799C860FFE708B080BDF0FF0000B8
:101B500082B0019000910098024908400199886282
:101B600002B07047FF01000080B584B00390039875
:101B700002900E4988420DD0FFE702980C49884236
:101B800010D1FFE70C480190FFF71CFC0198FFF70C
:101B900007FC08E007480090FFF714FC0098FFF7E7
:101BA000FFFB00E0FFE704B080BDC04600440040FA
:101BB00000380140110400000E03000082B00190C3
:101BC000009101998868402290438860009A0199A9
:101BD00088681043886002B0704781B00090009917
:101BE000086801221043086001B0704782B001907C
:101BF0006846018000881F21084001228240019927
:101C0000086A1043086202B0704784B00091014630
:101C10000098029101A9088002980A8892098058C8
:101C200009881F221140C840C00720B1FFE703A95F
:101C30000120087003E003A900200870FFE703A853
:101C4000007804B0704782B0019068460180008837
:101C50001F220146114001238B40019982098858B7
:101C60001843885002B0704782B0019000910098EC
:101C70000C49884208D1FFE70199D022885848F2E0
:101C80000003984388500BE000981F210904084086
:101C9000000C012282400199086A10430862FFE7A4
:101CA00002B0704709340F3410B585B0039002912B
:101CB000002001900090039802A9098889094058E2
:101CC000029C1F231C4001210A46A24010400190A3
:101CD0000398029A920D8058029A1B041A40120C23
:101CE000914008400090009838B1FFE7019820B17A
:101CF000FFE704A90120087003E004A90020087090
:101D0000FFE704A8007805B010BD82B001900091F3
:101D1000019908680122904308600199086840F21F
:101D2000006290430860009A0199086810430860B7
:101D300002B0704782B001900091019908680422B6
:101D400090430860009A019908681043086002B047
:101D5000704782B001900091019908680122904378
:101D600008600199486843F2000290434860009A75
:101D7000019948681043486002B0704782B00190F2
:101D8000009101990868082290430860009A01991F
:101D900008681043086002B0704782B0019000915B
:101DA000019908680122904308600199086841F28E
:101DB000000290430860009A019908681043086087
:101DC00002B070470FB410B503A9044B044A02983F
:101DD00000F0E8F810BC08BC04B01847F50D000886
:101DE000000000202021020C01D010211046020A20
:101DF00001D010460839020901D01046091F820897
:101E000001D01046891E420801D0881E7047081A6A
:101E1000704702E008C8121F08C1002AFAD17047B3
:101E20007047002001E001C1121F002AFBD170475A
:101E3000F0B51FB486B00998089A030D002102433B
:101E400014D05148514A18185043051411980128CC
:101E500010981AD0281A401C00264D4F4D49009664
:101E600001910490002812DA444211E011980124F3
:101E700049A3012801D11098C1430698119A8460A2
:101E80000360C26041600BB0F0BD4042E4E704462D
:101E9000210500203F4A001C51410391029012E0AD
:101EA000E00707D032463B4601990098FEF7E0FA7A
:101EB0000191009032463B4610461946FEF7D8FA8B
:101EC00006460F466410002CEAD10498039B0028B4
:101ED000029A0999089806DAFEF7CAFA019B009A55
:101EE000FEF7C6FA05E0FEF72BFB019B009AFEF712
:101EF00027FB04460E460022284BFEF7B9FB03D809
:101F00000020C043014607E00022254B2046314611
:101F1000FEF7FCF9FEF78CFB102409E0002C0ADB2D
:101F20000A220023FEF780F9079B30321A55641EFF
:101F300002460A43F2D11122641C079B121B1C1992
:101F4000119B012B03D0012308430ED10AE0084363
:101F500004D0112010900020119077E71098151AE6
:101F60006D1E0BE01098824202DD00236D1C03E021
:101F7000824201DA00236D1E002BEED006981199E3
:101F80008260C16030C07EE701FCFFFF104D0000A1
:101F9000000014400000F03F300000000000F0435B
:101FA0000000E03FFFB597B00646002518E225285F
:101FB00077D100242746FD49049400E00443761CB1
:101FC00032780120203A90400842F7D130782A2810
:101FD0000ED00222307801463039092916D80499EA
:101FE0000A235943303940181443761C0490F1E712
:101FF000189802C804911890002904DA01204003BF
:1020000004434842049002200443761C30782E2872
:1020100014D1042004437078761C2A2809D118981A
:10202000761C80C8189009E00A214F43303FC71939
:10203000761C3078014630390929F5D930786C287A
:1020400010D006DC4C281AD068280ED06A2817D188
:1020500004E0742813D07A2812D110E00120400542
:1020600004430CE00121090501E0032109050C43AB
:102070007178814203D1012000052418761C761C5A
:102080003078119066280BD013DC58287DD009DCFD
:1020900000287BD04528F6D04628F4D047281AD10E
:1020A000A5E118E0632835D0642870D0652812D1E6
:1020B0009DE170286CD008DC6728F1D069287BD0BE
:1020C0006E280DD06F2806D1BAE073282ED075285F
:1020D00071D0782859D01A9A199990476D1C7EE1D1
:1020E0006002400F022809D003280DD00428189858
:1020F00001680DD00D60001D189070E11898EA1766
:1021000001680D604A60F6E7189801680D80F2E7F3
:102110000D70F0E718986A4601781172001D18904A
:102120000020507202A80090012005E0189802C813
:10213000189000200091C04361070DD5002101E0F7
:102140000199491C0191B94212DA8142F8DB009AE7
:10215000515C0029F4D10BE0002101E00199491CF8
:1021600001918142FADB019A0099895C0029F5D13D
:10217000019904981A9B471A21463846199A00F08B
:1021800097FA0199401945180BE04FE02CE113E054
:102190004EE0009800990078491C00911A9A19990C
:1021A00090470198401E0190401CF2D121463846CC
:1021B0001A9B199A10E137E00A2000210090019142
:1021C0006002410F022907D0189A01CA1892C2175B
:1021D0009446032908D00AE01898C01DC108C90018
:1021E00005C91891944607E000B2C2179446042925
:1021F00002D140B2C1178C4600226146944506DAEE
:102200000A460021404291418C462D2102E02105E1
:1022100004D52B216A461173012103E0E10701D0A7
:102220002021F7E7029155E00A200AE0102008E09B
:10223000102000900021042004430191082703E0AE
:1022400008200021019100906002410F022907D06F
:10225000189A01CA189200229446032908D008E06F
:102260001898C01DC108C90005C91891944603E01B
:1022700080B2042900D1C0B200210291210729D5E2
:102280001199702906D0009A1021019B4A401A43E7
:1022900005D00EE040216A461173012108E0614635
:1022A000014306D030216A461173119951730221FE
:1022B0000291009A0821019B4A401A430AD16146C3
:1022C000014301D1610705D530216A46117301210F
:1022D0007F1E02911199582904D035A10E910DA9A4
:1022E0000D910DE037A1F9E76146019B009AFDF7DA
:1022F0009BFF0E9B8C469B5C0D9A521E0D92137099
:1023000061460143F0D10D9805A9081A20300190CB
:10231000600703D501200004844300E001270198F1
:10232000874201DD381A00E0002001990090411831
:10233000029809180498401A0490E00306D4214634
:102340001A9B199A049800F0B3F94519002706E082
:1023500003A81A9AC05D199990476D1C7F1C0298BA
:102360008742F5DBE0030CD521461A9B199A0498A5
:1023700000F09EF9451904E01A9A30201999904707
:102380006D1C0099481E00900029F5DC08E00D98AE
:102390000D990078491C0D911A9A199990476D1C56
:1023A0000199481E01900029F1DC63E10928010030
:1023B00030313233343536373839616263646566BB
:1023C000000000003031323334353637383941427D
:1023D000434445460000000000F05AF94519761CB8
:1023E0003078002800D0E2E528461BB0F0BD600739
:1023F00000D406271898C01DC108C90048680A689B
:102400000831C30FDB071891190001D09CA108E027
:10241000210501D59BA104E0E10701D09AA100E0CC
:102420009AA1430011985B08109165280CD006DC36
:10243000452809D046281DD0472841D141E06628CB
:1024400018D067283CD13CE00021112F01DB11207E
:1024500000E0781C0191009008A911A8FFF7E8FCA2
:10246000139905910021119A15927F1C12980197DA
:10247000009150E00120C00703900120019008A9BD
:10248000009711A8FFF7D4FC139A14990592002223
:10249000119B009212981593059A0192002901D080
:1024A000104602E0791C40180190381A01D50198B5
:1024B00004E04042401E0090781C0190C01B029036
:1024C00043E0012F00DA01270021112F01DD112047
:1024D00000E038460191009008A911A8FFF7A8FC78
:1024E00013990591119A0021129815920091019764
:1024F00021070CD40599B94201DB019900E0019153
:10250000012904DD159A491E515C302906D0B842D4
:1025100001DA011D05DA0121029115E00199491E38
:10252000EDE7002805DC0099411800910199091A8E
:1025300003E0019A411C914200DD01910099401A8B
:10254000401C02900120C0070390200706D4029986
:102550000198814202DB0020C043029000206946BE
:10256000C87707AF012103980337C907884224D0F1
:10257000022011902B201290039800280CDA404280
:1025800003902D20129007E00A210398FEF796F899
:1025900030317F1E039039701199481E1190002927
:1025A000F2DC03980028EFD1791E12980870307879
:1025B000202108404530BF1E387006A8C01BC01D32
:1025C000039010980078002800D00120019941184C
:1025D0000298C0170918039809180498401A401E59
:1025E0000490E00306D421461A9B199A049800F03F
:1025F0005FF8451910980078002803D01A9A1999A5
:1026000090476D1CE00324D521461A9B199A049823
:1026100000F04EF845191CE00098002807DB0099EF
:102620000598884203DD1598405C199901E01999D5
:1026300030201A9A904700986D1C401C0090029818
:10264000401E0290002804D11A9A2E201999904712
:102650006D1C0199481E01900029DDDC05E03878E9
:102660001A9A7F1C199990476D1C0399481E039074
:102670000029F4DC21461A9B199A0498ACE6000064
:102680002D0000002B0000002000000000000000D2
:10269000F8B5044600251E461746880404D405E014
:1026A00039462020B0476D1C641EF9D52846F8BD78
:1026B000FFB50446002581B01E46C80301D530276A
:1026C00000E02027880404D505E038460399B04788
:1026D0006D1C641EF9D5284605B0F0BD66726571A3
:1026E0003A252E31660D0A00082700080000002058
:1026F00008000000121E0008102700080800002033
:1027000020040000221E00080000000000A24A046D
:04000005080000CD22
:00000001FF
