:020000040800F2
:1000000010040020E100000845040008F102000887
:1000100000000000000000000000000000000000E0
:10002000000000000000000000000000490400087B
:100030000000000000000000470400084B04000816
:10004000F3000008F3000008F3000008F3000008C4
:10005000F3000008F3000008F3000008F3000008B4
:1000600000000000F3000008F3000008F30000089F
:10007000F3000008F3000008F3000008000000008F
:10008000F3000008F300000800000000F30000087F
:10009000F3000008F3000008F3000008F300000874
:1000A000F3000008F3000008F3000008F300000864
:1000B000F300000800000000000000000000000045
:1000C000F300000800000000F30000080348854624
:1000D00000F0D8F8004800472D0700081004002061
:1000E0000448804704480047FEE7FEE7FEE7FEE7D6
:1000F000FEE7FEE74D040008CD000008024670B59B
:100100004A40D30FDB0740002DD04A002AD0010E11
:10011000140E000212020919400A520A8418E5015D
:1001200004465443000A120A2E045043A4194219EB
:10013000200CC543AA18120C0125AD03521C5219FC
:1001400012047F39240400D0521C104301D4400013
:10015000491EC2B20C06C0092018401C4008802A63
:1001600002D003E0002070BD40084000002900DA02
:100170000020184370BD70B502464A40D50F4000BC
:100180004A00ED0740085208002814D0002A12D077
:10019000C40DD30D41020120C0055202490A520A82
:1001A000E41A091812187D34914201D3641C00E04E
:1001B0004900002C01DA002070BD0023914201D3D8
:1001C000891A0343400849000028F7D100290AD0C2
:1001D000914202D10121C90705E0914201D20121DA
:1001E00001E00121C943E005C018401900F008F8FA
:1001F00070BD10B500229623114600F009F810BD1D
:10020000002904DA401C490001D140084000704731
:1002100070B40024050C05D11024000402D100297B
:1002200021D01124050E01D100020834050F01D19F
:100230000001241D850F01D18000A41C002801DBD2
:100240004000641C002908D020252E1B0D46F540D7
:10025000A14000D001212943084301061B1B000ACD
:10026000DB1D02D5002070BC7047DB051818801814
:100270000029F8DA401C4900F5D170BC4008400064
:10028000704700001CB509480090094801900546D8
:100290000126009C05E0E36807CC33430C3C9847FB
:1002A0001034AC42F7D3FFF715FF000070100008C0
:1002B0009010000880B582B0014601A80170007856
:1002C0000090012804D0FFE70098022806D00BE038
:1002D000284844F2000100F095F906E0254848F26C
:1002E000000100F08FF900E0FFE702B080BDC046DA
:1002F000FFE7FEE780B5054800F040FA044800211A
:1003000001224EF2000300F085F980BD12050000C5
:100310000004004880B586B0154800F02FFA154853
:100320000190012105910022029244F20003009302
:1003300000F070F90198029A059948F200030493BD
:1003400000F068F9009B019802990322039200F0E3
:10035000A8F901980299039A049B00F0A2F9059864
:10036000FFF7A8FF0220FFF7A5FF06B080BDC0463B
:10037000130500000008004880B590B00F900E9162
:100380002E4800F0FBF940F2106000F0F7F9092068
:10039000C00600900221002204920423019300F081
:1003A00039F90098019B0499032200F07AF900982A
:1003B000019A049900F0C6F82148069000F020FD4B
:1003C00007A8029000F030FE0299049A069847238D
:1003D0000B804A808A800F9B0993CA800A7300F0C1
:1003E0008DFD0BA8039000F0FAFC039A049906987F
:1003F00001230593138051809180D1801181518117
:1004000000F0AAFA049906980E9A00F06FFC04997D
:100410000698602200F01AFC049A0698114600F033
:100420008FFC069800F08EFA0599069800F0E4FD1E
:10043000069800F059FD10B080BDC04611050000BF
:1004400000400140704770477047704780B584B0E6
:10045000E5490868012210430860FFE7E2480068A8
:100460008007002801D4FFE7F8E7FFE72D49086877
:1004700080221043086000200390FFE703987F2844
:1004800005D8FFE7FFE70398401C0390F6E72549EE
:10049000086890221043086000200390FFE703984B
:1004A0007F2805D8FFE7FFE70398401C0390F6E795
:1004B000FFE71C490868032290430860CA4A106895
:1004C000194B184010600868184A10400860086806
:1004D000174A10400860174908680F2290430860C7
:1004E0001549086840F20312904308600868012229
:1004F00001921304984308600868D3079843086082
:100500000E490868904308600D4900200290086079
:1005100000F0DEF901980299C00600F01DF904B060
:1005200080BDC04604100240FFFFF2FE0C00FF0831
:10053000FFFFC2772C1002403010024034100240FE
:100540000810024086B00590049103920598006A55
:1005500001900598406A009002A900200880FFE7FA
:1005600002A8008807281DD8FFE702A80188039881
:10057000C840C00780B1FFE702A8018889000F22A8
:100580008A4001999143019104990088800081403B
:10059000019808430190FFE7FFE70298401C02A979
:1005A0000880DDE702A908200880FFE702A800888C
:1005B0000F281FD8FFE702A801880398C840C0078A
:1005C00090B1FFE702A80188890020390F228A40F4
:1005D000009991430091049900888000203881405F
:1005E000009808430090FFE7FFE70298401C02A92B
:1005F0000880DBE701980599086200980599486230
:1006000006B0704782B0019000910098019988620D
:1006100002B0704787B00690059104920393069844
:10062000006801900698C068009002A90020088028
:10063000FFE702A800880F282BD8FFE702A801884F
:100640000398C840C007F0B1FFE702A8018849003D
:10065000032213468B40019999430191059B018820
:1006600049008B40019919430191018849008A4052
:1006700000999143009104990088400081400098BE
:1006800008430090FFE7FFE70298401C02A908809A
:10069000CFE701980699086000980699C86007B0EE
:1006A000704710B586B0059004A8017003920293BC
:1006B0000078012806D1FFE7029A0599486810439F
:1006C000486005E0029A0599486890434860FFE752
:1006D00005988068009001A900200880FFE701A824
:1006E00000880F281DD8FFE701A801880298C8409C
:1006F000C00780B1FFE701A80188490003228A40B2
:10070000009991430091039900884000814000982E
:1007100008430090FFE7FFE70198401C01A908800B
:10072000DDE700980599886006B010BD80B582B0FD
:10073000002001906946087000F0E4F8FFF7EAFD38
:10074000FFF7D8FD034840F2F411FFF715FEFFE76D
:10075000FEE7C046E703000082B0019000910198D7
:100760000099044A1140084303490860BFF34F8FC2
:1007700002B0704780FFFF1F08ED00E081B0014626
:100780006846018000881F220146114001238B40EA
:1007900081094A4A88581843885001B07047C046BA
:1007A00081B001466846018000881F220146114041
:1007B00001238B408109414A88589843885001B0F1
:1007C0007047C04681B001466846018000881F22FC
:1007D0000146114001238B408109384A885818434B
:1007E000885001B07047C0460010024084B000201D
:1007F00003900290314908680122120410430860F6
:10080000FFE70398401C03902C480068012149042D
:1008100008400290FFE702990020019039B9FFE7F4
:1008200003982749401A411E88410190FFE701982B
:10083000C0070028E5D1FFE72048006880030028B2
:1008400002D4FFE7FFE7FEE71E49086802221043D3
:100850000522904308601C490091086808600868F8
:100860000860086808600868184A1040086008684E
:100870001D22120410430860104908680122120664
:1008800010430860FFE70D4800688001002801D48C
:10089000FFE7F8E70C4908680322904308600868FE
:1008A000022210430860FFE7074800680C21084057
:1008B000082801D0FFE7F7E704B0704700100240B6
:1008C000FFFF00000020024004100240FFFFC2773B
:1008D00080B5FFF78BFF80BD81B0009000980428A1
:1008E00006D1FFE70649086804221043086005E0C6
:1008F00003490868042290430860FFE701B070478D
:1009000010E000E080B50420C043FFF7E5FF084891
:100910000068FFF76EFC0749FFF72DFC014606480B
:10092000016000680549FFF7E9FB0549086080BDE3
:10093000000000200024F44A0C00002000007A444B
:100940000800002081B000900099086880221043C0
:10095000086001B07047000084B0039002A80180D5
:10096000019200880090032800D964E100998A0070
:1009700001A080188746C04600F006B800F063B8B2
:1009800000F0CBB800F023B90399086A0122904324
:10099000086203998869032290438861019802885C
:1009A0000399086A104308620399086A0222904377
:1009B0000862019882880399086A104308620398C4
:1009C0009E4988420FD0FFE703989D4988420AD08C
:1009D000FFE703989B49884205D0FFE703989A49AF
:1009E00088422FD1FFE70399086A042290430862E6
:1009F000019842880399086A104308620399086ABB
:100A00000822904308620198C2880399086A10433B
:100A100008620399486840F20012904348600198C8
:100A2000028903994868104348600399486840F276
:100A30000022904348600198428903994868104316
:100A40004860FFE7F8E00399086A102290430862C3
:100A50000399886940F200329043886101980088C8
:100A600002010399086A104308620399086A202268
:100A7000904308620198808802010399086A104334
:100A8000086203986D49884233D1FFE70399086AE9
:100A90004022904308620198408802010399086A45
:100AA000104308620399086A802290430862019803
:100AB000C08802010399086A1043086203994868D4
:100AC00040F20042904348600198008982000399F7
:100AD0004868104348600399486840F60002904314
:100AE0004860019840898200039948681043486033
:100AF000FFE70398F64988420ED1FFE7039948685B
:100B000040F20042904348600198008982000399B6
:100B1000486810434860FFE78EE00399086A40F296
:100B20000012904308620399C86903229043C86188
:100B30000198008802020399086A10430862039929
:100B4000086A40F2002290430862019880880202FD
:100B50000399086A104308620398DC49884235D13A
:100B6000FFE70399086A40F2004290430862019847
:100B7000408802020399086A104308620399086AD0
:100B800040F60002904308620198C088020203996F
:100B9000086A104308620399486841F200029043D2
:100BA0004860019800890201039948681043486031
:100BB0000399486842F200029043486001984089D6
:100BC00002010399486810434860FFE734E0039945
:100BD000086A41F20002904308620399C86940F232
:100BE00000329043C8610198008802030399086AA3
:100BF000104308620399086A42F2000290430862B7
:100C00000198808802030399086A104308620398D8
:100C1000F34988420ED1FFE70399486844F2000285
:100C20009043486001980089820103994868104305
:100C30004860FFE700E0FFE704B07047002C014088
:100C400000400140004401400048014084B003904E
:100C500002A8018001A90A8000880090032841D8D9
:100C600000998A0001A080188746C04600F006B8A7
:100C700000F010B800F01CB800F026B8039988699D
:100C800070229043886101A8028803998869104303
:100C9000886128E00399886947F2000290438861DF
:100CA00001A80088020203998869104388611AE04C
:100CB0000399C86970229043C86101A8028803990A
:100CC000C8691043C8610EE00399C86947F2000281
:100CD0009043C86101A8008802020399C8691043C3
:100CE000C86100E0FFE704B07047000084B00390E3
:100CF00002A8018001920088009003281CD8009966
:100D00008A0001A08018874600F006B800F008B8F5
:100D100000F00AB800F00CB80198039948630CE0A1
:100D200001980399886308E001980399C86304E077
:100D300001980399086400E0FFE704B070470000E1
:100D400084B0039002A8018001A90A800088009065
:100D5000032841D800998A0001A080188746C04620
:100D600000F006B800F010B800F01CB800F026B88B
:100D70000399886908229043886101A80288039931
:100D800088691043886128E00399886940F6000269
:100D90009043886101A80088020203998869104382
:100DA00088611AE00399C86908229043C86101A8C4
:100DB00002880399C8691043C8610EE00399C869A5
:100DC00040F600029043C86101A80088020203991E
:100DD000C8691043C86100E0FFE704B0704781B004
:100DE0000090009900200880009948800099888030
:100DF0000099C880009908810099488101B0704726
:100E000080B58AB00990099808907649884226D022
:100E1000FFE708982C49884229D0FFE708987249D3
:100E200088422CD0FFE708986D4988420FD0FFE731
:100E300008986E4988422BD0FFE708986C49884291
:100E40002FD0FFE708986B49884232D039E0254817
:100E50000790FFF7B7FC0798FFF7A2FC32E02048A5
:100E60000690FFF7AFFC0698FFF79AFC2AE01B48B4
:100E70000590FFF7A7FC0598FFF792FC22E040F2EF
:100E800008400490FFF79EFC0498FFF789FC19E0E6
:100E900040F210300390FFF795FC0398FFF780FCB9
:100EA00010E00D480290FFF78DFC0298FFF778FCE8
:100EB00008E008480190FFF785FC0198FFF770FCF7
:100EC00000E0FFE70AB080BD00100040002C0140A8
:100ED0000040014012030000110300000404000060
:100EE000010400000B03000081B000900099086825
:100EF00001221043086001B07047000082B00190E9
:100F000000910098008801998862019834498842CC
:100F100005D0FFE701983349884212D1FFE70199D4
:100F20000868702290430860009842880199086818
:100F3000104308600098828801990868104308608F
:100F4000FFE7009880680199C862019824498842A7
:100F500019D0FFE701982349884214D0FFE7019890
:100F6000214988420FD0FFE70198204988420AD0E2
:100F7000FFE701981E49884205D0FFE701981D4907
:100F800088420DD1FFE70199086840F20032904392
:100F900008600098C2880199086810430860FFE75C
:100FA00001980F4988420FD0FFE701980F49884206
:100FB0000AD0FFE701980E49884205D0FFE7019863
:100FC0000C49884205D1FFE70098007B019908632E
:100FD000FFE70199486901221043486102B0704758
:100FE000002C01400004004000200040004001406F
:100FF000004401400048014082B001906846017001
:101000000078012807D1FFE70199486C48F20002F7
:101010001043486406E00199486C48F2000290438E
:101020004864FFE702B0704781B00090009900204B
:1010300008800099488000998880009A034991604F
:101040000099C8800099087301B07047FFFF000045
:1010500002E008C8121F08C1002AFAD17047704781
:10106000002001E001C1121F002AFBD170470000DF
:101070009010000800000020080000005010000838
:101080009810000808000020080400006010000804
:0810900000A24A040000000068
:04000005080000CD22
:00000001FF
