:020000040800F2
:1000000018050020E1000008290A0008650800081A
:1000100000000000000000000000000000000000E0
:100020000000000000000000000000002D0A000891
:1000300000000000000000002B0A00082F0A000842
:10004000F3000008F3000008F3000008F3000008C4
:10005000F3000008F3000008F3000008F3000008B4
:1000600000000000F3000008F3000008F30000089F
:10007000F3000008F3000008F3000008000000008F
:10008000F3000008F300000800000000F30000087F
:10009000F3000008F3000008F3000008F300000874
:1000A000F3000008F3000008F30000082D0B00081F
:1000B000F300000800000000000000000000000045
:1000C000F300000800000000F30000080348854624
:1000D00000F0E0FA00480047E91000081805002089
:1000E0000448804704480047FEE7FEE7FEE7FEE7D6
:1000F000FEE7FEE7310A0008CD000008D2B201E0B9
:100100000270401C491EFBD270470022F6E710B572
:1001100013460A4604461946FFF7F0FF204610BD75
:10012000024670B54A40D30FDB0740002DD04A008D
:100130002AD0010E140E000212020919400A520AB6
:100140008418E50104465443000A120A2E04504361
:10015000A4194219200CC543AA18120C0125AD039D
:10016000521C521912047F39240400D0521C10432F
:1001700001D44000491EC2B20C06C0092018401C20
:100180004008802A02D003E0002070BD40084000F3
:10019000002900DA0020184370BD70B502464A40BD
:1001A000D50F40004A00ED0740085208002814D03F
:1001B000002A12D0C40DD30D41020120C005520205
:1001C000490A520AE41A091812187D34914201D3DF
:1001D000641C00E04900002C01DA002070BD0023FF
:1001E000914201D3891A0343400849000028F7D1FE
:1001F00000290AD0914202D10121C90705E09142AC
:1002000001D2012101E00121C943E005C0184019D4
:1002100000F038F870BD10B500229623114600F0AA
:1002200039F810BDF0B51FB40646002082B005466F
:100230004024019100901BE0019922460F46304670
:1002400000F06FFA049A059B801A994110D310466A
:100250001946224600F055FA361A8F410197224678
:1002600001200021009F00F04CFA38184D41009009
:100270002046641E0028DFDC019B00982946324698
:1002800007B0F0BD002904DA401C490001D1400844
:100290004000704770B40024050C05D11024000400
:1002A00002D1002921D01124050E01D10002083409
:1002B000050F01D10001241D850F01D18000A41C70
:1002C000002801DB4000641C002908D020252E1BDB
:1002D0000D46F540A14000D0012129430843010605
:1002E0001B1B000ADB1D02D5002070BC7047DB051C
:1002F000181880180029F8DA401C4900F5D170BCA4
:100300004008400070470000F0B5074608465840D6
:1003100087B0C00F049048000E46590040084908B5
:10032000BC1A884105D2384631461E4617460B4650
:1003300002465800400810434CD0300D0390400551
:100340005900400D490D0590401A0290402872DA7C
:1003500018030121000B090508430190049800923D
:10036000002805D001995242002088410092019056
:10037000029840210A1A0199009800F0C2F9054636
:100380000C466B4607CB00F0DDF9C0197141039AAA
:100390000E0D0023D71756401A467A40164344D014
:1003A000049A002A2DD0029A012A039A15DC12051C
:1003B000C01A914101263605001C7141D20F059EDD
:1003C000D2070093019202962A46234600F0DAF9FA
:1003D00007B0F0BD38463146FAE71605224A0F4607
:1003E000B218C01AB74101210905001C4F4100187D
:1003F0007F41114618187941E20F10436D1964418D
:1004000013E0E2076D0815436408C2071443039A1A
:1004100001261205C01A91413605001C7141CE0714
:10042000400830434908C01851412A46234600F08D
:100430009CF9CDE7FFE7049801224000C117121A8A
:1004400000238B4104983146C417381AA141EEE7C6
:1004500030B40124E407634030BC55E730B40124D4
:10046000E407614030BC4FE70000E0FFF0B51FB487
:1004700088B00B990998002448400999C00F490099
:1004800049080991C0070B990090490049080B9150
:1004900009990898A64608431CD00B990A98084366
:1004A00018D0099801244000420D4800410D0998D8
:1004B00024050003000B204309900B980003000B58
:1004C00020430B9050181C494018002201901446FC
:1004D000104605E0002001460DB0F0BD032801DA0A
:1004E000034600E003239C46C11A0AAE0AE05F00FF
:1004F00008ADED5B4F00F75B7D430027AA187C41F8
:10050000491C5B1E6145F2DD410004AB5A522104D7
:10051000120C0A43240C401C0828DFDB01980290CF
:100520000099704601910090059B049A07990698DE
:1005300000F028F9D0E700000DFCFFFFF0B50C46F5
:100540005C4085B0E40FE40703944C000026640887
:1005500059009446490802460296224321D0624639
:100560000A431ED06200570D4A000E032303550DA7
:10057000012402462C492405781B1B0B360B40181E
:1005800023432643614600901C46501AB44103D3CE
:100590000098401C009002E0921800985B410028EF
:1005A00003DA0020014605B0F0BD00200121090555
:1005B0000746864611E064461D46141BB54106D326
:1005C0006546521BB341744607430C43A646CD070C
:1005D00040084908284392185B4105460D43EAD17B
:1005E0001046184313D060461946504071400843E6
:1005F00006D06046101AB34106D20122002306E05D
:1006000000220123DB0702E00122D24353100098AD
:1006100074460105381C6141029C039D0019694123
:1006200000F0A3F8BFE70000FD0300004A00090343
:100630000123090B1B0519430A4B10B5520D9A42B1
:1006400002DA0020014610BD064B34339A4203DC27
:100650009A1A00F066F810BD034BD21800F051F85A
:1006600010BD0000FF030000CDFBFFFF10B5002907
:1006700004DB0124E40740428C412146002B04DBCB
:100680001C460123DB075242A341994200D190420C
:1006900010BD00001CB509480090094801900546AE
:1006A0000126009C05E0E36807CC33430C3C9847E7
:1006B0001034AC42F7D3FFF70DFD00007C22000898
:1006C0009C22000870B50446002903D00020202297
:1006D000012310E0002801D00020C043C046C046DE
:1006E0000DE02546D5408D4205D30D469540641B4F
:1006F0001D46954040191546521E002DF1DC21463D
:1007000070BD10B5202A04DB0146203A914000203C
:1007100010BD914020239C1A0346E34019439040AA
:1007200010BD10B5202A04DB0846203AD040002135
:1007300010BD0B46D340D0402024A21A914008435C
:10074000194610BD10B5202A06DBCB170846203A03
:100750001041C1170B4306E00B461341D040202443
:10076000A21A91400843194610BD10B5002B08DAB3
:100770000024401C614192185B411A4301D140089A
:10078000400010BDF0B51FB482B005460C0003D088
:10079000084601F0EDF802E001F0EAF820300246E8
:1007A000009021462846FFF7ACFF049B059A0446BB
:1007B0000F4618431143084314D0184610431BD06A
:1007C000009840210A1A18460599FFF7AAFF054626
:1007D0000E46009A05990498FFF793FF084305D049
:1007E000012004E02046394607B0F0BD0020C117C3
:1007F00005430E432C43374300990E986305401A76
:100800007905E40A00220C43FD0A0A3002D50020D3
:100810000146E9E70105101969410C9C0D9D00197D
:100820006941FFF7A2FFDFE780B582B0014601A86A
:10083000017000780090012804D0FFE7009802289A
:1008400006D00BE0284844F2000100F0B9FB06E0B6
:10085000254848F2000100F0B3FB00E0FFE702B0DA
:1008600080BDC046FFE7FEE780B5054800F0FCFD0F
:100870000448002101224EF2000300F0A9FB80BDD4
:10088000120500000004004880B586B0154800F04D
:10089000EBFD15480190012105910022029244F2DE
:1008A0000003009300F094FB0198029A059948F226
:1008B0000003049300F08CFB009B01980299032233
:1008C000039200F0CCFB01980299039A049B00F07C
:1008D000C6FB0598FFF7A8FF0220FFF7A5FF06B0AB
:1008E00080BDC046130500000008004880B58AB0EE
:1008F0000990334800F0B8FD324800F0B5FD0920FA
:10090000C00604900121059140F20022029200F0FD
:10091000F7FA0498059940F20042069200F0F0FAC6
:10092000029B0498059A0221039100F051FB029B5F
:100930000498059A0021079100F091FB039904980F
:10094000059A069B00F044FB0498059A069B0799BC
:1009500000F085FBAD48089000F0CCFE07990898A0
:1009600000F0E1FF0799089800F0B9FF079908988F
:1009700000F091FF0898099900F058FE08980421AA
:1009800000F09EFF0898082100F0BEFF0898402163
:1009900000F0DAFE089800F0E6FEFFE79B480A49FF
:1009A00000F0F9FE08B9FFE7F8E79848019006491A
:1009B00000F0E2FE0198042100F00BFF0AB080BDB8
:1009C000110500000E0600000407000080B58AB083
:1009D0001B200021019100F0A3FB40F2005000F029
:1009E00043FD0220029000F09BF9019A029803A9AE
:1009F0008A76724B059301234B76069240F20013E0
:100A00000793084B03930A76049243F2000208927C
:100A100000F0B4F9029800F075F9029800F064F95A
:100A20000AB080BD24380140704770477047704756
:100A300080B584B034490868012210430860FFE79C
:100A4000314800688007002801D4FFE7F8E7FFE796
:100A50002E49086880221043086000200390FFE7B9
:100A600003987F2805D8FFE7FFE70398401C039011
:100A7000F6E726490868902210430860002003909A
:100A8000FFE703987F2805D8FFE7FFE70398401C9E
:100A90000390F6E7FFE71D490868032290430860CA
:100AA000194A10681A4B184010600868194A10401B
:100AB00008600868184A10400860184908680F2242
:100AC000904308601649086840F20312904308609A
:100AD0000868012201921304984308600868D3074C
:100AE000984308600F490868904308600E49002049
:100AF0000290086000F060FD01980299C00600F0C5
:100B000025FB04B080BDC046001002400410024026
:100B1000FFFFF2FE0C00FF08FFFFC2772C1002401F
:100B200030100240341002400810024080B582B0FC
:100B3000F148124900F07EFEE8B1FFE7EE480F49A8
:100B400000F058FE0220019000F0B4F9024601982E
:100B500040F200110091891A194A1170154A0121B9
:100B6000117000F0B3F80099019800F093F9019822
:100B700000F0BAF8FFE702B080BDC04604000407E9
:100B800080B582B00B480078012810D1FFE70A48F1
:100B90000A49019100F0DCFE019840F20011FFF7D4
:100BA000B4FA04490020087005490870FFE702B054
:100BB00080BDC046100000207622000812000020F0
:100BC0001100002080B582B00190CB48104900F0A0
:100BD000D3FDFFE701980078A8B1FFE701980178FD
:100BE000C54800F07BFDFFE7C348C44900F0D3FDD2
:100BF00008B9FFE7F8E7C048054900F0BDFD0198D6
:100C0000401C0190E6E702B080BDC04600380140BC
:100C10000607000081B00146684601700021405679
:100C200000280DD4FFE70021684641561F200A46E0
:100C300002400120904049098900024A8850FFE79C
:100C400001B0704700E100E070B582B0024601A833
:100C50000270009100214056002816D4FFE70024BE
:100C600001A908570322D3431840174A805809574F
:100C70008C07E50EFF24AC40A043009CA401E4B225
:100C8000AC402043194088501AE001A908780F248D
:100C9000204008380322D34318400A4A80580025D0
:100CA00049578D07EE0EFF25B540A843009DAD01C5
:100CB000EDB2B54028432140083919408850FFE77C
:100CC00002B070BD1CED00E000E400E081B0014620
:100CD000684601700078142141436D4A8858012309
:100CE0009843885001B0704781B001466846017052
:100CF000007814214143664A8858012318438850DC
:100D000001B0704781B00146684601700078142137
:100D100041435F4A885820239843885001B0704768
:100D2000B0B581B0014668460170017814221346BF
:100D30004B43574C19590125A943195101781346C2
:100D40004B43002119510478134663435F4C1951FA
:100D50000478134663434C4C195103785A434B4B68
:100D6000D150007880000F22824003490868104368
:100D7000086001B0B0BDC04604000240B0B584B008
:100D8000024603A80090027002910078FFF79EFFD0
:100D9000009B029800681C7814210A4662433A4C72
:100DA0001051029880681C780A466243374C1051F3
:100DB0000298008A1C780A466243444C10511A7803
:100DC00008465043324A80580190019843F6007417
:100DD000A043019002984468C5682C4340690443CD
:100DE00001982043019001981B785943885002983C
:100DF000007E01280AD1FFE703A8007814214143AF
:100E0000234A885840231843885009E003A80078F3
:100E1000142141431E4A8858402398438850FFE7D5
:100E20000298407E01280AD1FFE703A80078142128
:100E30004143174A885880231843885009E003A883
:100E4000007814214143124A8858802398438850DF
:100E5000FFE70298807E50B9FFE703A800781421CD
:100E600041430B4A885810239843885009E003A84F
:100E7000007814214143064A8858102318438850AB
:100E8000FFE704B0B0BDC0461000024014000240AD
:100E90000800024083B000910246009802A90A703F
:100EA000019001A800880A7814215143074A88500C
:100EB00003B0704781B00146684601700178142084
:100EC00048430249405801B07047C0460C000240F8
:100ED00080B582B00190009101A80178064800F029
:100EE000FDFBFFE70448054900F055FC08B9FFE7A2
:100EF000F8E7019802B080BD003801400707000004
:100F000086B00590049103920598006A01900598B7
:100F1000406A009002A900200880FFE702A800882C
:100F200007281DD8FFE702A801880398C840C0071A
:100F300080B1FFE702A8018889000F228A40019949
:100F400091430191049900888000814001980843F1
:100F50000190FFE7FFE70298401C02A90880DDE747
:100F600002A908200880FFE702A800880F281FD8E0
:100F7000FFE702A801880398C840C00790B1FFE7C7
:100F800002A80188890020390F228A4000999143E4
:100F9000009104990088800020388140009808431F
:100FA0000090FFE7FFE70298401C02A90880DBE7FA
:100FB00001980599086200980599486206B0704743
:100FC00082B00190009100980199886102B0704749
:100FD00087B00690059104920393069800680190EB
:100FE0000698C068009002A900200880FFE702A8C8
:100FF00000880F282BD8FFE702A801880398C84073
:10100000C007F0B1FFE702A8018849000322134698
:101010008B40019999430191059B018849008B40C0
:10102000019919430191018849008A40009991432F
:101030000091049900884000814000980843009086
:10104000FFE7FFE70298401C02A90880CFE701985C
:101050000699086000980699C86007B0704710B5F7
:1010600086B0059004A801700392029300780128CD
:1010700006D1FFE7029A059948681043486005E0E9
:10108000029A0599486890434860FFE70598806890
:10109000009001A900200880FFE701A800880F2820
:1010A0001DD8FFE701A801880298C840C00780B199
:1010B000FFE701A80188490003228A400099914373
:1010C00000910399008840008140009808430090F7
:1010D000FFE7FFE70198401C01A90880DDE70098C1
:1010E0000599886006B010BD80B582B000200190DF
:1010F0006946087000F07AFAFFF7C6FBFFF7B4FB09
:10110000E1204002FFF7F2FBFFF760FC0348FFF726
:1011100059FDFFE7FFF734FDFCE7C04668220008F1
:1011200080B584B00A46014603A80190017002A967
:101130000A700022009280560978FFF785FD009919
:1011400001984056FFF766FD04B080BD82B0019063
:10115000009101980099044A11400843034908602E
:10116000BFF34F8F02B0704780FFFF1F08ED00E014
:101170009DB01CA90870002002901B901A90199035
:10118000189017901690159014901390129011903B
:1011900010900F900E900D900C90AA490B91AA49B7
:1011A0000A91099008900791069005910490A7482C
:1011B00000680C21084080081B901B98039040B1E8
:1011C000FFE70398012807D0FFE70398022806D01D
:1011D00044E0A148179044E09F48179041E0F4484C
:1011E00001680F2292041140890C119100680121BD
:1011F000C9060840C00E10901098012804D1FFE7DE
:101200001198113011900BE011980F2803D1FFE7CE
:101210001020119003E01198801C1190FFE7FFE768
:10122000E3480068012109040840000C0F900F9862
:1012300070B1FFE7874800680F210840401C0E90FE
:101240000E998548B0FBF1F111984843179004E0DE
:1012500011997F4848431790FFE702E07E481790B6
:10126000FFE7D3480168C9B209090D910D9A08A991
:10127000895C0C9117990C9AD1401691016840F243
:1012800000721140090A0D910D9A06A9895C0C9112
:1012900016990C9AD1401591006843F60001084058
:1012A000C00A0D900D9904A8405C0C9016980C99FA
:1012B000C84014901CA800780190052800D9BCE013
:1012C00001998A0001A080188746C04600F00AB83C
:1012D00000F00BB800F00CB800F00DB800F00EB83C
:1012E00000F07DB817981890A8E016981890A5E01F
:1012F00015981890A2E0149818909FE0574800683D
:1013000040F20011084088420FD0FFE753480068C0
:10131000012109040840884203D0FFE75148139097
:1013200002E04F481390FFE756E0A148006880B202
:10133000800B1A9049480068C00F19901A980090C5
:10134000032847D800998A0001A080188746C04624
:1013500000F006B800F012B800F01EB800F02CB88B
:10136000199820B9FFE714984008139005E01698E3
:101370000321B0FBF1F01390FFE72CE0199820B99E
:10138000FFE714988008139005E016980521B0FB3C
:10139000F1F01390FFE71EE0199830B9FFE71498B9
:1013A0000621B0FBF1F0139005E016980721B0FB81
:1013B000F1F01390FFE70EE0199820B9FFE71498B9
:1013C000C008139005E016980921B0FBF1F01390C6
:1013D000FFE700E0FFE7FFE7139818902EE01F48B3
:1013E0000068800718B9FFE71498129022E01B48A4
:1013F000006803210840012803D1FFE717981290E5
:1014000017E01648006803210840022804D1FFE7CE
:1014100048F2000012900BE01048006803210840D9
:10142000032803D1FFE70C48129000E0FFE7FFE735
:10143000FFE7FFE71298189000E0FFE718981DB04B
:101440007047C04606070809010203040410024061
:1014500000093D002C10024000127A0030100240BA
:10146000003FAB01809FD50081B0014668460180F6
:1014700000881F220146114001238B408109494AFF
:1014800088581843885001B07047C04681B0014663
:101490006846018000881F220146114001238B40CD
:1014A0008109404A88589843885001B07047C04627
:1014B00081B001466846018000881F220146114024
:1014C00001238B408109374A88581843885001B05E
:1014D0007047C04684B000200390029031490868EC
:1014E0000122120410430860FFE70398401C039098
:1014F0002C4800680121490408400290FFE7029946
:101500000020019039B9FFE703982749401A411E8E
:1015100088410190FFE70198C0070028E5D1FFE767
:10152000204800688003002802D4FFE7FFE7FEE7B9
:101530001E490868022210430522904308601C4996
:101540000091086808600868086008680860086812
:10155000184A1040086008681D22120410430860F1
:10156000104908680122120610430860FFE70D4881
:1015700000688001002801D4FFE7F8E70C490868FB
:101580000322904308600868022210430860FFE7C6
:10159000074800680C210840082801D0FFE7F7E75A
:1015A00004B0704700100240FFFF0000002002401E
:1015B00004100240FFFFC27780B5FFF78BFF80BDAC
:1015C00081B000900098042806D1FFE7064908681A
:1015D00004221043086005E0034908680422904390
:1015E0000860FFE701B0704710E000E080B504201C
:1015F000C043FFF7E5FF08480068FEF70CFE074907
:10160000FEF7CBFD01460648016000680549FEF77C
:1016100087FD0549086080BD040000200024F44ACD
:101620000C00002000007A440800002080B588B03B
:10163000079006910020059004900390029007986F
:1016400001903D4988420AD0FFE701983B49884212
:101650000AD1FFE70520FFF78BFD059005E002208A
:10166000FFF786FD059000E0FFE70798006800049B
:10167000002818D5FFE70598400006994A08801809
:10168000B0FBF1F0029002981349084004900298D0
:101690000007400F039004A8008803A909880843A5
:1016A0000799C86016E0059806994A088018B0FBAB
:1016B000F1F00290029808490840049002980F2126
:1016C0000840039004A8008803A9098808430799E3
:1016D000C860FFE708B080BDF0FF000082B0019055
:1016E00000910098024908400199886202B0704751
:1016F000FF01000080B584B00390039802900E496A
:1017000088420DD0FFE702980C49884210D1FFE7CC
:101710000C480190FFF7CCFE0198FFF7B7FE08E0F8
:1017200007480090FFF7C4FE0098FFF7AFFE00E007
:10173000FFE704B080BDC0460044004000380140CF
:10174000110400000E03000082B001900091019985
:101750008868402290438860009A01998868104305
:10176000886002B0704781B000900099086801223B
:101770001043086001B0704782B001906846018054
:1017800000881F210840012282400199086A104305
:10179000086202B0704784B000910146009802913F
:1017A00001A9088002980A889209805809881F2296
:1017B0001140C840C00720B1FFE703A9012008700D
:1017C00003E003A900200870FFE703A8007804B035
:1017D000704782B001906846018000881F22014650
:1017E000114001238B400199820988581843885081
:1017F00002B0704782B00190009100980C49884275
:1018000008D1FFE70199D022885848F20003984395
:1018100088500BE000981F2109040840000C0122A9
:1018200082400199086A10430862FFE702B07047DE
:1018300009340F3410B585B0039002910020019057
:101840000090039802A9098889094058029C1F2327
:101850001C4001210A46A240104001900398029AC0
:10186000920D8058029A1B041A40120C91400840B5
:101870000090009838B1FFE7019820B1FFE704A974
:101880000120087003E004A900200870FFE704A805
:10189000007805B010BD82B00190009101990868F0
:1018A0000122904308600199086840F20062904369
:1018B0000860009A019908681043086002B07047F8
:1018C00082B0019000910199086804229043086059
:1018D000009A019908681043086002B0704782B00E
:1018E00001900091019908680122904308600199D4
:1018F000486843F2000290434860009A01994868A2
:101900001043486002B0704782B001900091019985
:101910000868082290430860009A019908681043FB
:10192000086002B0704782B0019000910199086888
:101930000122904308600199086841F20002904337
:101940000860009A019908681043086002B0704767
:101950000FB410B503A9044B044A029800F0E8F84C
:1019600010BC08BC04B01847D10E000800000020CD
:101970002021020C01D010211046020A01D010468D
:101980000839020901D01046091F820801D010460B
:10199000891E420801D0881E7047081A704702E06D
:1019A00008C8121F08C1002AFAD1704770470020EA
:1019B00001E001C1121F002AFBD17047F0B51FB42E
:1019C00086B00998089A030D0021024314D05148AB
:1019D000514A1818504305141198012810981AD02C
:1019E000281A401C00264D4F4D4900960191049045
:1019F000002812DA444211E01198012449A3012879
:101A000001D11098C1430698119A84600360C260A6
:101A100041600BB0F0BD4042E4E7044621050020E0
:101A20003F4A001C51410391029012E0E00707D0A9
:101A300032463B4601990098FEF718FD019100904F
:101A400032463B4610461946FEF710FD06460F4645
:101A50006410002CEAD10498039B0028029A09998B
:101A6000089806DAFEF702FD019B009AFEF7FEFCDD
:101A700005E0FEF763FD019B009AFEF75FFD04465B
:101A80000E460022284BFEF7F1FD03D80020C0438C
:101A9000014607E00022254B20463146FEF734FC84
:101AA000FEF7C4FD102409E0002C0ADB0A22002303
:101AB000FEF7B8FB079B30321A55641E02460A43F4
:101AC000F2D11122641C079B121B1C19119B012BC4
:101AD00003D0012308430ED10AE0084304D01120AB
:101AE00010900020119077E71098151A6D1E0BE0EA
:101AF0001098824202DD00236D1C03E0824201DA6D
:101B000000236D1E002BEED0069811998260C160F3
:101B100030C07EE701FCFFFF104D000000001440C4
:101B20000000F03F300000000000F0430000E03F04
:101B3000FFB597B00646002518E2252877D1002486
:101B40002746FD49049400E00443761C32780120C6
:101B5000203A90400842F7D130782A280ED002224D
:101B6000307801463039092916D804990A23594397
:101B7000303940181443761C0490F1E7189802C8D5
:101B800004911890002904DA0120400304434842DC
:101B9000049002200443761C30782E2814D10420AF
:101BA00004437078761C2A2809D11898761C80C8BE
:101BB000189009E00A214F43303FC719761C30784E
:101BC000014630390929F5D930786C2810D006DC67
:101BD0004C281AD068280ED06A2817D104E074283F
:101BE00013D07A2812D110E00120400504430CE004
:101BF0000121090501E0032109050C4371788142A7
:101C000003D1012000052418761C761C3078119031
:101C100066280BD013DC58287DD009DC00287BD047
:101C20004528F6D04628F4D047281AD1A5E118E077
:101C3000632835D0642870D0652812D19DE17028C2
:101C40006CD008DC6728F1D069287BD06E280DD0D5
:101C50006F2806D1BAE073282ED0752871D0782865
:101C600059D01A9A199990476D1C7EE16002400F75
:101C7000022809D003280DD00428189801680DD037
:101C80000D60001D189070E11898EA1701680D604A
:101C90004A60F6E7189801680D80F2E70D70F0E7EA
:101CA00018986A4601781172001D18900020507231
:101CB00002A80090012005E0189802C818900020A2
:101CC0000091C04361070DD5002101E00199491C35
:101CD0000191B94212DA8142F8DB009A515C002985
:101CE000F4D10BE0002101E00199491C01918142EE
:101CF000FADB019A0099895C0029F5D101990498D1
:101D00001A9B471A21463846199A00F097FA01990A
:101D1000401945180BE04FE02CE113E04EE000982D
:101D200000990078491C00911A9A199990470198D6
:101D3000401E0190401CF2D1214638461A9B199A48
:101D400010E137E00A200021009001916002410F6C
:101D5000022907D0189A01CA1892C217944603297B
:101D600008D00AE01898C01DC108C90005C918911B
:101D7000944607E000B2C2179446042902D140B24B
:101D8000C1178C4600226146944506DA0A460021B6
:101D9000404291418C462D2102E0210504D52B21A2
:101DA0006A461173012103E0E10701D02021F7E722
:101DB000029155E00A200AE0102008E0102000906F
:101DC0000021042004430191082703E0082000219A
:101DD000019100906002410F022907D0189A01CAB0
:101DE000189200229446032908D008E01898C01DD4
:101DF000C108C90005C91891944603E080B20429BE
:101E000000D1C0B200210291210729D51199702972
:101E100006D0009A1021019B4A401A4305D00EE0DB
:101E200040216A461173012108E06146014306D052
:101E300030216A4611731199517302210291009A5F
:101E40000821019B4A401A430AD16146014301D14E
:101E5000610705D530216A46117301217F1E029169
:101E60001199582904D035A10E910DA90D910DE0BD
:101E700037A1F9E76146019B009AFEF7D3F90E9B63
:101E80008C469B5C0D9A521E0D9213706146014365
:101E9000F0D10D9805A9081A20300190600703D5EC
:101EA00001200004844300E001270198874201DDFE
:101EB000381A00E000200199009041180298091892
:101EC0000498401A0490E00306D421461A9B199AFC
:101ED000049800F0B3F94519002706E003A81A9A00
:101EE000C05D199990476D1C7F1C02988742F5DBF5
:101EF000E0030CD521461A9B199A049800F09EF92C
:101F0000451904E01A9A3020199990476D1C0099E0
:101F1000481E00900029F5DC08E00D980D99007826
:101F2000491C0D911A9A199990476D1C0199481EE8
:101F300001900029F1DC63E10928010030313233DE
:101F400034353637383961626364656600000000F5
:101F500030313233343536373839414243444546DF
:101F60000000000000F05AF94519761C307800286E
:101F700000D0E2E528461BB0F0BD600700D406277C
:101F80001898C01DC108C90048680A680831C30F05
:101F9000DB071891190001D09CA108E0210501D5AB
:101FA0009BA104E0E10701D09AA100E09AA14300BF
:101FB00011985B08109165280CD006DC452809D0E3
:101FC00046281DD0472841D141E0662818D067280F
:101FD0003CD13CE00021112F01DB112000E0781CF6
:101FE0000191009008A911A8FFF7E8FC1399059149
:101FF0000021119A15927F1C12980197009150E0D0
:102000000120C00703900120019008A9009711A8A2
:10201000FFF7D4FC139A149905920022119B0092A9
:1020200012981593059A0192002901D0104602E0FA
:10203000791C40180190381A01D5019804E04042FB
:10204000401E0090781C0190C01B029043E0012FBD
:1020500000DA01270021112F01DD112000E03846B0
:102060000191009008A911A8FFF7A8FC1399059108
:10207000119A0021129815920091019721070CD412
:102080000599B94201DB019900E00191012904DDC4
:10209000159A491E515C302906D0B84201DA011D5B
:1020A00005DA0121029115E00199491EEDE70028AA
:1020B00005DC0099411800910199091A03E0019A81
:1020C000411C914200DD01910099401A401C029090
:1020D0000120C0070390200706D40299019881428D
:1020E00002DB0020C043029000206946C87707AF9A
:1020F000012103980337C907884224D00220119098
:102100002B201290039800280CDA404203902D20D7
:10211000129007E00A210398FEF7D4FA30317F1EAF
:10212000039039701199481E11900029F2DC039830
:102130000028EFD1791E12980870307820210840CD
:102140004530BF1E387006A8C01BC01D03901098F4
:102150000078002800D00120019941180298C0178A
:102160000918039809180498401A401E0490E003C7
:1021700006D421461A9B199A049800F05FF8451975
:1021800010980078002803D01A9A199990476D1C6E
:10219000E00324D521461A9B199A049800F04EF8C2
:1021A00045191CE00098002807DB00990598884233
:1021B00003DD1598405C199901E0199930201A9AAD
:1021C000904700986D1C401C00900298401E0290A1
:1021D000002804D11A9A2E20199990476D1C019954
:1021E000481E01900029DDDC05E038781A9A7F1C32
:1021F000199990476D1C0399481E03900029F4DC3F
:1022000021461A9B199A0498ACE600002D000000A4
:102210002B0000002000000000000000F8B504467C
:1022200000251E461746880404D405E039462020C0
:10223000B0476D1C641EF9D52846F8BDFFB50446AD
:10224000002581B01E46C80301D5302700E02027B5
:10225000880404D505E038460399B0476D1C641E18
:10226000F9D5284605B0F0BD48656C6C6F20576FF6
:10227000726C640D0A0025730D0A0000A02200088C
:1022800000000020080000009E190008A822000895
:102290000800002010050000AE1900080000000032
:0822A0000000000000A24A0446
:04000005080000CD22
:00000001FF
