:020000040800F2
:1000000010040020E1000008FD0300080D030008B3
:1000100000000000000000000000000000000000E0
:100020000000000000000000000000002D04000897
:100030000000000000000000FF0300082F0400087B
:10004000F3000008F3000008F3000008F3000008C4
:10005000F3000008F3000008F3000008F3000008B4
:1000600000000000F3000008F3000008F30000089F
:10007000F3000008F3000008F3000008000000008F
:10008000F3000008F300000800000000F30000087F
:10009000F3000008F3000008F3000008F300000874
:1000A000F3000008F3000008F3000008F300000864
:1000B000F300000800000000000000000000000045
:1000C000F300000800000000F30000080348854624
:1000D00000F0ECF800480047A10D000810040020D3
:1000E0000448804704480047FEE7FEE7FEE7FEE7D6
:1000F000FEE7FEE731040008CD000008024670B5B7
:100100004A40D30FDB0740002DD04A002AD0010E11
:10011000140E000212020919400A520A8418E5015D
:1001200004465443000A120A2E045043A4194219EB
:10013000200CC543AA18120C0125AD03521C5219FC
:1001400012047F39240400D0521C104301D4400013
:10015000491EC2B20C06C0092018401C4008802A63
:1001600002D003E0002070BD40084000002900DA02
:100170000020184370BD70B502464A40D50F4000BC
:100180004A00ED0740085208002814D0002A12D077
:10019000C40DD30D41020120C0055202490A520A82
:1001A000E41A091812187D34914201D3641C00E04E
:1001B0004900002C01DA002070BD0023914201D3D8
:1001C000891A0343400849000028F7D100290AD0C2
:1001D000914202D10121C90705E0914201D20121DA
:1001E00001E00121C943E005C018401900F01CF8E6
:1001F00070BD10B500229623114600F01DF810BD09
:10020000410040020122400AD205090E80187F29D0
:1002100001DA00207047962903DC9622511AC84063
:100220007047963988407047002904DA401C49001D
:1002300001D140084000704770B40024050C05D17E
:100240001024000402D1002921D01124050E01D16F
:1002500000020834050F01D10001241D850F01D1D2
:100260008000A41C002801DB4000641C002908D089
:1002700020252E1B0D46F540A14000D00121294329
:10028000084301061B1B000ADB1D02D5002070BCC1
:100290007047DB05181880180029F8DA401C49005F
:1002A000F5D170BC4008400070470000064C0125A5
:1002B000064E05E0E36807CC2B430C3C984710340E
:1002C000B442F7D3FFF706FFF41300081414000834
:1002D00080B582B0014601A8017000780090012825
:1002E00004D0FFE70098022806D00BE0204844F233
:1002F000000100F0B8FC06E01D4848F2000100F0E3
:10030000B2FC00E0FFE702B080BDC046FFE7FEE7B9
:1003100080B586B0154800F06DFD154801900121AB
:1003200005910022029244F20003009300F0ABFC1E
:100330000198029A059948F20003049300F0A3FC87
:10034000009B019802990322039200F0E3FC0198BC
:100350000299039A049B00F0DDFC0598FFF7B8FFB3
:100360000220FFF7B5FF06B080BDC04613050000B0
:100370000008004810B58EB01E4800F03BFD1E4836
:1003800000F038FD0920C006019000210491A02250
:10039000029200F008FC0198029B049A022100F0EE
:1003A00072FC0198029B04990322039200F0B2FCB4
:1003B0001D48069000F04CFE07A8059000F048FF8D
:1003C000039B049A0599069844F20004089440F2AD
:1003D0000414079440F2007409940C9340F2002333
:1003E0000A930D920B9200F097FE069800F0BCFD68
:1003F0000EB010BD110500000C06000070477047DC
:1004000080B582B001A90870FFE70748022100F01B
:1004100043FE08B9FFE7F8E701A80178024800F0B9
:10042000F1FD02B080BDC04600300140704770470A
:1004300080B584B034490868012210430860FFE7A2
:10044000314800688007002801D4FFE7F8E7FFE79C
:100450002E49086880221043086000200390FFE7BF
:1004600003987F2805D8FFE7FFE70398401C039017
:10047000F6E72649086890221043086000200390A0
:10048000FFE703987F2805D8FFE7FFE70398401CA4
:100490000390F6E7FFE71D490868032290430860D0
:1004A000194A10681A4B184010600868194A104021
:1004B00008600868184A10400860184908680F2248
:1004C000904308601649086840F2031290430860A0
:1004D0000868012201921304984308600868D30752
:1004E000984308600F490868904308600E4900204F
:1004F0000290086000F034FF01980299C00600F0F5
:1005000067FC04B080BDC0460010024004100240E9
:10051000FFFFF2FE0C00FF08FFFFC2772C10024025
:1005200030100240341002400810024010B588B06C
:1005300007AC0094208006A80290018005A80190D5
:10054000028004A8039003802A2000F0A3F90098F9
:10055000008800F06FF90198008800F06BF92B20FB
:1005600000F098F90298008800F064F90398008878
:1005700000F060F92C2000F08DF908B010BDB0B586
:1005800088B014460D4601460C9A07A8018006A9BA
:100590000D8005AD2C8004AC238003AB00931A8042
:1005A00002AB00221A8001AB1A8000880988059AE4
:1005B000521E049B5B1E92B29BB2FFF7B7FF0098DE
:1005C000008845F2000100F095FC08B0B0BD0000C5
:1005D00080B584B00C4800F00DFCBD4802900121AC
:1005E0000022019240F2E013039300F04CFB0199CA
:1005F0000298039B032200F08DFB0298039900F000
:100600003AFB04B080BDC0461205000080B596B02C
:10061000FFF7DEFFFFF7AEFEAD480290202101910B
:1006200000F021FB6420039000F054F90199029836
:1006300000F021FB039800F04DF9029840F2001100
:1006400000F019FB039800F045F9112000F022F9A1
:10065000782000F03FF9B12000F01CF9052015903A
:1006600000F002F93C20049000F0FEF8049800F03D
:10067000FBF8B22000F00EF9159800F0F5F8049898
:1006800000F0F2F8049800F0EFF8B32000F002F95F
:10069000159800F0E9F8049800F0E6F8049800F0E6
:1006A000E3F8159800F0E0F8049800F0DDF80498FD
:1006B00000F0DAF8B42000F0EDF803200A9000F022
:1006C000D3F8C020059000F0E5F82820089000F04D
:1006D000CBF8082000F0C8F80420129000F0C4F80D
:1006E000C12000F0D7F8059800F0BEF8C22000F055
:1006F000D1F80D200B9000F0B7F80020109000F01A
:10070000B3F8C32000F0C6F88D20069000F0ACF8D6
:100710002A20079000F0A8F8C42000F0BBF8069843
:1007200000F0A2F8EE2000F09FF8C52000F0B2F82B
:100730001A2000F099F8362000F0ACF8702000F094
:1007400093F8E02000F0A6F8129800F08DF822202F
:1007500000F08AF8072000F087F80A2000F084F8FB
:100760002E20099000F080F8302000F07DF8252040
:100770000E9000F079F8079800F076F8089800F0ED
:1007800073F826200C9000F06FF8099800F06CF8D0
:100790003A20149000F068F8109800F065F80120F5
:1007A000119000F061F80A9800F05EF813201390A1
:1007B00000F05AF8E12000F06DF8129800F054F8BB
:1007C000162000F051F8062000F04EF80B9800F0CB
:1007D0004BF82D200F9000F047F80C9800F044F8EB
:1007E000232000F041F827200D9000F03DF80D98EF
:1007F00000F03AF80E9800F037F80F9800F034F84F
:100800003B2000F031F8109800F02EF8119800F01D
:100810002BF8129800F028F8139800F025F8149897
:1008200000F038F8159800F01FF8292000F032F891
:1008300016B080BD80B584B003A90091088024481B
:1008400001908021029100F00EFA00984078FFF7A5
:10085000D7FD00980078FFF7D3FD0198029900F0CA
:100860000AFA04B080BDC04680B584B003A90091E7
:100870000870174801908021029100F0F4F9009867
:100880000078FFF7BDFD0198029900F0F4F904B07B
:1008900080BDC04680B586B005A9019108700C489E
:1008A00003904021029100F0DEF903988021049129
:1008B00000F0D9F901980078FFF7A2FD029903989A
:1008C00000F0D9F90398049900F0D5F906B080BD7D
:1008D0000004004880B584B003900398FFF789FCBA
:1008E00018490968FFF70AFCFFF78AFC16490860F7
:1008F000164900200860164901200860FFE71448E7
:1009000000680290FFE7002002A90978C90701905A
:1009100041B1FFE702A880780121084041424841E7
:100920000190FFE70198C0070028E8D1FFE70849D8
:10093000086801229043086004490020086004B060
:1009400080BDC0460800002014E000E018E000E090
:1009500010E000E081B00146684601700078142183
:100960004143844A885801239843885001B0704716
:1009700081B00146684601700078142141437D4AE8
:10098000885801231843885001B0704781B0014650
:1009900068460170007814214143764A8858202324
:1009A0009843885001B07047B0B581B001466846A1
:1009B00001700178142213464B436E4C19590125DE
:1009C000A9431951017813464B430021195104786A
:1009D000134663435E4C19510478134663435A4CE3
:1009E000195103785A43594BD150007880000F2297
:1009F0008240034908681043086001B0B0BDC0469A
:100A00000400024083B002AA107001910A480068F5
:100A10000199127892009140084204D0FFE769469C
:100A20000120087003E0694600200870FFE768466F
:100A3000007803B07047C04600000240B0B584B0F3
:100A4000024603A80090027002910078FFF782FF2F
:100A5000009B029800681C7814210A4662433A4CB5
:100A60001051029880681C780A466243374C105136
:100A70000298008A1C780A466243354C10511A7855
:100A8000084650433B4A80580190019843F6007451
:100A9000A043019002984468C5682C434069044310
:100AA00001982043019001981B785943885002987F
:100AB000007E01280AD1FFE703A8007814214143F2
:100AC0002C4A885840231843885009E003A800782E
:100AD00014214143274A8858402398438850FFE710
:100AE0000298407E01280AD1FFE703A8007814216C
:100AF0004143204A885880231843885009E003A8BE
:100B00000078142141431B4A885880239843885019
:100B1000FFE70298807E50B9FFE703A80078142110
:100B20004143144A885810239843885009E003A889
:100B30000078142141430F4A8858102318438850E5
:100B4000FFE704B0B0BDC0461000024014000240F0
:100B50000C00024081B00146684601700078142103
:100B60004143044A885844F200039843885001B036
:100B70007047C0460800024081B0009000990020F4
:100B8000086000994860009908760099886000998B
:100B9000C8600099487600990861009988760099A4
:100BA000486101B0704786B00590049103920598A2
:100BB000006A01900598406A009002A90020088010
:100BC000FFE702A8008807281DD8FFE702A80188D0
:100BD0000398C840C00780B1FFE702A801888900D8
:100BE0000F228A4001999143019104990088800065
:100BF0008140019808430190FFE7FFE70298401CFD
:100C000002A90880DDE702A908200880FFE702A802
:100C100000880F281FD8FFE702A801880398C84062
:100C2000C00790B1FFE702A80188890020390F2290
:100C30008A400099914300910499008880002038EF
:100C40008140009808430090FFE7FFE70298401CAE
:100C500002A90880DBE701980599086200980599C8
:100C6000486206B0704782B00190009100980199E7
:100C7000886202B0704782B001900091009801999B
:100C8000886102B0704787B0069005910492039383
:100C90000698006801900698C068009002A900209C
:100CA0000880FFE702A800880F282BD8FFE702A8DA
:100CB00001880398C840C007F0B1FFE702A8018887
:100CC0004900032213468B40019999430191059BEA
:100CD000018849008B40019919430191018849001D
:100CE0008A40009991430091049900884000814016
:100CF000009808430090FFE7FFE70298401C02A914
:100D00000880CFE701980699086000980699C860A6
:100D100007B0704710B586B0059004A80170039223
:100D200002930078012806D1FFE7029A05994868E6
:100D30001043486005E0029A05994868904348606E
:100D4000FFE705988068009001A900200880FFE770
:100D500001A800880F281DD8FFE701A80188029884
:100D6000C840C00780B1FFE701A8018849000322FD
:100D70008A40009991430091039900884000814086
:100D8000009808430090FFE7FFE70198401C01A985
:100D90000880DDE700980599886006B010BD000066
:100DA00080B584B000200290039000F0F3FAFFF7C2
:100DB000AFFAFFF72BFC029904480090A022802391
:100DC0000846FFF7DCFBFFE7FEE7C046FFFF000039
:100DD00082B00190009101980099044A11400843A3
:100DE00003490860BFF34F8F02B0704780FFFF1FB9
:100DF00008ED00E081B001466846018000881F22AE
:100E00000146114001238B408109154A8858184337
:100E1000885001B07047C04681B0014668460180E5
:100E200000881F220146114001238B4081090C4A92
:100E300088589843885001B07047C04681B0014639
:100E40006846018000881F220146114001238B4023
:100E50008109034A88581843885001B07047C0463A
:100E60000010024080B58CB00B900A9103A801904D
:100E7000FFF782FE40F20050FFF7BCFF0220029015
:100E8000FFF792FD019902980E4A03920B9A059280
:100E900001228A7640F20012049240F20042069249
:100EA00043F2000208920A9A079200220A764A76D2
:100EB000FFF7C4FD0298FFF769FD0298FFF74AFEAD
:100EC0000CB080BD0C30014082B0019068460170CA
:100ED000007830B9FFE70199486802221043486062
:100EE00005E001994868012210434860FFE702B01D
:100EF0007047000080B588B007AA01921080069163
:100F000018488021FFF7AFFE019805A90291002241
:100F100004920A804078087007984870CB48039084
:100F200040F6007100F02AF802980699FFF79AFF40
:100F30000220FFF71DFD03980499FFF7C5FFFFE7A7
:100F400002210846FFF75EFD08B9FFE7F8E7BF4852
:100F500040F2007100F012F802488021FFF78BFE8A
:100F600008B080BD0004004881B000900099086876
:100F700040221043086001B07047000084B0029026
:100F800001A801800298B149884221D1FFE701A858
:100F9000008840F2007188420BD0FFE701A800886A
:100FA00040F60071884204D0FFE703A900200870D2
:100FB00023E0029A116840F600008143116001A904
:100FC0000A8802400299086810430860FFE710E0B1
:100FD000029840680090009840F6007188430090A5
:100FE00001A8018800980843009000980299486081
:100FF000FFE703A901200870FFE703A8007804B009
:101000007047C04684B0039002A8018003988F49BE
:10101000884205D1FFE702A800880399C86015E05F
:101020000398406841F2000108400090009838B1F0
:10103000FFE703980C30019002980199087004E0D2
:1010400002A800880399C860FFE7FFE704B0704773
:1010500080B584B00390039802902E4988420ED048
:10106000FFE702987949884211D1FFE740F20C303E
:101070000190FFF7E3FE0198FFF7CEFE08E0054878
:101080000090FFF7DBFE0098FFF7C6FE00E0FFE7E9
:1010900004B080BD0E04000083B00190009101985F
:1010A00080680099084204D0FFE702A90120087077
:1010B0002BE001981749884223D1FFE7009870B9C7
:1010C000FFE701988068C004800F20B1FFE702A904
:1010D0000020087019E002A90120087015E00098AE
:1010E00070B9FFE7019880684005800F20B1FFE7E5
:1010F00002A90020087008E002A90120087004E09D
:10110000FFE702A900200870FFE702A8007803B0FB
:101110007047C0460038004086B00490039100201C
:10112000029001900090049800680290029843F2A7
:10113000400108400290049800680190019843F62D
:1011400040010840019004984068009000983E4992
:101150000840009004983D4988423DD1FFE703983C
:101160000168029808430290039841680298084376
:1011700002900398C168029808430290039801699D
:10118000029808430290039841690298084302902C
:10119000039881690298084302900398806840F29E
:1011A000007188420BD0FFE70398806840F6007119
:1011B000884204D0FFE705A90020087040E00398AA
:1011C000816840F600000140029808430290FFE762
:1011D00002980499086029E003980168019808437F
:1011E0000190039841680198084301900398C168F1
:1011F0000198084301900398016901980843019000
:101200000398416901980843019003988169019806
:101210000843019001980499086003988168009838
:1012200008430090009804994860FFE70499C86952
:1012300040F600029043C86105A901200870FFE74D
:1012400005A8007806B07047FFF0000000300140AC
:1012500081B0009000990020086000994860009AD1
:1012600040F2007191600099C8600099086100998E
:1012700048610099886101B07047000084B0002087
:10128000039002903149086801221204104308605B
:10129000FFE70398401C03902C4800680121490493
:1012A00008400290FFE702990020019039B9FFE75A
:1012B00003982749401A411E88410190FFE7019891
:1012C000C0070028E5D1FFE7204800688003002818
:1012D00002D4FFE7FFE7FEE71E4908680222104339
:1012E0000522904308601C4900910868086008685E
:1012F0000860086808600868184A104008600868B4
:101300001D221204104308601049086801221206C9
:1013100010430860FFE70D4800688001002801D4F1
:10132000FFE7F8E70C490868032290430860086863
:10133000022210430860FFE7074800680C210840BC
:10134000082801D0FFE7F7E704B07047001002401B
:10135000FFFF00000020024004100240FFFFC277A0
:1013600080B5FFF78BFF80BD81B000900098042806
:1013700006D1FFE70649086804221043086005E02B
:1013800003490868042290430860FFE701B07047F2
:1013900010E000E080B50420C043FFF7E5FF0848F7
:1013A0000068FEF726FF0749FEF7E5FE01460648FE
:1013B000016000680549FEF7A1FE0549086080BD8F
:1013C000000000200024F44A0C00002000007A44B1
:1013D0000800002002E008C8121F08C1002AFAD144
:1013E00070477047002001E001C1121F002AFBD1A5
:1013F00070470000181400080000002008000000DA
:10140000D41300082014000808000020080400007D
:10141000E41300080000000000A24A0400000000DD
:04000005080000CD22
:00000001FF
