:020000040800F2
:1000000010040020E1000008E103000819030008C3
:1000100000000000000000000000000000000000E0
:10002000000000000000000000000000270400089D
:10003000000000000000000025040008FD04000886
:10004000F3000008F3000008F3000008F3000008C4
:10005000F3000008F3000008F3000008F3000008B4
:1000600000000000F3000008F3000008F30000089F
:10007000F3000008F3000008F3000008000000008F
:10008000F3000008F300000800000000F30000087F
:10009000F3000008F3000008F3000008F300000874
:1000A000F3000008F3000008F3000008F300000864
:1000B000F300000800000000000000000000000045
:1000C000F300000800000000F30000080348854624
:1000D00000F0ECF800480047CF07000810040020AB
:1000E0000448804704480047FEE7FEE7FEE7FEE7D6
:1000F000FEE7FEE701050008CD000008024670B5E6
:100100004A40D30FDB0740002DD04A002AD0010E11
:10011000140E000212020919400A520A8418E5015D
:1001200004465443000A120A2E045043A4194219EB
:10013000200CC543AA18120C0125AD03521C5219FC
:1001400012047F39240400D0521C104301D4400013
:10015000491EC2B20C06C0092018401C4008802A63
:1001600002D003E0002070BD40084000002900DA02
:100170000020184370BD70B502464A40D50F4000BC
:100180004A00ED0740085208002814D0002A12D077
:10019000C40DD30D41020120C0055202490A520A82
:1001A000E41A091812187D34914201D3641C00E04E
:1001B0004900002C01DA002070BD0023914201D3D8
:1001C000891A0343400849000028F7D100290AD0C2
:1001D000914202D10121C90705E0914201D20121DA
:1001E00001E00121C943E005C018401900F01CF8E6
:1001F00070BD10B500229623114600F01DF810BD09
:10020000410040020122400AD205090E80187F29D0
:1002100001DA00207047962903DC9622511AC84063
:100220007047963988407047002904DA401C49001D
:1002300001D140084000704770B40024050C05D17E
:100240001024000402D1002921D01124050E01D16F
:1002500000020834050F01D10001241D850F01D1D2
:100260008000A41C002801DB4000641C002908D089
:1002700020252E1B0D46F540A14000D00121294329
:10028000084301061B1B000ADB1D02D5002070BCC1
:100290007047DB05181880180029F8DA401C49005F
:1002A000F5D170BC40084000704700001CB50948FB
:1002B00000900948019005460126009C05E0E3688E
:1002C00007CC33430C3C98471034AC42F7D3FFF7CC
:1002D00001FF0000C0090008E009000880B582B0F5
:1002E000014601A8017000780090012804D0FFE7C2
:1002F0000098022806D00BE0494844F2000100F0C3
:10030000BDF906E0464848F2000100F0B7F900E008
:10031000FFE702B080BDC046FFE7FEE780B50548B5
:1003200000F07EFA7448002101224EF2000300F032
:10033000C2F980BD1205000080B586B0154800F0F6
:100340006FFA37480190012105910022029244F290
:100350000003009300F0AFF90198029A059948F262
:100360000003049300F0A7F9009B0198029903226F
:10037000039200F0E7F901980299039A049B00F0B8
:10038000E1F90598FFF7AAFF0220FFF7A7FF06B0E3
:1003900080BDC0461305000080B582B0014601A8AB
:1003A000017000780090012808D0FFE7009802282B
:1003B00008D0FFE70098032808D00EE0012000F0E5
:1003C00011F80BE0022000F00DF807E00120FFF724
:1003D00085FF0220FFF782FF00E0FFE702B080BD4B
:1003E0007047000080B582B0014601A80170007816
:1003F0000090012804D0FFE70098022806D00BE007
:10040000074844F2000100F031F906E0044848F2E0
:10041000000100F02BF900E0FFE702B080BDC0460C
:10042000000800487047704780B582B0324842F2F9
:10043000000100F02BF9C0B9FFE70A2000F0DAF85C
:100440002D4842F2000100F021F968B9FFE7FFE70B
:10045000294842F2000100F019F908B9FFE7F7E76F
:1004600001A90120087042E0FFE7234848F200019B
:1004700000F00CF9C0B9FFE70A2000F0BBF81E48F5
:1004800048F2000100F002F968B9FFE7FFE71A48F7
:1004900048F2000100F0FAF808B9FFE7F7E701A910
:1004A0000220087023E0FFE7134844F2000100F047
:1004B000EDF8C0B9FFE70A2000F09CF80E4844F2BE
:1004C000000100F0E3F868B9FFE7FFE70A4844F2EB
:1004D000000100F0DBF808B9FFE7F7E701A9032006
:1004E000087004E0FFE701A900200870FFE701A8F9
:1004F000007802B080BDC04600040048704700008C
:1005000080B584B0CF490868012210430860FFE736
:10051000CC4800688007002801D4FFE7F8E7FFE730
:100520002D49086880221043086000200390FFE7EF
:1005300003987F2805D8FFE7FFE70398401C039046
:10054000F6E7F849086890221043086000200390FD
:10055000FFE703987F2805D8FFE7FFE70398401CD3
:100560000390F6E7FFE7EF4908680322904308602D
:10057000E94A1068194B184010600868184A104082
:1005800008600868E84A10400860164908680F22A9
:10059000904308601449086840F2031290430860D1
:1005A0000868012201921304984308600868D30781
:1005B000984308600D490868904308600C49002082
:1005C0000290086000F0B2F901980299C00600F0AC
:1005D00015F904B080BDC04604100240FFFFF2FED2
:1005E0000C00FF082C100240301002403410024072
:1005F0000810024080B584B003900398FFF7F9FD1E
:10060000E6490968FFF77AFDFFF7FAFD154908602A
:10061000154900200860D14901200860FFE7CF4854
:1006200000680290FFE7002002A90978C90701903D
:1006300041B1FFE702A880780121084041424841CA
:100640000190FFE70198C0070028E8D1FFE7C34900
:10065000086801229043086003490020086004B044
:1006600080BDC04614E000E018E000E082B00190D8
:10067000009100980199886202B0704782B00190A1
:10068000009100980199886102B0704783B0019091
:100690000091019800690099084204D0FFE702A97F
:1006A0000120087003E002A900200870FFE702A8FB
:1006B000007803B0704787B00690059104920393C9
:1006C0000698006801900698C068009002A9002072
:1006D0000880FFE702A800880F282BD8FFE702A8B0
:1006E00001880398C840C007F0B1FFE702A801885D
:1006F0004900032213468B40019999430191059BC0
:10070000018849008B4001991943019101884900F2
:100710008A400099914300910499008840008140EB
:10072000009808430090FFE7FFE70298401C02A9E9
:100730000880CFE701980699086000980699C8607C
:1007400007B0704710B586B0059004A801700392F9
:1007500002930078012806D1FFE7029A05994868BC
:100760001043486005E0029A059948689043486044
:10077000FFE705988068009001A900200880FFE746
:1007800001A800880F281DD8FFE701A8018802985A
:10079000C840C00780B1FFE701A8018849000322D3
:1007A0008A4000999143009103990088400081405C
:1007B000009808430090FFE7FFE70198401C01A95B
:1007C0000880DDE700980599886006B010BD80B507
:1007D00082B0002001906946087000F0C1F8FFF770
:1007E000ABFDFFF79BFDFFE7FFF71EFE01466846E6
:1007F00001700078FFF7D0FDF6E7000082B00190AD
:10080000009101980099044A114008430349086087
:10081000BFF34F8F02B0704780FFFF1F08ED00E06D
:1008200081B001466846018000881F2201461140C0
:1008300001238B408109384A88581843885001B0F9
:100840007047C0460010024084B000200390029020
:10085000314908680122120410430860FFE7039839
:10086000401C03902C480068012149040840029074
:10087000FFE702990020019039B9FFE70398274963
:10088000401A411E88410190FFE70198C0070028E7
:10089000E5D1FFE7204800688003002802D4FFE785
:1008A000FFE7FEE71E490868022210430522904335
:1008B00008601C49009108680860086808600868BA
:1008C00008600868184A1040086008681D22120471
:1008D000104308601049086801221206104308609E
:1008E000FFE70D4800688001002801D4FFE7F8E722
:1008F0000C490868032290430860086802221043EC
:100900000860FFE7074800680C210840082801D06C
:10091000FFE7F7E704B0704700100240FFFF000058
:100920000020024004100240FFFFC27780B5FFF7AD
:100930008BFF80BD81B000900098042806D1FFE7AE
:100940000649086804221043086005E00349086866
:10095000042290430860FFE701B0704710E000E018
:1009600080B50420C043FFF7E5FF08480068FFF7A3
:1009700040FC0749FFF7FFFB01460648016000689D
:100980000549FFF7BBFB0549086080BD000000205A
:100990000024F44A0C00002000007A4408000020E3
:1009A00002E008C8121F08C1002AFAD17047704738
:1009B000002001E001C1121F002AFBD17047000096
:1009C000E00900080000002008000000A00900085D
:1009D000E80900080800002008040000B009000829
:0809E00000A24A04000000001F
:04000005080000CD22
:00000001FF
